{
  "_format": "hh-sol-artifact-1",
  "contractName": "AccessControlExample",
  "sourceName": "contracts/AccessControlExample.sol",
  "abi": [
    {
      "inputs": [],
      "stateMutability": "nonpayable",
      "type": "constructor"
    },
    {
      "anonymous": false,
      "inputs": [
        {
          "indexed": true,
          "internalType": "address",
          "name": "user",
          "type": "address"
        },
        {
          "indexed": false,
          "internalType": "bytes32",
          "name": "encryptedValue",
          "type": "bytes32"
        }
      ],
      "name": "BalanceSet",
      "type": "event"
    },
    {
      "anonymous": false,
      "inputs": [
        {
          "indexed": true,
          "internalType": "address",
          "name": "owner",
          "type": "address"
        },
        {
          "indexed": true,
          "internalType": "bytes32",
          "name": "value",
          "type": "bytes32"
        },
        {
          "indexed": true,
          "internalType": "address",
          "name": "grantee",
          "type": "address"
        }
      ],
      "name": "PermissionGranted",
      "type": "event"
    },
    {
      "anonymous": false,
      "inputs": [
        {
          "indexed": true,
          "internalType": "address",
          "name": "owner",
          "type": "address"
        },
        {
          "indexed": true,
          "internalType": "bytes32",
          "name": "value",
          "type": "bytes32"
        },
        {
          "indexed": true,
          "internalType": "address",
          "name": "grantee",
          "type": "address"
        }
      ],
      "name": "PermissionRevoked",
      "type": "event"
    },
    {
      "inputs": [
        {
          "internalType": "bytes32",
          "name": "_encryptedValue",
          "type": "bytes32"
        }
      ],
      "name": "antiPatternNoAllowThis",
      "outputs": [
        {
          "internalType": "bytes32",
          "name": "",
          "type": "bytes32"
        }
      ],
      "stateMutability": "pure",
      "type": "function"
    },
    {
      "inputs": [
        {
          "internalType": "address[]",
          "name": "_recipients",
          "type": "address[]"
        }
      ],
      "name": "batchGrantAccess",
      "outputs": [],
      "stateMutability": "nonpayable",
      "type": "function"
    },
    {
      "inputs": [
        {
          "internalType": "bytes32",
          "name": "_encryptedValue",
          "type": "bytes32"
        }
      ],
      "name": "correctPatternWithAllowThis",
      "outputs": [
        {
          "internalType": "bytes32",
          "name": "",
          "type": "bytes32"
        }
      ],
      "stateMutability": "pure",
      "type": "function"
    },
    {
      "inputs": [
        {
          "internalType": "address",
          "name": "_user",
          "type": "address"
        }
      ],
      "name": "getBalance",
      "outputs": [
        {
          "internalType": "bytes32",
          "name": "",
          "type": "bytes32"
        }
      ],
      "stateMutability": "view",
      "type": "function"
    },
    {
      "inputs": [
        {
          "internalType": "address",
          "name": "_recipient",
          "type": "address"
        }
      ],
      "name": "grantAccess",
      "outputs": [],
      "stateMutability": "nonpayable",
      "type": "function"
    },
    {
      "inputs": [
        {
          "internalType": "address",
          "name": "_recipient",
          "type": "address"
        }
      ],
      "name": "grantTransientAccess",
      "outputs": [],
      "stateMutability": "nonpayable",
      "type": "function"
    },
    {
      "inputs": [
        {
          "internalType": "address",
          "name": "_owner",
          "type": "address"
        },
        {
          "internalType": "address",
          "name": "_accessor",
          "type": "address"
        }
      ],
      "name": "hasPermission",
      "outputs": [
        {
          "internalType": "bool",
          "name": "",
          "type": "bool"
        }
      ],
      "stateMutability": "view",
      "type": "function"
    },
    {
      "inputs": [],
      "name": "owner",
      "outputs": [
        {
          "internalType": "address",
          "name": "",
          "type": "address"
        }
      ],
      "stateMutability": "view",
      "type": "function"
    },
    {
      "inputs": [
        {
          "internalType": "address",
          "name": "_recipient",
          "type": "address"
        }
      ],
      "name": "revokeAccess",
      "outputs": [],
      "stateMutability": "nonpayable",
      "type": "function"
    },
    {
      "inputs": [
        {
          "internalType": "bytes32",
          "name": "_encryptedBalance",
          "type": "bytes32"
        }
      ],
      "name": "setBalance",
      "outputs": [],
      "stateMutability": "nonpayable",
      "type": "function"
    },
    {
      "inputs": [
        {
          "internalType": "address",
          "name": "_to",
          "type": "address"
        },
        {
          "internalType": "bytes32",
          "name": "_encryptedAmount",
          "type": "bytes32"
        }
      ],
      "name": "transfer",
      "outputs": [],
      "stateMutability": "nonpayable",
      "type": "function"
    }
  ],
  "bytecode": "0x608060405234801561000f575f80fd5b50600280546001600160a01b03191633179055610aa38061002f5f395ff3fe608060405234801561000f575f80fd5b50600436106100c4575f3560e01c806385e685311161007d578063cd28c53f11610058578063cd28c53f14610167578063cde680411461017a578063f8b2cb4f1461019d575f80fd5b806385e68531146101295780638da5cb5b1461013c57806399b7f71d146100dd575f80fd5b80632a567354116100ad5780632a567354146100dd5780636a6e1cb3146101035780637d32e7bd14610116575f80fd5b80630ae5e739146100c8578063244e7341146100c8575b5f80fd5b6100db6100d636600461095a565b6101b0565b005b6100f06100eb36600461097a565b6102b9565b6040519081526020015b60405180910390f35b6100db610111366004610991565b610310565b6100db610124366004610a00565b6104c5565b6100db61013736600461095a565b610684565b60025461014f906001600160a01b031681565b6040516001600160a01b0390911681526020016100fa565b6100db61017536600461097a565b61073a565b61018d610188366004610a28565b6107a4565b60405190151581526020016100fa565b6100f06101ab36600461095a565b610838565b6001600160a01b0381166101ff5760405162461bcd60e51b8152602060048201526011602482015270125b9d985b1a59081c9958da5c1a595b9d607a1b60448201526064015b60405180910390fd5b335f9081526020819052604090205461024b5760405162461bcd60e51b815260206004820152600e60248201526d139bc818985b185b98d9481cd95d60921b60448201526064016101f6565b335f8181526020818152604080832054600180845282852082865284528285206001600160a01b0388168087529452828520805460ff191690911790559051909391928492917f4cf3e1e37593c051ae26cd388ef2937cec5af2f089064370aa2d47b79a6368719190a45050565b5f816040516020016102f39181527f6f7065726174696f6e0000000000000000000000000000000000000000000000602082015260290190565b604051602081830303815290604052805190602001209050919050565b335f9081526020819052604090205461035c5760405162461bcd60e51b815260206004820152600e60248201526d139bc818985b185b98d9481cd95d60921b60448201526064016101f6565b335f90815260208190526040812054905b828110156104bf575f84848381811061038857610388610a59565b905060200201602081019061039d919061095a565b6001600160a01b0316036103e75760405162461bcd60e51b8152602060048201526011602482015270125b9d985b1a59081c9958da5c1a595b9d607a1b60448201526064016101f6565b335f9081526001602081815260408084208685529091528220909186868581811061041457610414610a59565b9050602002016020810190610429919061095a565b6001600160a01b0316815260208101919091526040015f20805460ff191691151591909117905583838281811061046257610462610a59565b9050602002016020810190610477919061095a565b6001600160a01b031682336001600160a01b03167f4cf3e1e37593c051ae26cd388ef2937cec5af2f089064370aa2d47b79a63687160405160405180910390a460010161036d565b50505050565b6001600160a01b03821661050f5760405162461bcd60e51b8152602060048201526011602482015270125b9d985b1a59081c9958da5c1a595b9d607a1b60448201526064016101f6565b335f9081526020819052604090205461056a5760405162461bcd60e51b815260206004820152600a60248201527f4e6f2062616c616e63650000000000000000000000000000000000000000000060448201526064016101f6565b335f8181526020818152604080832080548251808501919091528083018790527f7472616e736665725f6f7574000000000000000000000000000000000000000060608201528251604c818303018152606c820184528051908501206001600160a01b03989098168086528585528386208054608c84015260ac8301989098527f7472616e736665725f696e00000000000000000000000000000000000000000060cc830152835160b781840301815260d7909201845281519185019190912091889055958190558484526001808452828520978552968352818420948452938252808320805460ff1990811688179091558584528683528184209484529382528083209483529390529190912080549091169091179055565b335f908152602081905260409020546106d05760405162461bcd60e51b815260206004820152600e60248201526d139bc818985b185b98d9481cd95d60921b60448201526064016101f6565b335f81815260208181526040808320546001835281842081855283528184206001600160a01b0387168086529352818420805460ff191690559051909391928492917f8528861abdfa203f91afaa99405f2267859f7cdf846752a81913fe8ab2fe47209190a45050565b335f8181526020818152604080832085905560018083528184208685528352818420858552835292819020805460ff191690931790925590518381527f446cfec53a4a78b8fa882db0c3c72a366ae7d58c7598773afc0e1d4c81d5797b910160405180910390a250565b6001600160a01b0382165f90815260208190526040812054806107ca575f915050610832565b6001600160a01b038085165f90815260016020908152604080832085845282528083209387168352929052205460ff16806108165750836001600160a01b0316836001600160a01b0316145b8061082e57506002546001600160a01b038481169116145b9150505b92915050565b6001600160a01b0381165f908152602081905260408120548061089d5760405162461bcd60e51b815260206004820152601060248201527f4e6f2062616c616e636520666f756e640000000000000000000000000000000060448201526064016101f6565b6001600160a01b0383165f908152600160209081526040808320848452825280832033845290915290205460ff16806108de5750336001600160a01b038416145b806108f357506002546001600160a01b031633145b6108325760405162461bcd60e51b815260206004820152600d60248201527f4163636573732064656e6965640000000000000000000000000000000000000060448201526064016101f6565b80356001600160a01b0381168114610955575f80fd5b919050565b5f6020828403121561096a575f80fd5b6109738261093f565b9392505050565b5f6020828403121561098a575f80fd5b5035919050565b5f80602083850312156109a2575f80fd5b823567ffffffffffffffff808211156109b9575f80fd5b818501915085601f8301126109cc575f80fd5b8135818111156109da575f80fd5b8660208260051b85010111156109ee575f80fd5b60209290920196919550909350505050565b5f8060408385031215610a11575f80fd5b610a1a8361093f565b946020939093013593505050565b5f8060408385031215610a39575f80fd5b610a428361093f565b9150610a506020840161093f565b90509250929050565b634e487b7160e01b5f52603260045260245ffdfea264697066735822122018eae4a9c681e38c554712aeffeee02c1ebedbd419426d0fdba0d3385255357f64736f6c63430008180033",
  "linkReferences": {},
  "deployedLinkReferences": {}
}