{
  "_format": "hh-sol-artifact-1",
  "contractName": "FHECounter",
  "sourceName": "contracts/FHECounter.sol",
  "abi": [
    {
      "inputs": [],
      "stateMutability": "nonpayable",
      "type": "constructor"
    },
    {
      "anonymous": false,
      "inputs": [
        {
          "indexed": false,
          "internalType": "bytes32",
          "name": "newEncryptedValue",
          "type": "bytes32"
        }
      ],
      "name": "CountDecremented",
      "type": "event"
    },
    {
      "anonymous": false,
      "inputs": [
        {
          "indexed": false,
          "internalType": "bytes32",
          "name": "newEncryptedValue",
          "type": "bytes32"
        }
      ],
      "name": "CountIncremented",
      "type": "event"
    },
    {
      "inputs": [
        {
          "internalType": "bytes32",
          "name": "_encryptedValue",
          "type": "bytes32"
        }
      ],
      "name": "decrement",
      "outputs": [],
      "stateMutability": "nonpayable",
      "type": "function"
    },
    {
      "inputs": [],
      "name": "getCount",
      "outputs": [
        {
          "internalType": "bytes32",
          "name": "",
          "type": "bytes32"
        }
      ],
      "stateMutability": "view",
      "type": "function"
    },
    {
      "inputs": [
        {
          "internalType": "address",
          "name": "_recipient",
          "type": "address"
        }
      ],
      "name": "grantAccess",
      "outputs": [],
      "stateMutability": "nonpayable",
      "type": "function"
    },
    {
      "inputs": [
        {
          "internalType": "bytes32",
          "name": "_encryptedValue",
          "type": "bytes32"
        }
      ],
      "name": "increment",
      "outputs": [],
      "stateMutability": "nonpayable",
      "type": "function"
    },
    {
      "inputs": [
        {
          "internalType": "bytes32",
          "name": "_encryptedValue",
          "type": "bytes32"
        }
      ],
      "name": "isEqual",
      "outputs": [
        {
          "internalType": "bytes32",
          "name": "",
          "type": "bytes32"
        }
      ],
      "stateMutability": "view",
      "type": "function"
    },
    {
      "inputs": [],
      "name": "owner",
      "outputs": [
        {
          "internalType": "address",
          "name": "",
          "type": "address"
        }
      ],
      "stateMutability": "view",
      "type": "function"
    },
    {
      "inputs": [],
      "name": "reset",
      "outputs": [],
      "stateMutability": "nonpayable",
      "type": "function"
    }
  ],
  "bytecode": "0x608060405234801561000f575f80fd5b50600180546001600160a01b031916331790556040515f602082015260240160408051601f1981840301815291905280516020909101205f5561043f806100555f395ff3fe608060405234801561000f575f80fd5b506004361061007a575f3560e01c8063a87d942c11610058578063a87d942c146100d6578063bd6fec4b146100e7578063d826f88f1461012f578063e912bff514610137575f80fd5b80630ae5e7391461007e57806340c443b3146100935780638da5cb5b146100a6575b5f80fd5b61009161008c3660046103c5565b61014a565b005b6100916100a13660046103f2565b6101ef565b6001546100b9906001600160a01b031681565b6040516001600160a01b0390911681526020015b60405180910390f35b5f545b6040519081526020016100cd565b6100d96100f53660046103f2565b5f54604080516020808201939093528082019390935261657160f01b60608401528051604281850301815260629093019052815191012090565b6100916102a6565b6100916101453660046103f2565b610315565b6001546001600160a01b031633146101965760405162461bcd60e51b815260206004820152600a60248201526927b7363c9037bbb732b960b11b60448201526064015b60405180910390fd5b6001600160a01b0381166101ec5760405162461bcd60e51b815260206004820152601160248201527f496e76616c696420726563697069656e74000000000000000000000000000000604482015260640161018d565b50565b6001546001600160a01b031633146102365760405162461bcd60e51b815260206004820152600a60248201526927b7363c9037bbb732b960b11b604482015260640161018d565b5f5460408051602081019290925281018290526218591960ea1b606082015260630160408051808303601f190181529082905280516020918201205f81905582527f110949ed573ae7ae8a7c2e56eb85d3eff32b196f4bbddec7db517dd009ecef7291015b60405180910390a150565b6001546001600160a01b031633146102ed5760405162461bcd60e51b815260206004820152600a60248201526927b7363c9037bbb732b960b11b604482015260640161018d565b6040515f602082015260240160408051601f1981840301815291905280516020909101205f55565b6001546001600160a01b0316331461035c5760405162461bcd60e51b815260206004820152600a60248201526927b7363c9037bbb732b960b11b604482015260640161018d565b5f5460408051602081019290925281018290526239bab160e91b606082015260630160408051808303601f190181529082905280516020918201205f81905582527f5301c0e9de3e86a107f57c8cf529d8d4635cbe68540db0d3a8f709cd71437e72910161029b565b5f602082840312156103d5575f80fd5b81356001600160a01b03811681146103eb575f80fd5b9392505050565b5f60208284031215610402575f80fd5b503591905056fea26469706673582212206c7e4801081e13a45a1ad11373188ad0b4b2b659c8c1c3f12974b6304c8a930b64736f6c63430008180033",
  "linkReferences": {},
  "deployedLinkReferences": {}
}