{"contracts/Counter.sol":{"Counter":{"abi":[{"inputs":[{"internalType":"uint32","name":"value","type":"uint32"}],"name":"decrement","outputs":[],"stateMutability":"nonpayable","type":"function"},{"inputs":[],"name":"getCount","outputs":[{"internalType":"uint32","name":"","type":"uint32"}],"stateMutability":"view","type":"function"},{"inputs":[{"internalType":"uint32","name":"value","type":"uint32"}],"name":"increment","outputs":[],"stateMutability":"nonpayable","type":"function"},{"inputs":[],"name":"reset","outputs":[],"stateMutability":"nonpayable","type":"function"}],"evm":{"bytecode":{"linkReferences":{},"object":"608060405234801561000f575f80fd5b506102148061001d5f395ff3fe608060405234801561000f575f80fd5b506004361061004a575f3560e01c80633bbc853b1461004e578063a87d942c14610063578063c3a7908d1461007e578063d826f88f14610091575b5f80fd5b61006161005c36600461015f565b6100a2565b005b5f546040805163ffffffff9092168252519081900360200190f35b61006161008c36600461015f565b6100dc565b6100615f805463ffffffff19169055565b5f805482919081906100bb90849063ffffffff1661019d565b92506101000a81548163ffffffff021916908363ffffffff16021790555050565b5f5463ffffffff808316911610156101465760405162461bcd60e51b8152602060048201526024808201527f436f756e7465723a2063616e6e6f742064656372656d656e742062656c6f77206044820152637a65726f60e01b606482015260840160405180910390fd5b5f805482919081906100bb90849063ffffffff166101c1565b5f6020828403121561016f575f80fd5b813563ffffffff81168114610182575f80fd5b9392505050565b634e487b7160e01b5f52601160045260245ffd5b63ffffffff8181168382160190808211156101ba576101ba610189565b5092915050565b63ffffffff8281168282160390808211156101ba576101ba61018956fea26469706673582212206bbc61d3e7ebefe3ae1b999a2e5da0dc9ddf0234e5d999fd39db2553351a95a264736f6c63430008180033","opcodes":"PUSH1 0x80 PUSH1 0x40 MSTORE CALLVALUE DUP1 ISZERO PUSH2 0xF JUMPI PUSH0 DUP1 REVERT JUMPDEST POP PUSH2 0x214 DUP1 PUSH2 0x1D PUSH0 CODECOPY PUSH0 RETURN INVALID PUSH1 0x80 PUSH1 0x40 MSTORE CALLVALUE DUP1 ISZERO PUSH2 0xF JUMPI PUSH0 DUP1 REVERT JUMPDEST POP PUSH1 0x4 CALLDATASIZE LT PUSH2 0x4A JUMPI PUSH0 CALLDATALOAD PUSH1 0xE0 SHR DUP1 PUSH4 0x3BBC853B EQ PUSH2 0x4E JUMPI DUP1 PUSH4 0xA87D942C EQ PUSH2 0x63 JUMPI DUP1 PUSH4 0xC3A7908D EQ PUSH2 0x7E JUMPI DUP1 PUSH4 0xD826F88F EQ PUSH2 0x91 JUMPI JUMPDEST PUSH0 DUP1 REVERT JUMPDEST PUSH2 0x61 PUSH2 0x5C CALLDATASIZE PUSH1 0x4 PUSH2 0x15F JUMP JUMPDEST PUSH2 0xA2 JUMP JUMPDEST STOP JUMPDEST PUSH0 SLOAD PUSH1 0x40 DUP1 MLOAD PUSH4 0xFFFFFFFF SWAP1 SWAP3 AND DUP3 MSTORE MLOAD SWAP1 DUP2 SWAP1 SUB PUSH1 0x20 ADD SWAP1 RETURN JUMPDEST PUSH2 0x61 PUSH2 0x8C CALLDATASIZE PUSH1 0x4 PUSH2 0x15F JUMP JUMPDEST PUSH2 0xDC JUMP JUMPDEST PUSH2 0x61 PUSH0 DUP1 SLOAD PUSH4 0xFFFFFFFF NOT AND SWAP1 SSTORE JUMP JUMPDEST PUSH0 DUP1 SLOAD DUP3 SWAP2 SWAP1 DUP2 SWAP1 PUSH2 0xBB SWAP1 DUP5 SWAP1 PUSH4 0xFFFFFFFF AND PUSH2 0x19D JUMP JUMPDEST SWAP3 POP PUSH2 0x100 EXP DUP2 SLOAD DUP2 PUSH4 0xFFFFFFFF MUL NOT AND SWAP1 DUP4 PUSH4 0xFFFFFFFF AND MUL OR SWAP1 SSTORE POP POP JUMP JUMPDEST PUSH0 SLOAD PUSH4 0xFFFFFFFF DUP1 DUP4 AND SWAP2 AND LT ISZERO PUSH2 0x146 JUMPI PUSH1 0x40 MLOAD PUSH3 0x461BCD PUSH1 0xE5 SHL DUP2 MSTORE PUSH1 0x20 PUSH1 0x4 DUP3 ADD MSTORE PUSH1 0x24 DUP1 DUP3 ADD MSTORE PUSH32 0x436F756E7465723A2063616E6E6F742064656372656D656E742062656C6F7720 PUSH1 0x44 DUP3 ADD MSTORE PUSH4 0x7A65726F PUSH1 0xE0 SHL PUSH1 0x64 DUP3 ADD MSTORE PUSH1 0x84 ADD PUSH1 0x40 MLOAD DUP1 SWAP2 SUB SWAP1 REVERT JUMPDEST PUSH0 DUP1 SLOAD DUP3 SWAP2 SWAP1 DUP2 SWAP1 PUSH2 0xBB SWAP1 DUP5 SWAP1 PUSH4 0xFFFFFFFF AND PUSH2 0x1C1 JUMP JUMPDEST PUSH0 PUSH1 0x20 DUP3 DUP5 SUB SLT ISZERO PUSH2 0x16F JUMPI PUSH0 DUP1 REVERT JUMPDEST DUP2 CALLDATALOAD PUSH4 0xFFFFFFFF DUP2 AND DUP2 EQ PUSH2 0x182 JUMPI PUSH0 DUP1 REVERT JUMPDEST SWAP4 SWAP3 POP POP POP JUMP JUMPDEST PUSH4 0x4E487B71 PUSH1 0xE0 SHL PUSH0 MSTORE PUSH1 0x11 PUSH1 0x4 MSTORE PUSH1 0x24 PUSH0 REVERT JUMPDEST PUSH4 0xFFFFFFFF DUP2 DUP2 AND DUP4 DUP3 AND ADD SWAP1 DUP1 DUP3 GT ISZERO PUSH2 0x1BA JUMPI PUSH2 0x1BA PUSH2 0x189 JUMP JUMPDEST POP SWAP3 SWAP2 POP POP JUMP JUMPDEST PUSH4 0xFFFFFFFF DUP3 DUP2 AND DUP3 DUP3 AND SUB SWAP1 DUP1 DUP3 GT ISZERO PUSH2 0x1BA JUMPI PUSH2 0x1BA PUSH2 0x189 JUMP INVALID LOG2 PUSH5 0x6970667358 0x22 SLT KECCAK256 PUSH12 0xBC61D3E7EBEFE3AE1B999A2E TSTORE LOG0 0xDC SWAP14 0xDF MUL CALLVALUE 0xE5 0xD9 SWAP10 REVERT CODECOPY 0xDB 0x25 MSTORE8 CALLDATALOAD BYTE SWAP6 LOG2 PUSH5 0x736F6C6343 STOP ADDMOD XOR STOP CALLER "},"methodIdentifiers":{"decrement(uint32)":"c3a7908d","getCount()":"a87d942c","increment(uint32)":"3bbc853b","reset()":"d826f88f"}}}}}