{"contracts/AntiPatterns.sol":{"AntiPatterns":{"abi":[{"inputs":[{"internalType":"bytes32[]","name":"_values","type":"bytes32[]"}],"name":"antiPattern10_InefficientBatch","outputs":[{"internalType":"uint256","name":"","type":"uint256"}],"stateMutability":"nonpayable","type":"function"},{"inputs":[{"internalType":"bytes32","name":"_encryptedA","type":"bytes32"},{"internalType":"bytes32","name":"_encryptedB","type":"bytes32"}],"name":"antiPattern1_ViewFunctionWithEncryption","outputs":[{"internalType":"bytes32","name":"","type":"bytes32"}],"stateMutability":"pure","type":"function"},{"inputs":[{"internalType":"bytes32","name":"_encrypted","type":"bytes32"}],"name":"antiPattern2_MissingAllowThis","outputs":[],"stateMutability":"nonpayable","type":"function"},{"inputs":[{"internalType":"address","name":"_user","type":"address"}],"name":"antiPattern3_NoUserPermission","outputs":[],"stateMutability":"nonpayable","type":"function"},{"inputs":[{"internalType":"address","name":"_user","type":"address"}],"name":"antiPattern4_NoAccessControl","outputs":[{"internalType":"bytes32","name":"","type":"bytes32"}],"stateMutability":"view","type":"function"},{"inputs":[{"internalType":"bytes32","name":"_a","type":"bytes32"},{"internalType":"bytes32","name":"_b","type":"bytes32"},{"internalType":"bytes32","name":"_c","type":"bytes32"}],"name":"antiPattern5_InefficientOperations","outputs":[{"internalType":"bytes32","name":"","type":"bytes32"}],"stateMutability":"pure","type":"function"},{"inputs":[{"internalType":"bytes32","name":"_encrypted","type":"bytes32"}],"name":"antiPattern6_IncorrectHandleLifecycle","outputs":[],"stateMutability":"nonpayable","type":"function"},{"inputs":[{"internalType":"uint256","name":"_plaintext","type":"uint256"}],"name":"antiPattern7_StoringDecryptedValue","outputs":[],"stateMutability":"nonpayable","type":"function"},{"inputs":[{"internalType":"bytes32","name":"_encrypted","type":"bytes32"}],"name":"antiPattern8_NoInputProofValidation","outputs":[],"stateMutability":"nonpayable","type":"function"},{"inputs":[{"internalType":"bytes32","name":"_a","type":"bytes32"},{"internalType":"bytes32","name":"_b","type":"bytes32"}],"name":"antiPattern9_DirectBooleanComparison","outputs":[{"internalType":"bool","name":"","type":"bool"}],"stateMutability":"pure","type":"function"},{"inputs":[],"name":"bestPracticesSummary","outputs":[{"internalType":"string","name":"","type":"string"}],"stateMutability":"pure","type":"function"},{"inputs":[{"internalType":"bytes32[]","name":"_values","type":"bytes32[]"}],"name":"correctPattern10_EfficientBatch","outputs":[{"internalType":"uint256","name":"","type":"uint256"}],"stateMutability":"nonpayable","type":"function"},{"inputs":[{"internalType":"bytes32","name":"_encryptedA","type":"bytes32"},{"internalType":"bytes32","name":"_encryptedB","type":"bytes32"}],"name":"correctPattern1_StatefulFHEOperation","outputs":[{"internalType":"bytes32","name":"","type":"bytes32"}],"stateMutability":"nonpayable","type":"function"},{"inputs":[{"internalType":"bytes32","name":"_encrypted","type":"bytes32"}],"name":"correctPattern2_WithAllowThis","outputs":[],"stateMutability":"nonpayable","type":"function"},{"inputs":[{"internalType":"address","name":"_user","type":"address"}],"name":"correctPattern3_WithUserPermission","outputs":[],"stateMutability":"nonpayable","type":"function"},{"inputs":[{"internalType":"address","name":"_user","type":"address"}],"name":"correctPattern4_WithAccessControl","outputs":[{"internalType":"bytes32","name":"","type":"bytes32"}],"stateMutability":"view","type":"function"},{"inputs":[{"internalType":"bytes32","name":"_a","type":"bytes32"},{"internalType":"bytes32","name":"_b","type":"bytes32"},{"internalType":"bytes32","name":"_c","type":"bytes32"}],"name":"correctPattern5_EfficientOperations","outputs":[{"internalType":"bytes32","name":"","type":"bytes32"}],"stateMutability":"pure","type":"function"},{"inputs":[{"internalType":"bytes32","name":"_encrypted","type":"bytes32"}],"name":"correctPattern6_CorrectHandleLifecycle","outputs":[],"stateMutability":"nonpayable","type":"function"},{"inputs":[{"internalType":"bytes32","name":"_encrypted","type":"bytes32"}],"name":"correctPattern7_KeepEncrypted","outputs":[],"stateMutability":"nonpayable","type":"function"},{"inputs":[{"internalType":"uint32","name":"_value","type":"uint32"},{"internalType":"bytes","name":"_inputProof","type":"bytes"}],"name":"correctPattern8_WithInputProofValidation","outputs":[],"stateMutability":"nonpayable","type":"function"},{"inputs":[{"internalType":"bytes32","name":"_a","type":"bytes32"},{"internalType":"bytes32","name":"_b","type":"bytes32"},{"internalType":"bytes32","name":"_ifTrue","type":"bytes32"},{"internalType":"bytes32","name":"_ifFalse","type":"bytes32"}],"name":"correctPattern9_UseSelect","outputs":[{"internalType":"bytes32","name":"","type":"bytes32"}],"stateMutability":"pure","type":"function"},{"inputs":[],"name":"decryptedValue","outputs":[{"internalType":"uint256","name":"","type":"uint256"}],"stateMutability":"view","type":"function"},{"inputs":[],"name":"encryptedValue","outputs":[{"internalType":"bytes32","name":"","type":"bytes32"}],"stateMutability":"view","type":"function"},{"inputs":[{"internalType":"address","name":"","type":"address"}],"name":"userValues","outputs":[{"internalType":"bytes32","name":"","type":"bytes32"}],"stateMutability":"view","type":"function"}],"evm":{"bytecode":{"linkReferences":{},"object":"608060405234801561000f575f80fd5b50610da68061001d5f395ff3fe608060405234801561000f575f80fd5b506004361061018f575f3560e01c80637e3333c6116100dd578063ca9c25a511610088578063f810313e11610063578063f810313e146103a2578063f881df4f146103ab578063ff68a8a9146101b9575f80fd5b8063ca9c25a514610367578063e2eddebc1461037a578063f349da70146102aa575f80fd5b80639fb39833116100b85780639fb39833146102d8578063b5cec59314610341578063be303c6014610354575f80fd5b80637e3333c6146101b95780638501bca5146102bd57806386e560be146102d0575f80fd5b80634acfd9b81161013d578063633ccf9d11610118578063633ccf9d146102745780636ecf7286146102975780637b1e0fb1146102aa575f80fd5b80634acfd9b8146102085780634e5878791461022757806361da43c21461023a575f80fd5b80632f6caec41161016d5780632f6caec4146101cd57806330a3d822146101e0578063465987b6146101f3575f80fd5b806303453a071461019357806311ec23f3146101b957806313696744146101b9575b5f80fd5b6101a66101a13660046108de565b6103be565b6040519081526020015b60405180910390f35b6101cb6101c736600461090d565b5f55565b005b6101cb6101db36600461090d565b610457565b6101a66101ee366004610924565b610498565b6101fb61052c565b6040516101b09190610993565b6101a66102163660046109df565b60016020525f908152604090205481565b6101a6610235366004610924565b61054f565b6101a6610248366004610a0c565b604080516020808201949094528082019290925280518083038201815260609092019052805191012090565b610287610282366004610a0c565b6105a6565b60405190151581526020016101b0565b6101a66102a5366004610a0c565b6105f1565b6101cb6102b83660046109df565b61063f565b6101cb6102cb36600461090d565b600255565b6101a65f5481565b6101a66102e6366004610a2c565b604080516020808201959095528082019390935260608301919091527f636f6d62696e656400000000000000000000000000000000000000000000000060808301528051606881840301815260889092019052805191012090565b6101cb61034f36600461090d565b6106af565b6101a6610362366004610a2c565b6106e8565b6101cb610375366004610a55565b6107df565b6101a66103883660046109df565b6001600160a01b03165f9081526001602052604090205490565b6101a660025481565b6101a66103b93660046109df565b610860565b5f8085856040516020016103e7929190918252602082015261657160f01b604082015260420190565b60408051808303601f190181528282528051602091820120818401528282019690965260608201949094527f73656c656374000000000000000000000000000000000000000000000000000060808201528351606681830301815260869091019093525050805191012092915050565b604051819061047a9082906020019081526218591960ea1b602082015260230190565b60408051601f1981840301815291905280516020909101205f555050565b5f816104eb5760405162461bcd60e51b815260206004820152600b60248201527f456d70747920617272617900000000000000000000000000000000000000000060448201526064015b60405180910390fd5b5f83836040516020016104ff929190610adb565b60408051808303601f190181529181528151602092830120335f9081526001909352912055509092915050565b60606040518061020001604052806101de8152602001610b936101de9139905090565b5f80805b8381101561059e5784848281811061056d5761056d610b1b565b335f90815260016020908152604090912091029290920135909155508161059381610b2f565b925050600101610553565b509392505050565b5f8083836040516020016105cf929190918252602082015261657160f01b604082015260420190565b60408051808303601f1901815291905280516020909101201515949350505050565b5f80838360405160200161061b92919091825260208201526218591960ea1b604082015260430190565b60408051808303601f1901815291905280516020909101205f819055949350505050565b5f805460405160200161067a9181527f6f7065726174696f6e0000000000000000000000000000000000000000000000602082015260290190565b60408051601f1981840301815291815281516020928301206001600160a01b039094165f908152600190925290209190915550565b60405181905f906106d49083906020019081526218591960ea1b602082015260230190565b60408051601f1981840301905252505f5550565b5f808484604051602001610706929190918252602082015260400190565b6040516020818303038152906040528051906020012090505f8160405160200161073e9181526218591960ea1b602082015260230190565b60408051601f19818403018152828252805160209182012090830181905290820186905291505f906060016040516020818303038152906040528051906020012090505f816040516020016107bb9181527f66696e616c000000000000000000000000000000000000000000000000000000602082015260250190565b60408051808303601f19018152919052805160209091012098975050505050505050565b8061082c5760405162461bcd60e51b815260206004820152601460248201527f496e7075742070726f6f6620726571756972656400000000000000000000000060448201526064016104e2565b82828260405160200161084193929190610b53565b60408051601f1981840301815291905280516020909101205f55505050565b5f336001600160a01b038316148061087757503330145b6108c35760405162461bcd60e51b815260206004820152600d60248201527f4163636573732064656e6965640000000000000000000000000000000000000060448201526064016104e2565b506001600160a01b03165f9081526001602052604090205490565b5f805f80608085870312156108f1575f80fd5b5050823594602084013594506040840135936060013592509050565b5f6020828403121561091d575f80fd5b5035919050565b5f8060208385031215610935575f80fd5b823567ffffffffffffffff8082111561094c575f80fd5b818501915085601f83011261095f575f80fd5b81358181111561096d575f80fd5b8660208260051b8501011115610981575f80fd5b60209290920196919550909350505050565b5f602080835283518060208501525f5b818110156109bf578581018301518582016040015282016109a3565b505f604082860101526040601f19601f8301168501019250505092915050565b5f602082840312156109ef575f80fd5b81356001600160a01b0381168114610a05575f80fd5b9392505050565b5f8060408385031215610a1d575f80fd5b50508035926020909101359150565b5f805f60608486031215610a3e575f80fd5b505081359360208301359350604090920135919050565b5f805f60408486031215610a67575f80fd5b833563ffffffff81168114610a7a575f80fd5b9250602084013567ffffffffffffffff80821115610a96575f80fd5b818601915086601f830112610aa9575f80fd5b813581811115610ab7575f80fd5b876020828501011115610ac8575f80fd5b6020830194508093505050509250925092565b5f7f07ffffffffffffffffffffffffffffffffffffffffffffffffffffffffffffff831115610b08575f80fd5b8260051b80858437919091019392505050565b634e487b7160e01b5f52603260045260245ffd5b5f60018201610b4c57634e487b7160e01b5f52601160045260245ffd5b5060010190565b60e084901b7fffffffff00000000000000000000000000000000000000000000000000000000168152818360048301375f91016004019081529291505056fe4648452042657374205072616374696365733a0a312e204e657665722075736520766965772066756e6374696f6e7320666f7220464845206f7065726174696f6e730a322e20416c776179732063616c6c204648452e616c6c6f77546869732829206265666f7265207573696e6720656e637279707465642076616c7565730a332e204772616e74207573657273207065726d697373696f6e2077697468204648452e616c6c6f772829206166746572206f7065726174696f6e730a342e20496d706c656d656e742061636365737320636f6e74726f6c206576656e20666f7220656e6372797074656420646174610a352e204d696e696d697a65206e756d626572206f6620464845206f7065726174696f6e7320666f722067617320656666696369656e63790a362e20547261636b2068616e646c6520757064617465732061667465722065616368206f7065726174696f6e0a372e204b6565702076616c75657320656e63727970746564206f6e2d636861696e0a382e20416c776179732076616c696461746520696e7075742070726f6f66730a392e20557365204648452e73656c656374282920666f7220636f6e646974696f6e616c206c6f6769630a31302e204f7074696d697a65206261746368206f7065726174696f6e73a26469706673582212202e043ed991037ef9b840b807ef921f1b995433cb245ebf4477a745f8c63f5ddd64736f6c63430008180033","opcodes":"PUSH1 0x80 PUSH1 0x40 MSTORE CALLVALUE DUP1 ISZERO PUSH2 0xF JUMPI PUSH0 DUP1 REVERT JUMPDEST POP PUSH2 0xDA6 DUP1 PUSH2 0x1D PUSH0 CODECOPY PUSH0 RETURN INVALID PUSH1 0x80 PUSH1 0x40 MSTORE CALLVALUE DUP1 ISZERO PUSH2 0xF JUMPI PUSH0 DUP1 REVERT JUMPDEST POP PUSH1 0x4 CALLDATASIZE LT PUSH2 0x18F JUMPI PUSH0 CALLDATALOAD PUSH1 0xE0 SHR DUP1 PUSH4 0x7E3333C6 GT PUSH2 0xDD JUMPI DUP1 PUSH4 0xCA9C25A5 GT PUSH2 0x88 JUMPI DUP1 PUSH4 0xF810313E GT PUSH2 0x63 JUMPI DUP1 PUSH4 0xF810313E EQ PUSH2 0x3A2 JUMPI DUP1 PUSH4 0xF881DF4F EQ PUSH2 0x3AB JUMPI DUP1 PUSH4 0xFF68A8A9 EQ PUSH2 0x1B9 JUMPI PUSH0 DUP1 REVERT JUMPDEST DUP1 PUSH4 0xCA9C25A5 EQ PUSH2 0x367 JUMPI DUP1 PUSH4 0xE2EDDEBC EQ PUSH2 0x37A JUMPI DUP1 PUSH4 0xF349DA70 EQ PUSH2 0x2AA JUMPI PUSH0 DUP1 REVERT JUMPDEST DUP1 PUSH4 0x9FB39833 GT PUSH2 0xB8 JUMPI DUP1 PUSH4 0x9FB39833 EQ PUSH2 0x2D8 JUMPI DUP1 PUSH4 0xB5CEC593 EQ PUSH2 0x341 JUMPI DUP1 PUSH4 0xBE303C60 EQ PUSH2 0x354 JUMPI PUSH0 DUP1 REVERT JUMPDEST DUP1 PUSH4 0x7E3333C6 EQ PUSH2 0x1B9 JUMPI DUP1 PUSH4 0x8501BCA5 EQ PUSH2 0x2BD JUMPI DUP1 PUSH4 0x86E560BE EQ PUSH2 0x2D0 JUMPI PUSH0 DUP1 REVERT JUMPDEST DUP1 PUSH4 0x4ACFD9B8 GT PUSH2 0x13D JUMPI DUP1 PUSH4 0x633CCF9D GT PUSH2 0x118 JUMPI DUP1 PUSH4 0x633CCF9D EQ PUSH2 0x274 JUMPI DUP1 PUSH4 0x6ECF7286 EQ PUSH2 0x297 JUMPI DUP1 PUSH4 0x7B1E0FB1 EQ PUSH2 0x2AA JUMPI PUSH0 DUP1 REVERT JUMPDEST DUP1 PUSH4 0x4ACFD9B8 EQ PUSH2 0x208 JUMPI DUP1 PUSH4 0x4E587879 EQ PUSH2 0x227 JUMPI DUP1 PUSH4 0x61DA43C2 EQ PUSH2 0x23A JUMPI PUSH0 DUP1 REVERT JUMPDEST DUP1 PUSH4 0x2F6CAEC4 GT PUSH2 0x16D JUMPI DUP1 PUSH4 0x2F6CAEC4 EQ PUSH2 0x1CD JUMPI DUP1 PUSH4 0x30A3D822 EQ PUSH2 0x1E0 JUMPI DUP1 PUSH4 0x465987B6 EQ PUSH2 0x1F3 JUMPI PUSH0 DUP1 REVERT JUMPDEST DUP1 PUSH4 0x3453A07 EQ PUSH2 0x193 JUMPI DUP1 PUSH4 0x11EC23F3 EQ PUSH2 0x1B9 JUMPI DUP1 PUSH4 0x13696744 EQ PUSH2 0x1B9 JUMPI JUMPDEST PUSH0 DUP1 REVERT JUMPDEST PUSH2 0x1A6 PUSH2 0x1A1 CALLDATASIZE PUSH1 0x4 PUSH2 0x8DE JUMP JUMPDEST PUSH2 0x3BE JUMP JUMPDEST PUSH1 0x40 MLOAD SWAP1 DUP2 MSTORE PUSH1 0x20 ADD JUMPDEST PUSH1 0x40 MLOAD DUP1 SWAP2 SUB SWAP1 RETURN JUMPDEST PUSH2 0x1CB PUSH2 0x1C7 CALLDATASIZE PUSH1 0x4 PUSH2 0x90D JUMP JUMPDEST PUSH0 SSTORE JUMP JUMPDEST STOP JUMPDEST PUSH2 0x1CB PUSH2 0x1DB CALLDATASIZE PUSH1 0x4 PUSH2 0x90D JUMP JUMPDEST PUSH2 0x457 JUMP JUMPDEST PUSH2 0x1A6 PUSH2 0x1EE CALLDATASIZE PUSH1 0x4 PUSH2 0x924 JUMP JUMPDEST PUSH2 0x498 JUMP JUMPDEST PUSH2 0x1FB PUSH2 0x52C JUMP JUMPDEST PUSH1 0x40 MLOAD PUSH2 0x1B0 SWAP2 SWAP1 PUSH2 0x993 JUMP JUMPDEST PUSH2 0x1A6 PUSH2 0x216 CALLDATASIZE PUSH1 0x4 PUSH2 0x9DF JUMP JUMPDEST PUSH1 0x1 PUSH1 0x20 MSTORE PUSH0 SWAP1 DUP2 MSTORE PUSH1 0x40 SWAP1 KECCAK256 SLOAD DUP2 JUMP JUMPDEST PUSH2 0x1A6 PUSH2 0x235 CALLDATASIZE PUSH1 0x4 PUSH2 0x924 JUMP JUMPDEST PUSH2 0x54F JUMP JUMPDEST PUSH2 0x1A6 PUSH2 0x248 CALLDATASIZE PUSH1 0x4 PUSH2 0xA0C JUMP JUMPDEST PUSH1 0x40 DUP1 MLOAD PUSH1 0x20 DUP1 DUP3 ADD SWAP5 SWAP1 SWAP5 MSTORE DUP1 DUP3 ADD SWAP3 SWAP1 SWAP3 MSTORE DUP1 MLOAD DUP1 DUP4 SUB DUP3 ADD DUP2 MSTORE PUSH1 0x60 SWAP1 SWAP3 ADD SWAP1 MSTORE DUP1 MLOAD SWAP2 ADD KECCAK256 SWAP1 JUMP JUMPDEST PUSH2 0x287 PUSH2 0x282 CALLDATASIZE PUSH1 0x4 PUSH2 0xA0C JUMP JUMPDEST PUSH2 0x5A6 JUMP JUMPDEST PUSH1 0x40 MLOAD SWAP1 ISZERO ISZERO DUP2 MSTORE PUSH1 0x20 ADD PUSH2 0x1B0 JUMP JUMPDEST PUSH2 0x1A6 PUSH2 0x2A5 CALLDATASIZE PUSH1 0x4 PUSH2 0xA0C JUMP JUMPDEST PUSH2 0x5F1 JUMP JUMPDEST PUSH2 0x1CB PUSH2 0x2B8 CALLDATASIZE PUSH1 0x4 PUSH2 0x9DF JUMP JUMPDEST PUSH2 0x63F JUMP JUMPDEST PUSH2 0x1CB PUSH2 0x2CB CALLDATASIZE PUSH1 0x4 PUSH2 0x90D JUMP JUMPDEST PUSH1 0x2 SSTORE JUMP JUMPDEST PUSH2 0x1A6 PUSH0 SLOAD DUP2 JUMP JUMPDEST PUSH2 0x1A6 PUSH2 0x2E6 CALLDATASIZE PUSH1 0x4 PUSH2 0xA2C JUMP JUMPDEST PUSH1 0x40 DUP1 MLOAD PUSH1 0x20 DUP1 DUP3 ADD SWAP6 SWAP1 SWAP6 MSTORE DUP1 DUP3 ADD SWAP4 SWAP1 SWAP4 MSTORE PUSH1 0x60 DUP4 ADD SWAP2 SWAP1 SWAP2 MSTORE PUSH32 0x636F6D62696E6564000000000000000000000000000000000000000000000000 PUSH1 0x80 DUP4 ADD MSTORE DUP1 MLOAD PUSH1 0x68 DUP2 DUP5 SUB ADD DUP2 MSTORE PUSH1 0x88 SWAP1 SWAP3 ADD SWAP1 MSTORE DUP1 MLOAD SWAP2 ADD KECCAK256 SWAP1 JUMP JUMPDEST PUSH2 0x1CB PUSH2 0x34F CALLDATASIZE PUSH1 0x4 PUSH2 0x90D JUMP JUMPDEST PUSH2 0x6AF JUMP JUMPDEST PUSH2 0x1A6 PUSH2 0x362 CALLDATASIZE PUSH1 0x4 PUSH2 0xA2C JUMP JUMPDEST PUSH2 0x6E8 JUMP JUMPDEST PUSH2 0x1CB PUSH2 0x375 CALLDATASIZE PUSH1 0x4 PUSH2 0xA55 JUMP JUMPDEST PUSH2 0x7DF JUMP JUMPDEST PUSH2 0x1A6 PUSH2 0x388 CALLDATASIZE PUSH1 0x4 PUSH2 0x9DF JUMP JUMPDEST PUSH1 0x1 PUSH1 0x1 PUSH1 0xA0 SHL SUB AND PUSH0 SWAP1 DUP2 MSTORE PUSH1 0x1 PUSH1 0x20 MSTORE PUSH1 0x40 SWAP1 KECCAK256 SLOAD SWAP1 JUMP JUMPDEST PUSH2 0x1A6 PUSH1 0x2 SLOAD DUP2 JUMP JUMPDEST PUSH2 0x1A6 PUSH2 0x3B9 CALLDATASIZE PUSH1 0x4 PUSH2 0x9DF JUMP JUMPDEST PUSH2 0x860 JUMP JUMPDEST PUSH0 DUP1 DUP6 DUP6 PUSH1 0x40 MLOAD PUSH1 0x20 ADD PUSH2 0x3E7 SWAP3 SWAP2 SWAP1 SWAP2 DUP3 MSTORE PUSH1 0x20 DUP3 ADD MSTORE PUSH2 0x6571 PUSH1 0xF0 SHL PUSH1 0x40 DUP3 ADD MSTORE PUSH1 0x42 ADD SWAP1 JUMP JUMPDEST PUSH1 0x40 DUP1 MLOAD DUP1 DUP4 SUB PUSH1 0x1F NOT ADD DUP2 MSTORE DUP3 DUP3 MSTORE DUP1 MLOAD PUSH1 0x20 SWAP2 DUP3 ADD KECCAK256 DUP2 DUP5 ADD MSTORE DUP3 DUP3 ADD SWAP7 SWAP1 SWAP7 MSTORE PUSH1 0x60 DUP3 ADD SWAP5 SWAP1 SWAP5 MSTORE PUSH32 0x73656C6563740000000000000000000000000000000000000000000000000000 PUSH1 0x80 DUP3 ADD MSTORE DUP4 MLOAD PUSH1 0x66 DUP2 DUP4 SUB ADD DUP2 MSTORE PUSH1 0x86 SWAP1 SWAP2 ADD SWAP1 SWAP4 MSTORE POP POP DUP1 MLOAD SWAP2 ADD KECCAK256 SWAP3 SWAP2 POP POP JUMP JUMPDEST PUSH1 0x40 MLOAD DUP2 SWAP1 PUSH2 0x47A SWAP1 DUP3 SWAP1 PUSH1 0x20 ADD SWAP1 DUP2 MSTORE PUSH3 0x185919 PUSH1 0xEA SHL PUSH1 0x20 DUP3 ADD MSTORE PUSH1 0x23 ADD SWAP1 JUMP JUMPDEST PUSH1 0x40 DUP1 MLOAD PUSH1 0x1F NOT DUP2 DUP5 SUB ADD DUP2 MSTORE SWAP2 SWAP1 MSTORE DUP1 MLOAD PUSH1 0x20 SWAP1 SWAP2 ADD KECCAK256 PUSH0 SSTORE POP POP JUMP JUMPDEST PUSH0 DUP2 PUSH2 0x4EB JUMPI PUSH1 0x40 MLOAD PUSH3 0x461BCD PUSH1 0xE5 SHL DUP2 MSTORE PUSH1 0x20 PUSH1 0x4 DUP3 ADD MSTORE PUSH1 0xB PUSH1 0x24 DUP3 ADD MSTORE PUSH32 0x456D707479206172726179000000000000000000000000000000000000000000 PUSH1 0x44 DUP3 ADD MSTORE PUSH1 0x64 ADD JUMPDEST PUSH1 0x40 MLOAD DUP1 SWAP2 SUB SWAP1 REVERT JUMPDEST PUSH0 DUP4 DUP4 PUSH1 0x40 MLOAD PUSH1 0x20 ADD PUSH2 0x4FF SWAP3 SWAP2 SWAP1 PUSH2 0xADB JUMP JUMPDEST PUSH1 0x40 DUP1 MLOAD DUP1 DUP4 SUB PUSH1 0x1F NOT ADD DUP2 MSTORE SWAP2 DUP2 MSTORE DUP2 MLOAD PUSH1 0x20 SWAP3 DUP4 ADD KECCAK256 CALLER PUSH0 SWAP1 DUP2 MSTORE PUSH1 0x1 SWAP1 SWAP4 MSTORE SWAP2 KECCAK256 SSTORE POP SWAP1 SWAP3 SWAP2 POP POP JUMP JUMPDEST PUSH1 0x60 PUSH1 0x40 MLOAD DUP1 PUSH2 0x200 ADD PUSH1 0x40 MSTORE DUP1 PUSH2 0x1DE DUP2 MSTORE PUSH1 0x20 ADD PUSH2 0xB93 PUSH2 0x1DE SWAP2 CODECOPY SWAP1 POP SWAP1 JUMP JUMPDEST PUSH0 DUP1 DUP1 JUMPDEST DUP4 DUP2 LT ISZERO PUSH2 0x59E JUMPI DUP5 DUP5 DUP3 DUP2 DUP2 LT PUSH2 0x56D JUMPI PUSH2 0x56D PUSH2 0xB1B JUMP JUMPDEST CALLER PUSH0 SWAP1 DUP2 MSTORE PUSH1 0x1 PUSH1 0x20 SWAP1 DUP2 MSTORE PUSH1 0x40 SWAP1 SWAP2 KECCAK256 SWAP2 MUL SWAP3 SWAP1 SWAP3 ADD CALLDATALOAD SWAP1 SWAP2 SSTORE POP DUP2 PUSH2 0x593 DUP2 PUSH2 0xB2F JUMP JUMPDEST SWAP3 POP POP PUSH1 0x1 ADD PUSH2 0x553 JUMP JUMPDEST POP SWAP4 SWAP3 POP POP POP JUMP JUMPDEST PUSH0 DUP1 DUP4 DUP4 PUSH1 0x40 MLOAD PUSH1 0x20 ADD PUSH2 0x5CF SWAP3 SWAP2 SWAP1 SWAP2 DUP3 MSTORE PUSH1 0x20 DUP3 ADD MSTORE PUSH2 0x6571 PUSH1 0xF0 SHL PUSH1 0x40 DUP3 ADD MSTORE PUSH1 0x42 ADD SWAP1 JUMP JUMPDEST PUSH1 0x40 DUP1 MLOAD DUP1 DUP4 SUB PUSH1 0x1F NOT ADD DUP2 MSTORE SWAP2 SWAP1 MSTORE DUP1 MLOAD PUSH1 0x20 SWAP1 SWAP2 ADD KECCAK256 ISZERO ISZERO SWAP5 SWAP4 POP POP POP POP JUMP JUMPDEST PUSH0 DUP1 DUP4 DUP4 PUSH1 0x40 MLOAD PUSH1 0x20 ADD PUSH2 0x61B SWAP3 SWAP2 SWAP1 SWAP2 DUP3 MSTORE PUSH1 0x20 DUP3 ADD MSTORE PUSH3 0x185919 PUSH1 0xEA SHL PUSH1 0x40 DUP3 ADD MSTORE PUSH1 0x43 ADD SWAP1 JUMP JUMPDEST PUSH1 0x40 DUP1 MLOAD DUP1 DUP4 SUB PUSH1 0x1F NOT ADD DUP2 MSTORE SWAP2 SWAP1 MSTORE DUP1 MLOAD PUSH1 0x20 SWAP1 SWAP2 ADD KECCAK256 PUSH0 DUP2 SWAP1 SSTORE SWAP5 SWAP4 POP POP POP POP JUMP JUMPDEST PUSH0 DUP1 SLOAD PUSH1 0x40 MLOAD PUSH1 0x20 ADD PUSH2 0x67A SWAP2 DUP2 MSTORE PUSH32 0x6F7065726174696F6E0000000000000000000000000000000000000000000000 PUSH1 0x20 DUP3 ADD MSTORE PUSH1 0x29 ADD SWAP1 JUMP JUMPDEST PUSH1 0x40 DUP1 MLOAD PUSH1 0x1F NOT DUP2 DUP5 SUB ADD DUP2 MSTORE SWAP2 DUP2 MSTORE DUP2 MLOAD PUSH1 0x20 SWAP3 DUP4 ADD KECCAK256 PUSH1 0x1 PUSH1 0x1 PUSH1 0xA0 SHL SUB SWAP1 SWAP5 AND PUSH0 SWAP1 DUP2 MSTORE PUSH1 0x1 SWAP1 SWAP3 MSTORE SWAP1 KECCAK256 SWAP2 SWAP1 SWAP2 SSTORE POP JUMP JUMPDEST PUSH1 0x40 MLOAD DUP2 SWAP1 PUSH0 SWAP1 PUSH2 0x6D4 SWAP1 DUP4 SWAP1 PUSH1 0x20 ADD SWAP1 DUP2 MSTORE PUSH3 0x185919 PUSH1 0xEA SHL PUSH1 0x20 DUP3 ADD MSTORE PUSH1 0x23 ADD SWAP1 JUMP JUMPDEST PUSH1 0x40 DUP1 MLOAD PUSH1 0x1F NOT DUP2 DUP5 SUB ADD SWAP1 MSTORE MSTORE POP PUSH0 SSTORE POP JUMP JUMPDEST PUSH0 DUP1 DUP5 DUP5 PUSH1 0x40 MLOAD PUSH1 0x20 ADD PUSH2 0x706 SWAP3 SWAP2 SWAP1 SWAP2 DUP3 MSTORE PUSH1 0x20 DUP3 ADD MSTORE PUSH1 0x40 ADD SWAP1 JUMP JUMPDEST PUSH1 0x40 MLOAD PUSH1 0x20 DUP2 DUP4 SUB SUB DUP2 MSTORE SWAP1 PUSH1 0x40 MSTORE DUP1 MLOAD SWAP1 PUSH1 0x20 ADD KECCAK256 SWAP1 POP PUSH0 DUP2 PUSH1 0x40 MLOAD PUSH1 0x20 ADD PUSH2 0x73E SWAP2 DUP2 MSTORE PUSH3 0x185919 PUSH1 0xEA SHL PUSH1 0x20 DUP3 ADD MSTORE PUSH1 0x23 ADD SWAP1 JUMP JUMPDEST PUSH1 0x40 DUP1 MLOAD PUSH1 0x1F NOT DUP2 DUP5 SUB ADD DUP2 MSTORE DUP3 DUP3 MSTORE DUP1 MLOAD PUSH1 0x20 SWAP2 DUP3 ADD KECCAK256 SWAP1 DUP4 ADD DUP2 SWAP1 MSTORE SWAP1 DUP3 ADD DUP7 SWAP1 MSTORE SWAP2 POP PUSH0 SWAP1 PUSH1 0x60 ADD PUSH1 0x40 MLOAD PUSH1 0x20 DUP2 DUP4 SUB SUB DUP2 MSTORE SWAP1 PUSH1 0x40 MSTORE DUP1 MLOAD SWAP1 PUSH1 0x20 ADD KECCAK256 SWAP1 POP PUSH0 DUP2 PUSH1 0x40 MLOAD PUSH1 0x20 ADD PUSH2 0x7BB SWAP2 DUP2 MSTORE PUSH32 0x66696E616C000000000000000000000000000000000000000000000000000000 PUSH1 0x20 DUP3 ADD MSTORE PUSH1 0x25 ADD SWAP1 JUMP JUMPDEST PUSH1 0x40 DUP1 MLOAD DUP1 DUP4 SUB PUSH1 0x1F NOT ADD DUP2 MSTORE SWAP2 SWAP1 MSTORE DUP1 MLOAD PUSH1 0x20 SWAP1 SWAP2 ADD KECCAK256 SWAP9 SWAP8 POP POP POP POP POP POP POP POP JUMP JUMPDEST DUP1 PUSH2 0x82C JUMPI PUSH1 0x40 MLOAD PUSH3 0x461BCD PUSH1 0xE5 SHL DUP2 MSTORE PUSH1 0x20 PUSH1 0x4 DUP3 ADD MSTORE PUSH1 0x14 PUSH1 0x24 DUP3 ADD MSTORE PUSH32 0x496E7075742070726F6F66207265717569726564000000000000000000000000 PUSH1 0x44 DUP3 ADD MSTORE PUSH1 0x64 ADD PUSH2 0x4E2 JUMP JUMPDEST DUP3 DUP3 DUP3 PUSH1 0x40 MLOAD PUSH1 0x20 ADD PUSH2 0x841 SWAP4 SWAP3 SWAP2 SWAP1 PUSH2 0xB53 JUMP JUMPDEST PUSH1 0x40 DUP1 MLOAD PUSH1 0x1F NOT DUP2 DUP5 SUB ADD DUP2 MSTORE SWAP2 SWAP1 MSTORE DUP1 MLOAD PUSH1 0x20 SWAP1 SWAP2 ADD KECCAK256 PUSH0 SSTORE POP POP POP JUMP JUMPDEST PUSH0 CALLER PUSH1 0x1 PUSH1 0x1 PUSH1 0xA0 SHL SUB DUP4 AND EQ DUP1 PUSH2 0x877 JUMPI POP CALLER ADDRESS EQ JUMPDEST PUSH2 0x8C3 JUMPI PUSH1 0x40 MLOAD PUSH3 0x461BCD PUSH1 0xE5 SHL DUP2 MSTORE PUSH1 0x20 PUSH1 0x4 DUP3 ADD MSTORE PUSH1 0xD PUSH1 0x24 DUP3 ADD MSTORE PUSH32 0x4163636573732064656E69656400000000000000000000000000000000000000 PUSH1 0x44 DUP3 ADD MSTORE PUSH1 0x64 ADD PUSH2 0x4E2 JUMP JUMPDEST POP PUSH1 0x1 PUSH1 0x1 PUSH1 0xA0 SHL SUB AND PUSH0 SWAP1 DUP2 MSTORE PUSH1 0x1 PUSH1 0x20 MSTORE PUSH1 0x40 SWAP1 KECCAK256 SLOAD SWAP1 JUMP JUMPDEST PUSH0 DUP1 PUSH0 DUP1 PUSH1 0x80 DUP6 DUP8 SUB SLT ISZERO PUSH2 0x8F1 JUMPI PUSH0 DUP1 REVERT JUMPDEST POP POP DUP3 CALLDATALOAD SWAP5 PUSH1 0x20 DUP5 ADD CALLDATALOAD SWAP5 POP PUSH1 0x40 DUP5 ADD CALLDATALOAD SWAP4 PUSH1 0x60 ADD CALLDATALOAD SWAP3 POP SWAP1 POP JUMP JUMPDEST PUSH0 PUSH1 0x20 DUP3 DUP5 SUB SLT ISZERO PUSH2 0x91D JUMPI PUSH0 DUP1 REVERT JUMPDEST POP CALLDATALOAD SWAP2 SWAP1 POP JUMP JUMPDEST PUSH0 DUP1 PUSH1 0x20 DUP4 DUP6 SUB SLT ISZERO PUSH2 0x935 JUMPI PUSH0 DUP1 REVERT JUMPDEST DUP3 CALLDATALOAD PUSH8 0xFFFFFFFFFFFFFFFF DUP1 DUP3 GT ISZERO PUSH2 0x94C JUMPI PUSH0 DUP1 REVERT JUMPDEST DUP2 DUP6 ADD SWAP2 POP DUP6 PUSH1 0x1F DUP4 ADD SLT PUSH2 0x95F JUMPI PUSH0 DUP1 REVERT JUMPDEST DUP2 CALLDATALOAD DUP2 DUP2 GT ISZERO PUSH2 0x96D JUMPI PUSH0 DUP1 REVERT JUMPDEST DUP7 PUSH1 0x20 DUP3 PUSH1 0x5 SHL DUP6 ADD ADD GT ISZERO PUSH2 0x981 JUMPI PUSH0 DUP1 REVERT JUMPDEST PUSH1 0x20 SWAP3 SWAP1 SWAP3 ADD SWAP7 SWAP2 SWAP6 POP SWAP1 SWAP4 POP POP POP POP JUMP JUMPDEST PUSH0 PUSH1 0x20 DUP1 DUP4 MSTORE DUP4 MLOAD DUP1 PUSH1 0x20 DUP6 ADD MSTORE PUSH0 JUMPDEST DUP2 DUP2 LT ISZERO PUSH2 0x9BF JUMPI DUP6 DUP2 ADD DUP4 ADD MLOAD DUP6 DUP3 ADD PUSH1 0x40 ADD MSTORE DUP3 ADD PUSH2 0x9A3 JUMP JUMPDEST POP PUSH0 PUSH1 0x40 DUP3 DUP7 ADD ADD MSTORE PUSH1 0x40 PUSH1 0x1F NOT PUSH1 0x1F DUP4 ADD AND DUP6 ADD ADD SWAP3 POP POP POP SWAP3 SWAP2 POP POP JUMP JUMPDEST PUSH0 PUSH1 0x20 DUP3 DUP5 SUB SLT ISZERO PUSH2 0x9EF JUMPI PUSH0 DUP1 REVERT JUMPDEST DUP2 CALLDATALOAD PUSH1 0x1 PUSH1 0x1 PUSH1 0xA0 SHL SUB DUP2 AND DUP2 EQ PUSH2 0xA05 JUMPI PUSH0 DUP1 REVERT JUMPDEST SWAP4 SWAP3 POP POP POP JUMP JUMPDEST PUSH0 DUP1 PUSH1 0x40 DUP4 DUP6 SUB SLT ISZERO PUSH2 0xA1D JUMPI PUSH0 DUP1 REVERT JUMPDEST POP POP DUP1 CALLDATALOAD SWAP3 PUSH1 0x20 SWAP1 SWAP2 ADD CALLDATALOAD SWAP2 POP JUMP JUMPDEST PUSH0 DUP1 PUSH0 PUSH1 0x60 DUP5 DUP7 SUB SLT ISZERO PUSH2 0xA3E JUMPI PUSH0 DUP1 REVERT JUMPDEST POP POP DUP2 CALLDATALOAD SWAP4 PUSH1 0x20 DUP4 ADD CALLDATALOAD SWAP4 POP PUSH1 0x40 SWAP1 SWAP3 ADD CALLDATALOAD SWAP2 SWAP1 POP JUMP JUMPDEST PUSH0 DUP1 PUSH0 PUSH1 0x40 DUP5 DUP7 SUB SLT ISZERO PUSH2 0xA67 JUMPI PUSH0 DUP1 REVERT JUMPDEST DUP4 CALLDATALOAD PUSH4 0xFFFFFFFF DUP2 AND DUP2 EQ PUSH2 0xA7A JUMPI PUSH0 DUP1 REVERT JUMPDEST SWAP3 POP PUSH1 0x20 DUP5 ADD CALLDATALOAD PUSH8 0xFFFFFFFFFFFFFFFF DUP1 DUP3 GT ISZERO PUSH2 0xA96 JUMPI PUSH0 DUP1 REVERT JUMPDEST DUP2 DUP7 ADD SWAP2 POP DUP7 PUSH1 0x1F DUP4 ADD SLT PUSH2 0xAA9 JUMPI PUSH0 DUP1 REVERT JUMPDEST DUP2 CALLDATALOAD DUP2 DUP2 GT ISZERO PUSH2 0xAB7 JUMPI PUSH0 DUP1 REVERT JUMPDEST DUP8 PUSH1 0x20 DUP3 DUP6 ADD ADD GT ISZERO PUSH2 0xAC8 JUMPI PUSH0 DUP1 REVERT JUMPDEST PUSH1 0x20 DUP4 ADD SWAP5 POP DUP1 SWAP4 POP POP POP POP SWAP3 POP SWAP3 POP SWAP3 JUMP JUMPDEST PUSH0 PUSH32 0x7FFFFFFFFFFFFFFFFFFFFFFFFFFFFFFFFFFFFFFFFFFFFFFFFFFFFFFFFFFFFFF DUP4 GT ISZERO PUSH2 0xB08 JUMPI PUSH0 DUP1 REVERT JUMPDEST DUP3 PUSH1 0x5 SHL DUP1 DUP6 DUP5 CALLDATACOPY SWAP2 SWAP1 SWAP2 ADD SWAP4 SWAP3 POP POP POP JUMP JUMPDEST PUSH4 0x4E487B71 PUSH1 0xE0 SHL PUSH0 MSTORE PUSH1 0x32 PUSH1 0x4 MSTORE PUSH1 0x24 PUSH0 REVERT JUMPDEST PUSH0 PUSH1 0x1 DUP3 ADD PUSH2 0xB4C JUMPI PUSH4 0x4E487B71 PUSH1 0xE0 SHL PUSH0 MSTORE PUSH1 0x11 PUSH1 0x4 MSTORE PUSH1 0x24 PUSH0 REVERT JUMPDEST POP PUSH1 0x1 ADD SWAP1 JUMP JUMPDEST PUSH1 0xE0 DUP5 SWAP1 SHL PUSH32 0xFFFFFFFF00000000000000000000000000000000000000000000000000000000 AND DUP2 MSTORE DUP2 DUP4 PUSH1 0x4 DUP4 ADD CALLDATACOPY PUSH0 SWAP2 ADD PUSH1 0x4 ADD SWAP1 DUP2 MSTORE SWAP3 SWAP2 POP POP JUMP INVALID CHAINID BASEFEE GASLIMIT KECCAK256 TIMESTAMP PUSH6 0x737420507261 PUSH4 0x74696365 PUSH20 0x3A0A312E204E6576657220757365207669657720 PUSH7 0x756E6374696F6E PUSH20 0x20666F7220464845206F7065726174696F6E730A ORIGIN 0x2E KECCAK256 COINBASE PUSH13 0x776179732063616C6C20464845 0x2E PUSH2 0x6C6C PUSH16 0x77546869732829206265666F72652075 PUSH20 0x696E6720656E637279707465642076616C756573 EXP CALLER 0x2E KECCAK256 SELFBALANCE PUSH19 0x616E74207573657273207065726D697373696F PUSH15 0x2077697468204648452E616C6C6F77 0x28 0x29 KECCAK256 PUSH2 0x6674 PUSH6 0x72206F706572 PUSH2 0x7469 PUSH16 0x6E730A342E20496D706C656D656E7420 PUSH2 0x6363 PUSH6 0x737320636F6E PUSH21 0x726F6C206576656E20666F7220656E637279707465 PUSH5 0x2064617461 EXP CALLDATALOAD 0x2E KECCAK256 0x4D PUSH10 0x6E696D697A65206E756D PUSH3 0x657220 PUSH16 0x6620464845206F7065726174696F6E73 KECCAK256 PUSH7 0x6F722067617320 PUSH6 0x666669636965 PUSH15 0x63790A362E20547261636B2068616E PUSH5 0x6C65207570 PUSH5 0x6174657320 PUSH2 0x6674 PUSH6 0x722065616368 KECCAK256 PUSH16 0x7065726174696F6E0A372E204B656570 KECCAK256 PUSH23 0x616C75657320656E63727970746564206F6E2D63686169 PUSH15 0xA382E20416C776179732076616C69 PUSH5 0x6174652069 PUSH15 0x7075742070726F6F66730A392E2055 PUSH20 0x65204648452E73656C656374282920666F722063 PUSH16 0x6E646974696F6E616C206C6F6769630A BALANCE ADDRESS 0x2E KECCAK256 0x4F PUSH17 0x74696D697A65206261746368206F706572 PUSH2 0x7469 PUSH16 0x6E73A26469706673582212202E043ED9 SWAP2 SUB PUSH31 0xF9B840B807EF921F1B995433CB245EBF4477A745F8C63F5DDD64736F6C6343 STOP ADDMOD XOR STOP CALLER "},"methodIdentifiers":{"antiPattern10_InefficientBatch(bytes32[])":"4e587879","antiPattern1_ViewFunctionWithEncryption(bytes32,bytes32)":"61da43c2","antiPattern2_MissingAllowThis(bytes32)":"7e3333c6","antiPattern3_NoUserPermission(address)":"f349da70","antiPattern4_NoAccessControl(address)":"e2eddebc","antiPattern5_InefficientOperations(bytes32,bytes32,bytes32)":"be303c60","antiPattern6_IncorrectHandleLifecycle(bytes32)":"b5cec593","antiPattern7_StoringDecryptedValue(uint256)":"8501bca5","antiPattern8_NoInputProofValidation(bytes32)":"ff68a8a9","antiPattern9_DirectBooleanComparison(bytes32,bytes32)":"633ccf9d","bestPracticesSummary()":"465987b6","correctPattern10_EfficientBatch(bytes32[])":"30a3d822","correctPattern1_StatefulFHEOperation(bytes32,bytes32)":"6ecf7286","correctPattern2_WithAllowThis(bytes32)":"11ec23f3","correctPattern3_WithUserPermission(address)":"7b1e0fb1","correctPattern4_WithAccessControl(address)":"f881df4f","correctPattern5_EfficientOperations(bytes32,bytes32,bytes32)":"9fb39833","correctPattern6_CorrectHandleLifecycle(bytes32)":"2f6caec4","correctPattern7_KeepEncrypted(bytes32)":"13696744","correctPattern8_WithInputProofValidation(uint32,bytes)":"ca9c25a5","correctPattern9_UseSelect(bytes32,bytes32,bytes32,bytes32)":"03453a07","decryptedValue()":"f810313e","encryptedValue()":"86e560be","userValues(address)":"4acfd9b8"}}}}}