{"contracts/PrivacyGuess.sol":{"PrivacyGuess":{"abi":[{"inputs":[],"stateMutability":"nonpayable","type":"constructor"},{"anonymous":false,"inputs":[{"indexed":true,"internalType":"uint256","name":"eventId","type":"uint256"},{"indexed":false,"internalType":"string","name":"title","type":"string"},{"indexed":false,"internalType":"uint256","name":"endTime","type":"uint256"}],"name":"EventCreated","type":"event"},{"anonymous":false,"inputs":[{"indexed":true,"internalType":"uint256","name":"eventId","type":"uint256"},{"indexed":false,"internalType":"bool","name":"outcome","type":"bool"}],"name":"EventFinalized","type":"event"},{"anonymous":false,"inputs":[{"indexed":true,"internalType":"uint256","name":"eventId","type":"uint256"},{"indexed":true,"internalType":"address","name":"predictor","type":"address"}],"name":"PredictionMade","type":"event"},{"anonymous":false,"inputs":[{"indexed":true,"internalType":"uint256","name":"eventId","type":"uint256"},{"indexed":true,"internalType":"address","name":"predictor","type":"address"},{"indexed":false,"internalType":"bool","name":"guess","type":"bool"},{"indexed":false,"internalType":"bool","name":"correct","type":"bool"}],"name":"ResultRevealed","type":"event"},{"inputs":[{"internalType":"string","name":"_title","type":"string"},{"internalType":"string","name":"_description","type":"string"},{"internalType":"uint256","name":"_duration","type":"uint256"}],"name":"createEvent","outputs":[{"internalType":"uint256","name":"","type":"uint256"}],"stateMutability":"nonpayable","type":"function"},{"inputs":[{"internalType":"uint256","name":"","type":"uint256"},{"internalType":"uint256","name":"","type":"uint256"}],"name":"eventPredictors","outputs":[{"internalType":"address","name":"","type":"address"}],"stateMutability":"view","type":"function"},{"inputs":[{"internalType":"uint256","name":"","type":"uint256"}],"name":"events","outputs":[{"internalType":"string","name":"title","type":"string"},{"internalType":"string","name":"description","type":"string"},{"internalType":"uint256","name":"endTime","type":"uint256"},{"internalType":"bool","name":"isFinalized","type":"bool"},{"internalType":"bool","name":"actualOutcome","type":"bool"},{"internalType":"uint256","name":"totalPredictions","type":"uint256"}],"stateMutability":"view","type":"function"},{"inputs":[{"internalType":"uint256","name":"_eventId","type":"uint256"},{"internalType":"bool","name":"_actualOutcome","type":"bool"}],"name":"finalizeEvent","outputs":[],"stateMutability":"nonpayable","type":"function"},{"inputs":[{"internalType":"uint256","name":"_eventId","type":"uint256"}],"name":"getEvent","outputs":[{"components":[{"internalType":"string","name":"title","type":"string"},{"internalType":"string","name":"description","type":"string"},{"internalType":"uint256","name":"endTime","type":"uint256"},{"internalType":"bool","name":"isFinalized","type":"bool"},{"internalType":"bool","name":"actualOutcome","type":"bool"},{"internalType":"uint256","name":"totalPredictions","type":"uint256"}],"internalType":"struct PrivacyGuess.Event","name":"","type":"tuple"}],"stateMutability":"view","type":"function"},{"inputs":[{"internalType":"uint256","name":"_eventId","type":"uint256"}],"name":"getEventPredictors","outputs":[{"internalType":"address[]","name":"","type":"address[]"}],"stateMutability":"view","type":"function"},{"inputs":[],"name":"getTotalEvents","outputs":[{"internalType":"uint256","name":"","type":"uint256"}],"stateMutability":"view","type":"function"},{"inputs":[{"internalType":"uint256","name":"_eventId","type":"uint256"},{"internalType":"address","name":"_user","type":"address"}],"name":"getUserPrediction","outputs":[{"internalType":"bool","name":"hasPredictor","type":"bool"},{"internalType":"uint256","name":"timestamp","type":"uint256"},{"internalType":"bool","name":"isRevealed","type":"bool"},{"internalType":"bool","name":"actualResult","type":"bool"}],"stateMutability":"view","type":"function"},{"inputs":[{"internalType":"uint256","name":"_eventId","type":"uint256"},{"internalType":"bool","name":"_vote","type":"bool"}],"name":"makePrediction","outputs":[],"stateMutability":"nonpayable","type":"function"},{"inputs":[],"name":"nextEventId","outputs":[{"internalType":"uint256","name":"","type":"uint256"}],"stateMutability":"view","type":"function"},{"inputs":[],"name":"owner","outputs":[{"internalType":"address","name":"","type":"address"}],"stateMutability":"view","type":"function"},{"inputs":[{"internalType":"uint256","name":"","type":"uint256"},{"internalType":"address","name":"","type":"address"}],"name":"predictions","outputs":[{"internalType":"address","name":"predictor","type":"address"},{"internalType":"bytes32","name":"encryptedGuess","type":"bytes32"},{"internalType":"uint256","name":"timestamp","type":"uint256"},{"internalType":"bool","name":"isRevealed","type":"bool"},{"internalType":"bool","name":"actualResult","type":"bool"}],"stateMutability":"view","type":"function"},{"inputs":[{"internalType":"uint256","name":"_eventId","type":"uint256"},{"internalType":"bool","name":"_revealedGuess","type":"bool"}],"name":"revealPrediction","outputs":[],"stateMutability":"nonpayable","type":"function"}],"evm":{"bytecode":{"linkReferences":{},"object":"608060405234801561000f575f80fd5b50600480546001600160a01b031916331790555f600355611535806100335f395ff3fe608060405234801561000f575f80fd5b50600436106100da575f3560e01c80636d1884e01161008857806392b108d01161006357806392b108d0146102055780639f9d903a14610290578063b0d6f59c14610299578063c2cf0e93146102ac575f80fd5b80636d1884e0146101a75780637ceb38f8146101c75780638da5cb5b146101f2575f80fd5b80635555fe17116100b85780635555fe171461014157806361606940146101625780636ac28cb31461016a575f80fd5b80630b791430146100de57806337a2a8181461010c5780633b51ac3014610121575b5f80fd5b6100f16100ec366004611075565b6102bf565b604051610103969594939291906110cf565b60405180910390f35b61011f61011a366004611119565b610408565b005b61013461012f366004611075565b610702565b604051610103919061114b565b61015461014f366004611234565b6107b6565b604051908152602001610103565b600354610154565b61017d61017836600461129c565b6108c8565b60408051941515855260208501939093529015159183019190915215156060820152608001610103565b6101ba6101b5366004611075565b61098f565b60405161010391906112ca565b6101da6101d536600461133b565b610b83565b6040516001600160a01b039091168152602001610103565b6004546101da906001600160a01b031681565b61025a61021336600461129c565b600160208181525f9384526040808520909152918352912080549181015460028201546003909201546001600160a01b039093169290919060ff8082169161010090041685565b604080516001600160a01b039096168652602086019490945292840191909152151560608301521515608082015260a001610103565b61015460035481565b61011f6102a7366004611119565b610bb7565b61011f6102ba366004611119565b610e9e565b5f602081905290815260409020805481906102d99061135b565b80601f01602080910402602001604051908101604052809291908181526020018280546103059061135b565b80156103505780601f1061032757610100808354040283529160200191610350565b820191905f5260205f20905b81548152906001019060200180831161033357829003601f168201915b5050505050908060010180546103659061135b565b80601f01602080910402602001604051908101604052809291908181526020018280546103919061135b565b80156103dc5780601f106103b3576101008083540402835291602001916103dc565b820191905f5260205f20905b8154815290600101906020018083116103bf57829003601f168201915b505050600284015460038501546004909501549394909360ff8083169450610100909204909116915086565b8160035481106104565760405162461bcd60e51b8152602060048201526014602482015273115d995b9d08191bd95cc81b9bdd08195e1a5cdd60621b60448201526064015b60405180910390fd5b5f8381526020819052604090206003015460ff166104b65760405162461bcd60e51b815260206004820152601760248201527f4576656e74206e6f742066696e616c697a656420796574000000000000000000604482015260640161044d565b5f8381526001602090815260408083203384529091529020546001600160a01b03166105245760405162461bcd60e51b815260206004820152601360248201527f4e6f2070726564696374696f6e20666f756e6400000000000000000000000000604482015260640161044d565b5f83815260016020908152604080832033845290915290206003015460ff16156105905760405162461bcd60e51b815260206004820152601060248201527f416c72656164792072657665616c656400000000000000000000000000000000604482015260640161044d565b5f83815260016020818152604080842033808652818452828620600281015484518a151560f81b818801526bffffffffffffffffffffffff19606085901b166021820152603580820192909252855180820390920182526055019094528351938501939093209552909152015481146106715760405162461bcd60e51b815260206004820152602f60248201527f496e76616c69642072657665616c202d20677565737320646f65736e2774206d60448201527f6174636820636f6d6d69746d656e740000000000000000000000000000000000606482015260840161044d565b5f8481526020818152604080832060039081015460018085528386203380885290865295849020909201805461ffff19166101009283900460ff1615158a1515908114938402919091179093179055825191825292810183905291929187917f514da75fe6c6998e1b24883de8380db0ac75ab05b901216b851316b251c2c2a6910160405180910390a35050505050565b606081600354811061074d5760405162461bcd60e51b8152602060048201526014602482015273115d995b9d08191bd95cc81b9bdd08195e1a5cdd60621b604482015260640161044d565b5f83815260026020908152604091829020805483518184028101840190945280845290918301828280156107a857602002820191905f5260205f20905b81546001600160a01b0316815260019091019060200180831161078a575b505050505091505b50919050565b600380545f91829190826107c9836113a1565b9190505590506040518060c0016040528086815260200185815260200184426107f291906113b9565b81525f6020808301829052604080840183905260609093018290528482528190522081518190610822908261141e565b5060208201516001820190610837908261141e565b50604082015160028201556060820151600382018054608085015115156101000261ff00199315159390931661ffff199091161791909117905560a090910151600490910155807fee37bb5143a14810f72e86fce895be08e16090409d2e18f79b308995e39b73d4866108aa86426113b9565b6040516108b89291906114de565b60405180910390a2949350505050565b5f805f808560035481106109155760405162461bcd60e51b8152602060048201526014602482015273115d995b9d08191bd95cc81b9bdd08195e1a5cdd60621b604482015260640161044d565b5050505f93845250506001602081815260408085206001600160a01b039485168652825293849020845160a0810186528154909416808552928101549184019190915260028101549383018490526003015460ff808216151560608501819052610100909204161515608090930183905290151593909190565b6109c86040518060c0016040528060608152602001606081526020015f81526020015f151581526020015f151581526020015f81525090565b816003548110610a115760405162461bcd60e51b8152602060048201526014602482015273115d995b9d08191bd95cc81b9bdd08195e1a5cdd60621b604482015260640161044d565b5f8381526020819052604090819020815160c08101909252805482908290610a389061135b565b80601f0160208091040260200160405190810160405280929190818152602001828054610a649061135b565b8015610aaf5780601f10610a8657610100808354040283529160200191610aaf565b820191905f5260205f20905b815481529060010190602001808311610a9257829003601f168201915b50505050508152602001600182018054610ac89061135b565b80601f0160208091040260200160405190810160405280929190818152602001828054610af49061135b565b8015610b3f5780601f10610b1657610100808354040283529160200191610b3f565b820191905f5260205f20905b815481529060010190602001808311610b2257829003601f168201915b505050918352505060028201546020820152600382015460ff8082161515604084015261010090910416151560608201526004909101546080909101529392505050565b6002602052815f5260405f208181548110610b9c575f80fd5b5f918252602090912001546001600160a01b03169150829050565b816003548110610c005760405162461bcd60e51b8152602060048201526014602482015273115d995b9d08191bd95cc81b9bdd08195e1a5cdd60621b604482015260640161044d565b5f8381526020819052604090206002015483904210610c615760405162461bcd60e51b815260206004820152600f60248201527f4576656e742068617320656e6465640000000000000000000000000000000000604482015260640161044d565b5f8181526020819052604090206003015460ff1615610cc25760405162461bcd60e51b815260206004820152601260248201527f4576656e742069732066696e616c697a65640000000000000000000000000000604482015260640161044d565b5f8481526001602090815260408083203384529091529020546001600160a01b031615610d315760405162461bcd60e51b815260206004820152601760248201527f416c7265616479206d6164652070726564696374696f6e000000000000000000604482015260640161044d565b60405183151560f81b60208201526bffffffffffffffffffffffff193360601b1660218201524260358201525f9060550160408051601f19818403018152828252805160209182012060a08401835233808552848301828152428686019081525f60608801818152608089018281528e8352600180895289842087855289528984209a518b546001600160a01b03919091167fffffffffffffffffffffffff0000000000000000000000000000000000000000918216178c5595518b82015593516002808c019190915591516003909a018054915115156101000261ff00199b15159b909b1661ffff1990921691909117999099179098558c815296855285872080549182018155875284872001805490911690911790558884529083905290822060040180549193509091610e66836113a1565b9091555050604051339086907f03433e8596140d945036ac152f7eb3bdf196b11752669fd88a226ff1cd4f2b0f905f90a35050505050565b6004546001600160a01b03163314610f025760405162461bcd60e51b815260206004820152602160248201527f4f6e6c79206f776e65722063616e2063616c6c20746869732066756e6374696f6044820152603760f91b606482015260840161044d565b816003548110610f4b5760405162461bcd60e51b8152602060048201526014602482015273115d995b9d08191bd95cc81b9bdd08195e1a5cdd60621b604482015260640161044d565b5f83815260208190526040902060020154421015610fab5760405162461bcd60e51b815260206004820152601760248201527f4576656e7420686173206e6f7420656e64656420796574000000000000000000604482015260640161044d565b5f8381526020819052604090206003015460ff161561100c5760405162461bcd60e51b815260206004820152601760248201527f4576656e7420616c72656164792066696e616c697a6564000000000000000000604482015260640161044d565b5f838152602081905260409081902060030180548415156101000261ffff199091161760011790555183907ff8b638dbe29d9b9ae1b73a9d7e8ed4729965e0ef1a903eaea00e87a834cb73ee9061106890851515815260200190565b60405180910390a2505050565b5f60208284031215611085575f80fd5b5035919050565b5f81518084525f5b818110156110b057602081850181015186830182015201611094565b505f602082860101526020601f19601f83011685010191505092915050565b60c081525f6110e160c083018961108c565b82810360208401526110f3818961108c565b604084019790975250509215156060840152901515608083015260a09091015292915050565b5f806040838503121561112a575f80fd5b8235915060208301358015158114611140575f80fd5b809150509250929050565b602080825282518282018190525f9190848201906040850190845b8181101561118b5783516001600160a01b031683529284019291840191600101611166565b50909695505050505050565b634e487b7160e01b5f52604160045260245ffd5b5f82601f8301126111ba575f80fd5b813567ffffffffffffffff808211156111d5576111d5611197565b604051601f8301601f19908116603f011681019082821181831017156111fd576111fd611197565b81604052838152866020858801011115611215575f80fd5b836020870160208301375f602085830101528094505050505092915050565b5f805f60608486031215611246575f80fd5b833567ffffffffffffffff8082111561125d575f80fd5b611269878388016111ab565b9450602086013591508082111561127e575f80fd5b5061128b868287016111ab565b925050604084013590509250925092565b5f80604083850312156112ad575f80fd5b8235915060208301356001600160a01b0381168114611140575f80fd5b602081525f825160c060208401526112e560e084018261108c565b90506020840151601f19848303016040850152611302828261108c565b915050604084015160608401526060840151151560808401526080840151151560a084015260a084015160c08401528091505092915050565b5f806040838503121561134c575f80fd5b50508035926020909101359150565b600181811c9082168061136f57607f821691505b6020821081036107b057634e487b7160e01b5f52602260045260245ffd5b634e487b7160e01b5f52601160045260245ffd5b5f600182016113b2576113b261138d565b5060010190565b808201808211156113cc576113cc61138d565b92915050565b601f82111561141957805f5260205f20601f840160051c810160208510156113f75750805b601f840160051c820191505b81811015611416575f8155600101611403565b50505b505050565b815167ffffffffffffffff81111561143857611438611197565b61144c81611446845461135b565b846113d2565b602080601f83116001811461147f575f84156114685750858301515b5f19600386901b1c1916600185901b1785556114d6565b5f85815260208120601f198616915b828110156114ad5788860151825594840194600190910190840161148e565b50858210156114ca57878501515f19600388901b60f8161c191681555b505060018460011b0185555b505050505050565b604081525f6114f0604083018561108c565b9050826020830152939250505056fea2646970667358221220e611bbc2fbc63b7517d2336ab2cf9676dfd1676d45429e3b463b2c7e223d27bb64736f6c63430008180033","opcodes":"PUSH1 0x80 PUSH1 0x40 MSTORE CALLVALUE DUP1 ISZERO PUSH2 0xF JUMPI PUSH0 DUP1 REVERT JUMPDEST POP PUSH1 0x4 DUP1 SLOAD PUSH1 0x1 PUSH1 0x1 PUSH1 0xA0 SHL SUB NOT AND CALLER OR SWAP1 SSTORE PUSH0 PUSH1 0x3 SSTORE PUSH2 0x1535 DUP1 PUSH2 0x33 PUSH0 CODECOPY PUSH0 RETURN INVALID PUSH1 0x80 PUSH1 0x40 MSTORE CALLVALUE DUP1 ISZERO PUSH2 0xF JUMPI PUSH0 DUP1 REVERT JUMPDEST POP PUSH1 0x4 CALLDATASIZE LT PUSH2 0xDA JUMPI PUSH0 CALLDATALOAD PUSH1 0xE0 SHR DUP1 PUSH4 0x6D1884E0 GT PUSH2 0x88 JUMPI DUP1 PUSH4 0x92B108D0 GT PUSH2 0x63 JUMPI DUP1 PUSH4 0x92B108D0 EQ PUSH2 0x205 JUMPI DUP1 PUSH4 0x9F9D903A EQ PUSH2 0x290 JUMPI DUP1 PUSH4 0xB0D6F59C EQ PUSH2 0x299 JUMPI DUP1 PUSH4 0xC2CF0E93 EQ PUSH2 0x2AC JUMPI PUSH0 DUP1 REVERT JUMPDEST DUP1 PUSH4 0x6D1884E0 EQ PUSH2 0x1A7 JUMPI DUP1 PUSH4 0x7CEB38F8 EQ PUSH2 0x1C7 JUMPI DUP1 PUSH4 0x8DA5CB5B EQ PUSH2 0x1F2 JUMPI PUSH0 DUP1 REVERT JUMPDEST DUP1 PUSH4 0x5555FE17 GT PUSH2 0xB8 JUMPI DUP1 PUSH4 0x5555FE17 EQ PUSH2 0x141 JUMPI DUP1 PUSH4 0x61606940 EQ PUSH2 0x162 JUMPI DUP1 PUSH4 0x6AC28CB3 EQ PUSH2 0x16A JUMPI PUSH0 DUP1 REVERT JUMPDEST DUP1 PUSH4 0xB791430 EQ PUSH2 0xDE JUMPI DUP1 PUSH4 0x37A2A818 EQ PUSH2 0x10C JUMPI DUP1 PUSH4 0x3B51AC30 EQ PUSH2 0x121 JUMPI JUMPDEST PUSH0 DUP1 REVERT JUMPDEST PUSH2 0xF1 PUSH2 0xEC CALLDATASIZE PUSH1 0x4 PUSH2 0x1075 JUMP JUMPDEST PUSH2 0x2BF JUMP JUMPDEST PUSH1 0x40 MLOAD PUSH2 0x103 SWAP7 SWAP6 SWAP5 SWAP4 SWAP3 SWAP2 SWAP1 PUSH2 0x10CF JUMP JUMPDEST PUSH1 0x40 MLOAD DUP1 SWAP2 SUB SWAP1 RETURN JUMPDEST PUSH2 0x11F PUSH2 0x11A CALLDATASIZE PUSH1 0x4 PUSH2 0x1119 JUMP JUMPDEST PUSH2 0x408 JUMP JUMPDEST STOP JUMPDEST PUSH2 0x134 PUSH2 0x12F CALLDATASIZE PUSH1 0x4 PUSH2 0x1075 JUMP JUMPDEST PUSH2 0x702 JUMP JUMPDEST PUSH1 0x40 MLOAD PUSH2 0x103 SWAP2 SWAP1 PUSH2 0x114B JUMP JUMPDEST PUSH2 0x154 PUSH2 0x14F CALLDATASIZE PUSH1 0x4 PUSH2 0x1234 JUMP JUMPDEST PUSH2 0x7B6 JUMP JUMPDEST PUSH1 0x40 MLOAD SWAP1 DUP2 MSTORE PUSH1 0x20 ADD PUSH2 0x103 JUMP JUMPDEST PUSH1 0x3 SLOAD PUSH2 0x154 JUMP JUMPDEST PUSH2 0x17D PUSH2 0x178 CALLDATASIZE PUSH1 0x4 PUSH2 0x129C JUMP JUMPDEST PUSH2 0x8C8 JUMP JUMPDEST PUSH1 0x40 DUP1 MLOAD SWAP5 ISZERO ISZERO DUP6 MSTORE PUSH1 0x20 DUP6 ADD SWAP4 SWAP1 SWAP4 MSTORE SWAP1 ISZERO ISZERO SWAP2 DUP4 ADD SWAP2 SWAP1 SWAP2 MSTORE ISZERO ISZERO PUSH1 0x60 DUP3 ADD MSTORE PUSH1 0x80 ADD PUSH2 0x103 JUMP JUMPDEST PUSH2 0x1BA PUSH2 0x1B5 CALLDATASIZE PUSH1 0x4 PUSH2 0x1075 JUMP JUMPDEST PUSH2 0x98F JUMP JUMPDEST PUSH1 0x40 MLOAD PUSH2 0x103 SWAP2 SWAP1 PUSH2 0x12CA JUMP JUMPDEST PUSH2 0x1DA PUSH2 0x1D5 CALLDATASIZE PUSH1 0x4 PUSH2 0x133B JUMP JUMPDEST PUSH2 0xB83 JUMP JUMPDEST PUSH1 0x40 MLOAD PUSH1 0x1 PUSH1 0x1 PUSH1 0xA0 SHL SUB SWAP1 SWAP2 AND DUP2 MSTORE PUSH1 0x20 ADD PUSH2 0x103 JUMP JUMPDEST PUSH1 0x4 SLOAD PUSH2 0x1DA SWAP1 PUSH1 0x1 PUSH1 0x1 PUSH1 0xA0 SHL SUB AND DUP2 JUMP JUMPDEST PUSH2 0x25A PUSH2 0x213 CALLDATASIZE PUSH1 0x4 PUSH2 0x129C JUMP JUMPDEST PUSH1 0x1 PUSH1 0x20 DUP2 DUP2 MSTORE PUSH0 SWAP4 DUP5 MSTORE PUSH1 0x40 DUP1 DUP6 KECCAK256 SWAP1 SWAP2 MSTORE SWAP2 DUP4 MSTORE SWAP2 KECCAK256 DUP1 SLOAD SWAP2 DUP2 ADD SLOAD PUSH1 0x2 DUP3 ADD SLOAD PUSH1 0x3 SWAP1 SWAP3 ADD SLOAD PUSH1 0x1 PUSH1 0x1 PUSH1 0xA0 SHL SUB SWAP1 SWAP4 AND SWAP3 SWAP1 SWAP2 SWAP1 PUSH1 0xFF DUP1 DUP3 AND SWAP2 PUSH2 0x100 SWAP1 DIV AND DUP6 JUMP JUMPDEST PUSH1 0x40 DUP1 MLOAD PUSH1 0x1 PUSH1 0x1 PUSH1 0xA0 SHL SUB SWAP1 SWAP7 AND DUP7 MSTORE PUSH1 0x20 DUP7 ADD SWAP5 SWAP1 SWAP5 MSTORE SWAP3 DUP5 ADD SWAP2 SWAP1 SWAP2 MSTORE ISZERO ISZERO PUSH1 0x60 DUP4 ADD MSTORE ISZERO ISZERO PUSH1 0x80 DUP3 ADD MSTORE PUSH1 0xA0 ADD PUSH2 0x103 JUMP JUMPDEST PUSH2 0x154 PUSH1 0x3 SLOAD DUP2 JUMP JUMPDEST PUSH2 0x11F PUSH2 0x2A7 CALLDATASIZE PUSH1 0x4 PUSH2 0x1119 JUMP JUMPDEST PUSH2 0xBB7 JUMP JUMPDEST PUSH2 0x11F PUSH2 0x2BA CALLDATASIZE PUSH1 0x4 PUSH2 0x1119 JUMP JUMPDEST PUSH2 0xE9E JUMP JUMPDEST PUSH0 PUSH1 0x20 DUP2 SWAP1 MSTORE SWAP1 DUP2 MSTORE PUSH1 0x40 SWAP1 KECCAK256 DUP1 SLOAD DUP2 SWAP1 PUSH2 0x2D9 SWAP1 PUSH2 0x135B JUMP JUMPDEST DUP1 PUSH1 0x1F ADD PUSH1 0x20 DUP1 SWAP2 DIV MUL PUSH1 0x20 ADD PUSH1 0x40 MLOAD SWAP1 DUP2 ADD PUSH1 0x40 MSTORE DUP1 SWAP3 SWAP2 SWAP1 DUP2 DUP2 MSTORE PUSH1 0x20 ADD DUP3 DUP1 SLOAD PUSH2 0x305 SWAP1 PUSH2 0x135B JUMP JUMPDEST DUP1 ISZERO PUSH2 0x350 JUMPI DUP1 PUSH1 0x1F LT PUSH2 0x327 JUMPI PUSH2 0x100 DUP1 DUP4 SLOAD DIV MUL DUP4 MSTORE SWAP2 PUSH1 0x20 ADD SWAP2 PUSH2 0x350 JUMP JUMPDEST DUP3 ADD SWAP2 SWAP1 PUSH0 MSTORE PUSH1 0x20 PUSH0 KECCAK256 SWAP1 JUMPDEST DUP2 SLOAD DUP2 MSTORE SWAP1 PUSH1 0x1 ADD SWAP1 PUSH1 0x20 ADD DUP1 DUP4 GT PUSH2 0x333 JUMPI DUP3 SWAP1 SUB PUSH1 0x1F AND DUP3 ADD SWAP2 JUMPDEST POP POP POP POP POP SWAP1 DUP1 PUSH1 0x1 ADD DUP1 SLOAD PUSH2 0x365 SWAP1 PUSH2 0x135B JUMP JUMPDEST DUP1 PUSH1 0x1F ADD PUSH1 0x20 DUP1 SWAP2 DIV MUL PUSH1 0x20 ADD PUSH1 0x40 MLOAD SWAP1 DUP2 ADD PUSH1 0x40 MSTORE DUP1 SWAP3 SWAP2 SWAP1 DUP2 DUP2 MSTORE PUSH1 0x20 ADD DUP3 DUP1 SLOAD PUSH2 0x391 SWAP1 PUSH2 0x135B JUMP JUMPDEST DUP1 ISZERO PUSH2 0x3DC JUMPI DUP1 PUSH1 0x1F LT PUSH2 0x3B3 JUMPI PUSH2 0x100 DUP1 DUP4 SLOAD DIV MUL DUP4 MSTORE SWAP2 PUSH1 0x20 ADD SWAP2 PUSH2 0x3DC JUMP JUMPDEST DUP3 ADD SWAP2 SWAP1 PUSH0 MSTORE PUSH1 0x20 PUSH0 KECCAK256 SWAP1 JUMPDEST DUP2 SLOAD DUP2 MSTORE SWAP1 PUSH1 0x1 ADD SWAP1 PUSH1 0x20 ADD DUP1 DUP4 GT PUSH2 0x3BF JUMPI DUP3 SWAP1 SUB PUSH1 0x1F AND DUP3 ADD SWAP2 JUMPDEST POP POP POP PUSH1 0x2 DUP5 ADD SLOAD PUSH1 0x3 DUP6 ADD SLOAD PUSH1 0x4 SWAP1 SWAP6 ADD SLOAD SWAP4 SWAP5 SWAP1 SWAP4 PUSH1 0xFF DUP1 DUP4 AND SWAP5 POP PUSH2 0x100 SWAP1 SWAP3 DIV SWAP1 SWAP2 AND SWAP2 POP DUP7 JUMP JUMPDEST DUP2 PUSH1 0x3 SLOAD DUP2 LT PUSH2 0x456 JUMPI PUSH1 0x40 MLOAD PUSH3 0x461BCD PUSH1 0xE5 SHL DUP2 MSTORE PUSH1 0x20 PUSH1 0x4 DUP3 ADD MSTORE PUSH1 0x14 PUSH1 0x24 DUP3 ADD MSTORE PUSH20 0x115D995B9D08191BD95CC81B9BDD08195E1A5CDD PUSH1 0x62 SHL PUSH1 0x44 DUP3 ADD MSTORE PUSH1 0x64 ADD JUMPDEST PUSH1 0x40 MLOAD DUP1 SWAP2 SUB SWAP1 REVERT JUMPDEST PUSH0 DUP4 DUP2 MSTORE PUSH1 0x20 DUP2 SWAP1 MSTORE PUSH1 0x40 SWAP1 KECCAK256 PUSH1 0x3 ADD SLOAD PUSH1 0xFF AND PUSH2 0x4B6 JUMPI PUSH1 0x40 MLOAD PUSH3 0x461BCD PUSH1 0xE5 SHL DUP2 MSTORE PUSH1 0x20 PUSH1 0x4 DUP3 ADD MSTORE PUSH1 0x17 PUSH1 0x24 DUP3 ADD MSTORE PUSH32 0x4576656E74206E6F742066696E616C697A656420796574000000000000000000 PUSH1 0x44 DUP3 ADD MSTORE PUSH1 0x64 ADD PUSH2 0x44D JUMP JUMPDEST PUSH0 DUP4 DUP2 MSTORE PUSH1 0x1 PUSH1 0x20 SWAP1 DUP2 MSTORE PUSH1 0x40 DUP1 DUP4 KECCAK256 CALLER DUP5 MSTORE SWAP1 SWAP2 MSTORE SWAP1 KECCAK256 SLOAD PUSH1 0x1 PUSH1 0x1 PUSH1 0xA0 SHL SUB AND PUSH2 0x524 JUMPI PUSH1 0x40 MLOAD PUSH3 0x461BCD PUSH1 0xE5 SHL DUP2 MSTORE PUSH1 0x20 PUSH1 0x4 DUP3 ADD MSTORE PUSH1 0x13 PUSH1 0x24 DUP3 ADD MSTORE PUSH32 0x4E6F2070726564696374696F6E20666F756E6400000000000000000000000000 PUSH1 0x44 DUP3 ADD MSTORE PUSH1 0x64 ADD PUSH2 0x44D JUMP JUMPDEST PUSH0 DUP4 DUP2 MSTORE PUSH1 0x1 PUSH1 0x20 SWAP1 DUP2 MSTORE PUSH1 0x40 DUP1 DUP4 KECCAK256 CALLER DUP5 MSTORE SWAP1 SWAP2 MSTORE SWAP1 KECCAK256 PUSH1 0x3 ADD SLOAD PUSH1 0xFF AND ISZERO PUSH2 0x590 JUMPI PUSH1 0x40 MLOAD PUSH3 0x461BCD PUSH1 0xE5 SHL DUP2 MSTORE PUSH1 0x20 PUSH1 0x4 DUP3 ADD MSTORE PUSH1 0x10 PUSH1 0x24 DUP3 ADD MSTORE PUSH32 0x416C72656164792072657665616C656400000000000000000000000000000000 PUSH1 0x44 DUP3 ADD MSTORE PUSH1 0x64 ADD PUSH2 0x44D JUMP JUMPDEST PUSH0 DUP4 DUP2 MSTORE PUSH1 0x1 PUSH1 0x20 DUP2 DUP2 MSTORE PUSH1 0x40 DUP1 DUP5 KECCAK256 CALLER DUP1 DUP7 MSTORE DUP2 DUP5 MSTORE DUP3 DUP7 KECCAK256 PUSH1 0x2 DUP2 ADD SLOAD DUP5 MLOAD DUP11 ISZERO ISZERO PUSH1 0xF8 SHL DUP2 DUP9 ADD MSTORE PUSH12 0xFFFFFFFFFFFFFFFFFFFFFFFF NOT PUSH1 0x60 DUP6 SWAP1 SHL AND PUSH1 0x21 DUP3 ADD MSTORE PUSH1 0x35 DUP1 DUP3 ADD SWAP3 SWAP1 SWAP3 MSTORE DUP6 MLOAD DUP1 DUP3 SUB SWAP1 SWAP3 ADD DUP3 MSTORE PUSH1 0x55 ADD SWAP1 SWAP5 MSTORE DUP4 MLOAD SWAP4 DUP6 ADD SWAP4 SWAP1 SWAP4 KECCAK256 SWAP6 MSTORE SWAP1 SWAP2 MSTORE ADD SLOAD DUP2 EQ PUSH2 0x671 JUMPI PUSH1 0x40 MLOAD PUSH3 0x461BCD PUSH1 0xE5 SHL DUP2 MSTORE PUSH1 0x20 PUSH1 0x4 DUP3 ADD MSTORE PUSH1 0x2F PUSH1 0x24 DUP3 ADD MSTORE PUSH32 0x496E76616C69642072657665616C202D20677565737320646F65736E2774206D PUSH1 0x44 DUP3 ADD MSTORE PUSH32 0x6174636820636F6D6D69746D656E740000000000000000000000000000000000 PUSH1 0x64 DUP3 ADD MSTORE PUSH1 0x84 ADD PUSH2 0x44D JUMP JUMPDEST PUSH0 DUP5 DUP2 MSTORE PUSH1 0x20 DUP2 DUP2 MSTORE PUSH1 0x40 DUP1 DUP4 KECCAK256 PUSH1 0x3 SWAP1 DUP2 ADD SLOAD PUSH1 0x1 DUP1 DUP6 MSTORE DUP4 DUP7 KECCAK256 CALLER DUP1 DUP9 MSTORE SWAP1 DUP7 MSTORE SWAP6 DUP5 SWAP1 KECCAK256 SWAP1 SWAP3 ADD DUP1 SLOAD PUSH2 0xFFFF NOT AND PUSH2 0x100 SWAP3 DUP4 SWAP1 DIV PUSH1 0xFF AND ISZERO ISZERO DUP11 ISZERO ISZERO SWAP1 DUP2 EQ SWAP4 DUP5 MUL SWAP2 SWAP1 SWAP2 OR SWAP1 SWAP4 OR SWAP1 SSTORE DUP3 MLOAD SWAP2 DUP3 MSTORE SWAP3 DUP2 ADD DUP4 SWAP1 MSTORE SWAP2 SWAP3 SWAP2 DUP8 SWAP2 PUSH32 0x514DA75FE6C6998E1B24883DE8380DB0AC75AB05B901216B851316B251C2C2A6 SWAP2 ADD PUSH1 0x40 MLOAD DUP1 SWAP2 SUB SWAP1 LOG3 POP POP POP POP POP JUMP JUMPDEST PUSH1 0x60 DUP2 PUSH1 0x3 SLOAD DUP2 LT PUSH2 0x74D JUMPI PUSH1 0x40 MLOAD PUSH3 0x461BCD PUSH1 0xE5 SHL DUP2 MSTORE PUSH1 0x20 PUSH1 0x4 DUP3 ADD MSTORE PUSH1 0x14 PUSH1 0x24 DUP3 ADD MSTORE PUSH20 0x115D995B9D08191BD95CC81B9BDD08195E1A5CDD PUSH1 0x62 SHL PUSH1 0x44 DUP3 ADD MSTORE PUSH1 0x64 ADD PUSH2 0x44D JUMP JUMPDEST PUSH0 DUP4 DUP2 MSTORE PUSH1 0x2 PUSH1 0x20 SWAP1 DUP2 MSTORE PUSH1 0x40 SWAP2 DUP3 SWAP1 KECCAK256 DUP1 SLOAD DUP4 MLOAD DUP2 DUP5 MUL DUP2 ADD DUP5 ADD SWAP1 SWAP5 MSTORE DUP1 DUP5 MSTORE SWAP1 SWAP2 DUP4 ADD DUP3 DUP3 DUP1 ISZERO PUSH2 0x7A8 JUMPI PUSH1 0x20 MUL DUP3 ADD SWAP2 SWAP1 PUSH0 MSTORE PUSH1 0x20 PUSH0 KECCAK256 SWAP1 JUMPDEST DUP2 SLOAD PUSH1 0x1 PUSH1 0x1 PUSH1 0xA0 SHL SUB AND DUP2 MSTORE PUSH1 0x1 SWAP1 SWAP2 ADD SWAP1 PUSH1 0x20 ADD DUP1 DUP4 GT PUSH2 0x78A JUMPI JUMPDEST POP POP POP POP POP SWAP2 POP JUMPDEST POP SWAP2 SWAP1 POP JUMP JUMPDEST PUSH1 0x3 DUP1 SLOAD PUSH0 SWAP2 DUP3 SWAP2 SWAP1 DUP3 PUSH2 0x7C9 DUP4 PUSH2 0x13A1 JUMP JUMPDEST SWAP2 SWAP1 POP SSTORE SWAP1 POP PUSH1 0x40 MLOAD DUP1 PUSH1 0xC0 ADD PUSH1 0x40 MSTORE DUP1 DUP7 DUP2 MSTORE PUSH1 0x20 ADD DUP6 DUP2 MSTORE PUSH1 0x20 ADD DUP5 TIMESTAMP PUSH2 0x7F2 SWAP2 SWAP1 PUSH2 0x13B9 JUMP JUMPDEST DUP2 MSTORE PUSH0 PUSH1 0x20 DUP1 DUP4 ADD DUP3 SWAP1 MSTORE PUSH1 0x40 DUP1 DUP5 ADD DUP4 SWAP1 MSTORE PUSH1 0x60 SWAP1 SWAP4 ADD DUP3 SWAP1 MSTORE DUP5 DUP3 MSTORE DUP2 SWAP1 MSTORE KECCAK256 DUP2 MLOAD DUP2 SWAP1 PUSH2 0x822 SWAP1 DUP3 PUSH2 0x141E JUMP JUMPDEST POP PUSH1 0x20 DUP3 ADD MLOAD PUSH1 0x1 DUP3 ADD SWAP1 PUSH2 0x837 SWAP1 DUP3 PUSH2 0x141E JUMP JUMPDEST POP PUSH1 0x40 DUP3 ADD MLOAD PUSH1 0x2 DUP3 ADD SSTORE PUSH1 0x60 DUP3 ADD MLOAD PUSH1 0x3 DUP3 ADD DUP1 SLOAD PUSH1 0x80 DUP6 ADD MLOAD ISZERO ISZERO PUSH2 0x100 MUL PUSH2 0xFF00 NOT SWAP4 ISZERO ISZERO SWAP4 SWAP1 SWAP4 AND PUSH2 0xFFFF NOT SWAP1 SWAP2 AND OR SWAP2 SWAP1 SWAP2 OR SWAP1 SSTORE PUSH1 0xA0 SWAP1 SWAP2 ADD MLOAD PUSH1 0x4 SWAP1 SWAP2 ADD SSTORE DUP1 PUSH32 0xEE37BB5143A14810F72E86FCE895BE08E16090409D2E18F79B308995E39B73D4 DUP7 PUSH2 0x8AA DUP7 TIMESTAMP PUSH2 0x13B9 JUMP JUMPDEST PUSH1 0x40 MLOAD PUSH2 0x8B8 SWAP3 SWAP2 SWAP1 PUSH2 0x14DE JUMP JUMPDEST PUSH1 0x40 MLOAD DUP1 SWAP2 SUB SWAP1 LOG2 SWAP5 SWAP4 POP POP POP POP JUMP JUMPDEST PUSH0 DUP1 PUSH0 DUP1 DUP6 PUSH1 0x3 SLOAD DUP2 LT PUSH2 0x915 JUMPI PUSH1 0x40 MLOAD PUSH3 0x461BCD PUSH1 0xE5 SHL DUP2 MSTORE PUSH1 0x20 PUSH1 0x4 DUP3 ADD MSTORE PUSH1 0x14 PUSH1 0x24 DUP3 ADD MSTORE PUSH20 0x115D995B9D08191BD95CC81B9BDD08195E1A5CDD PUSH1 0x62 SHL PUSH1 0x44 DUP3 ADD MSTORE PUSH1 0x64 ADD PUSH2 0x44D JUMP JUMPDEST POP POP POP PUSH0 SWAP4 DUP5 MSTORE POP POP PUSH1 0x1 PUSH1 0x20 DUP2 DUP2 MSTORE PUSH1 0x40 DUP1 DUP6 KECCAK256 PUSH1 0x1 PUSH1 0x1 PUSH1 0xA0 SHL SUB SWAP5 DUP6 AND DUP7 MSTORE DUP3 MSTORE SWAP4 DUP5 SWAP1 KECCAK256 DUP5 MLOAD PUSH1 0xA0 DUP2 ADD DUP7 MSTORE DUP2 SLOAD SWAP1 SWAP5 AND DUP1 DUP6 MSTORE SWAP3 DUP2 ADD SLOAD SWAP2 DUP5 ADD SWAP2 SWAP1 SWAP2 MSTORE PUSH1 0x2 DUP2 ADD SLOAD SWAP4 DUP4 ADD DUP5 SWAP1 MSTORE PUSH1 0x3 ADD SLOAD PUSH1 0xFF DUP1 DUP3 AND ISZERO ISZERO PUSH1 0x60 DUP6 ADD DUP2 SWAP1 MSTORE PUSH2 0x100 SWAP1 SWAP3 DIV AND ISZERO ISZERO PUSH1 0x80 SWAP1 SWAP4 ADD DUP4 SWAP1 MSTORE SWAP1 ISZERO ISZERO SWAP4 SWAP1 SWAP2 SWAP1 JUMP JUMPDEST PUSH2 0x9C8 PUSH1 0x40 MLOAD DUP1 PUSH1 0xC0 ADD PUSH1 0x40 MSTORE DUP1 PUSH1 0x60 DUP2 MSTORE PUSH1 0x20 ADD PUSH1 0x60 DUP2 MSTORE PUSH1 0x20 ADD PUSH0 DUP2 MSTORE PUSH1 0x20 ADD PUSH0 ISZERO ISZERO DUP2 MSTORE PUSH1 0x20 ADD PUSH0 ISZERO ISZERO DUP2 MSTORE PUSH1 0x20 ADD PUSH0 DUP2 MSTORE POP SWAP1 JUMP JUMPDEST DUP2 PUSH1 0x3 SLOAD DUP2 LT PUSH2 0xA11 JUMPI PUSH1 0x40 MLOAD PUSH3 0x461BCD PUSH1 0xE5 SHL DUP2 MSTORE PUSH1 0x20 PUSH1 0x4 DUP3 ADD MSTORE PUSH1 0x14 PUSH1 0x24 DUP3 ADD MSTORE PUSH20 0x115D995B9D08191BD95CC81B9BDD08195E1A5CDD PUSH1 0x62 SHL PUSH1 0x44 DUP3 ADD MSTORE PUSH1 0x64 ADD PUSH2 0x44D JUMP JUMPDEST PUSH0 DUP4 DUP2 MSTORE PUSH1 0x20 DUP2 SWAP1 MSTORE PUSH1 0x40 SWAP1 DUP2 SWAP1 KECCAK256 DUP2 MLOAD PUSH1 0xC0 DUP2 ADD SWAP1 SWAP3 MSTORE DUP1 SLOAD DUP3 SWAP1 DUP3 SWAP1 PUSH2 0xA38 SWAP1 PUSH2 0x135B JUMP JUMPDEST DUP1 PUSH1 0x1F ADD PUSH1 0x20 DUP1 SWAP2 DIV MUL PUSH1 0x20 ADD PUSH1 0x40 MLOAD SWAP1 DUP2 ADD PUSH1 0x40 MSTORE DUP1 SWAP3 SWAP2 SWAP1 DUP2 DUP2 MSTORE PUSH1 0x20 ADD DUP3 DUP1 SLOAD PUSH2 0xA64 SWAP1 PUSH2 0x135B JUMP JUMPDEST DUP1 ISZERO PUSH2 0xAAF JUMPI DUP1 PUSH1 0x1F LT PUSH2 0xA86 JUMPI PUSH2 0x100 DUP1 DUP4 SLOAD DIV MUL DUP4 MSTORE SWAP2 PUSH1 0x20 ADD SWAP2 PUSH2 0xAAF JUMP JUMPDEST DUP3 ADD SWAP2 SWAP1 PUSH0 MSTORE PUSH1 0x20 PUSH0 KECCAK256 SWAP1 JUMPDEST DUP2 SLOAD DUP2 MSTORE SWAP1 PUSH1 0x1 ADD SWAP1 PUSH1 0x20 ADD DUP1 DUP4 GT PUSH2 0xA92 JUMPI DUP3 SWAP1 SUB PUSH1 0x1F AND DUP3 ADD SWAP2 JUMPDEST POP POP POP POP POP DUP2 MSTORE PUSH1 0x20 ADD PUSH1 0x1 DUP3 ADD DUP1 SLOAD PUSH2 0xAC8 SWAP1 PUSH2 0x135B JUMP JUMPDEST DUP1 PUSH1 0x1F ADD PUSH1 0x20 DUP1 SWAP2 DIV MUL PUSH1 0x20 ADD PUSH1 0x40 MLOAD SWAP1 DUP2 ADD PUSH1 0x40 MSTORE DUP1 SWAP3 SWAP2 SWAP1 DUP2 DUP2 MSTORE PUSH1 0x20 ADD DUP3 DUP1 SLOAD PUSH2 0xAF4 SWAP1 PUSH2 0x135B JUMP JUMPDEST DUP1 ISZERO PUSH2 0xB3F JUMPI DUP1 PUSH1 0x1F LT PUSH2 0xB16 JUMPI PUSH2 0x100 DUP1 DUP4 SLOAD DIV MUL DUP4 MSTORE SWAP2 PUSH1 0x20 ADD SWAP2 PUSH2 0xB3F JUMP JUMPDEST DUP3 ADD SWAP2 SWAP1 PUSH0 MSTORE PUSH1 0x20 PUSH0 KECCAK256 SWAP1 JUMPDEST DUP2 SLOAD DUP2 MSTORE SWAP1 PUSH1 0x1 ADD SWAP1 PUSH1 0x20 ADD DUP1 DUP4 GT PUSH2 0xB22 JUMPI DUP3 SWAP1 SUB PUSH1 0x1F AND DUP3 ADD SWAP2 JUMPDEST POP POP POP SWAP2 DUP4 MSTORE POP POP PUSH1 0x2 DUP3 ADD SLOAD PUSH1 0x20 DUP3 ADD MSTORE PUSH1 0x3 DUP3 ADD SLOAD PUSH1 0xFF DUP1 DUP3 AND ISZERO ISZERO PUSH1 0x40 DUP5 ADD MSTORE PUSH2 0x100 SWAP1 SWAP2 DIV AND ISZERO ISZERO PUSH1 0x60 DUP3 ADD MSTORE PUSH1 0x4 SWAP1 SWAP2 ADD SLOAD PUSH1 0x80 SWAP1 SWAP2 ADD MSTORE SWAP4 SWAP3 POP POP POP JUMP JUMPDEST PUSH1 0x2 PUSH1 0x20 MSTORE DUP2 PUSH0 MSTORE PUSH1 0x40 PUSH0 KECCAK256 DUP2 DUP2 SLOAD DUP2 LT PUSH2 0xB9C JUMPI PUSH0 DUP1 REVERT JUMPDEST PUSH0 SWAP2 DUP3 MSTORE PUSH1 0x20 SWAP1 SWAP2 KECCAK256 ADD SLOAD PUSH1 0x1 PUSH1 0x1 PUSH1 0xA0 SHL SUB AND SWAP2 POP DUP3 SWAP1 POP JUMP JUMPDEST DUP2 PUSH1 0x3 SLOAD DUP2 LT PUSH2 0xC00 JUMPI PUSH1 0x40 MLOAD PUSH3 0x461BCD PUSH1 0xE5 SHL DUP2 MSTORE PUSH1 0x20 PUSH1 0x4 DUP3 ADD MSTORE PUSH1 0x14 PUSH1 0x24 DUP3 ADD MSTORE PUSH20 0x115D995B9D08191BD95CC81B9BDD08195E1A5CDD PUSH1 0x62 SHL PUSH1 0x44 DUP3 ADD MSTORE PUSH1 0x64 ADD PUSH2 0x44D JUMP JUMPDEST PUSH0 DUP4 DUP2 MSTORE PUSH1 0x20 DUP2 SWAP1 MSTORE PUSH1 0x40 SWAP1 KECCAK256 PUSH1 0x2 ADD SLOAD DUP4 SWAP1 TIMESTAMP LT PUSH2 0xC61 JUMPI PUSH1 0x40 MLOAD PUSH3 0x461BCD PUSH1 0xE5 SHL DUP2 MSTORE PUSH1 0x20 PUSH1 0x4 DUP3 ADD MSTORE PUSH1 0xF PUSH1 0x24 DUP3 ADD MSTORE PUSH32 0x4576656E742068617320656E6465640000000000000000000000000000000000 PUSH1 0x44 DUP3 ADD MSTORE PUSH1 0x64 ADD PUSH2 0x44D JUMP JUMPDEST PUSH0 DUP2 DUP2 MSTORE PUSH1 0x20 DUP2 SWAP1 MSTORE PUSH1 0x40 SWAP1 KECCAK256 PUSH1 0x3 ADD SLOAD PUSH1 0xFF AND ISZERO PUSH2 0xCC2 JUMPI PUSH1 0x40 MLOAD PUSH3 0x461BCD PUSH1 0xE5 SHL DUP2 MSTORE PUSH1 0x20 PUSH1 0x4 DUP3 ADD MSTORE PUSH1 0x12 PUSH1 0x24 DUP3 ADD MSTORE PUSH32 0x4576656E742069732066696E616C697A65640000000000000000000000000000 PUSH1 0x44 DUP3 ADD MSTORE PUSH1 0x64 ADD PUSH2 0x44D JUMP JUMPDEST PUSH0 DUP5 DUP2 MSTORE PUSH1 0x1 PUSH1 0x20 SWAP1 DUP2 MSTORE PUSH1 0x40 DUP1 DUP4 KECCAK256 CALLER DUP5 MSTORE SWAP1 SWAP2 MSTORE SWAP1 KECCAK256 SLOAD PUSH1 0x1 PUSH1 0x1 PUSH1 0xA0 SHL SUB AND ISZERO PUSH2 0xD31 JUMPI PUSH1 0x40 MLOAD PUSH3 0x461BCD PUSH1 0xE5 SHL DUP2 MSTORE PUSH1 0x20 PUSH1 0x4 DUP3 ADD MSTORE PUSH1 0x17 PUSH1 0x24 DUP3 ADD MSTORE PUSH32 0x416C7265616479206D6164652070726564696374696F6E000000000000000000 PUSH1 0x44 DUP3 ADD MSTORE PUSH1 0x64 ADD PUSH2 0x44D JUMP JUMPDEST PUSH1 0x40 MLOAD DUP4 ISZERO ISZERO PUSH1 0xF8 SHL PUSH1 0x20 DUP3 ADD MSTORE PUSH12 0xFFFFFFFFFFFFFFFFFFFFFFFF NOT CALLER PUSH1 0x60 SHL AND PUSH1 0x21 DUP3 ADD MSTORE TIMESTAMP PUSH1 0x35 DUP3 ADD MSTORE PUSH0 SWAP1 PUSH1 0x55 ADD PUSH1 0x40 DUP1 MLOAD PUSH1 0x1F NOT DUP2 DUP5 SUB ADD DUP2 MSTORE DUP3 DUP3 MSTORE DUP1 MLOAD PUSH1 0x20 SWAP2 DUP3 ADD KECCAK256 PUSH1 0xA0 DUP5 ADD DUP4 MSTORE CALLER DUP1 DUP6 MSTORE DUP5 DUP4 ADD DUP3 DUP2 MSTORE TIMESTAMP DUP7 DUP7 ADD SWAP1 DUP2 MSTORE PUSH0 PUSH1 0x60 DUP9 ADD DUP2 DUP2 MSTORE PUSH1 0x80 DUP10 ADD DUP3 DUP2 MSTORE DUP15 DUP4 MSTORE PUSH1 0x1 DUP1 DUP10 MSTORE DUP10 DUP5 KECCAK256 DUP8 DUP6 MSTORE DUP10 MSTORE DUP10 DUP5 KECCAK256 SWAP11 MLOAD DUP12 SLOAD PUSH1 0x1 PUSH1 0x1 PUSH1 0xA0 SHL SUB SWAP2 SWAP1 SWAP2 AND PUSH32 0xFFFFFFFFFFFFFFFFFFFFFFFF0000000000000000000000000000000000000000 SWAP2 DUP3 AND OR DUP13 SSTORE SWAP6 MLOAD DUP12 DUP3 ADD SSTORE SWAP4 MLOAD PUSH1 0x2 DUP1 DUP13 ADD SWAP2 SWAP1 SWAP2 SSTORE SWAP2 MLOAD PUSH1 0x3 SWAP1 SWAP11 ADD DUP1 SLOAD SWAP2 MLOAD ISZERO ISZERO PUSH2 0x100 MUL PUSH2 0xFF00 NOT SWAP12 ISZERO ISZERO SWAP12 SWAP1 SWAP12 AND PUSH2 0xFFFF NOT SWAP1 SWAP3 AND SWAP2 SWAP1 SWAP2 OR SWAP10 SWAP1 SWAP10 OR SWAP1 SWAP9 SSTORE DUP13 DUP2 MSTORE SWAP7 DUP6 MSTORE DUP6 DUP8 KECCAK256 DUP1 SLOAD SWAP2 DUP3 ADD DUP2 SSTORE DUP8 MSTORE DUP5 DUP8 KECCAK256 ADD DUP1 SLOAD SWAP1 SWAP2 AND SWAP1 SWAP2 OR SWAP1 SSTORE DUP9 DUP5 MSTORE SWAP1 DUP4 SWAP1 MSTORE SWAP1 DUP3 KECCAK256 PUSH1 0x4 ADD DUP1 SLOAD SWAP2 SWAP4 POP SWAP1 SWAP2 PUSH2 0xE66 DUP4 PUSH2 0x13A1 JUMP JUMPDEST SWAP1 SWAP2 SSTORE POP POP PUSH1 0x40 MLOAD CALLER SWAP1 DUP7 SWAP1 PUSH32 0x3433E8596140D945036AC152F7EB3BDF196B11752669FD88A226FF1CD4F2B0F SWAP1 PUSH0 SWAP1 LOG3 POP POP POP POP POP JUMP JUMPDEST PUSH1 0x4 SLOAD PUSH1 0x1 PUSH1 0x1 PUSH1 0xA0 SHL SUB AND CALLER EQ PUSH2 0xF02 JUMPI PUSH1 0x40 MLOAD PUSH3 0x461BCD PUSH1 0xE5 SHL DUP2 MSTORE PUSH1 0x20 PUSH1 0x4 DUP3 ADD MSTORE PUSH1 0x21 PUSH1 0x24 DUP3 ADD MSTORE PUSH32 0x4F6E6C79206F776E65722063616E2063616C6C20746869732066756E6374696F PUSH1 0x44 DUP3 ADD MSTORE PUSH1 0x37 PUSH1 0xF9 SHL PUSH1 0x64 DUP3 ADD MSTORE PUSH1 0x84 ADD PUSH2 0x44D JUMP JUMPDEST DUP2 PUSH1 0x3 SLOAD DUP2 LT PUSH2 0xF4B JUMPI PUSH1 0x40 MLOAD PUSH3 0x461BCD PUSH1 0xE5 SHL DUP2 MSTORE PUSH1 0x20 PUSH1 0x4 DUP3 ADD MSTORE PUSH1 0x14 PUSH1 0x24 DUP3 ADD MSTORE PUSH20 0x115D995B9D08191BD95CC81B9BDD08195E1A5CDD PUSH1 0x62 SHL PUSH1 0x44 DUP3 ADD MSTORE PUSH1 0x64 ADD PUSH2 0x44D JUMP JUMPDEST PUSH0 DUP4 DUP2 MSTORE PUSH1 0x20 DUP2 SWAP1 MSTORE PUSH1 0x40 SWAP1 KECCAK256 PUSH1 0x2 ADD SLOAD TIMESTAMP LT ISZERO PUSH2 0xFAB JUMPI PUSH1 0x40 MLOAD PUSH3 0x461BCD PUSH1 0xE5 SHL DUP2 MSTORE PUSH1 0x20 PUSH1 0x4 DUP3 ADD MSTORE PUSH1 0x17 PUSH1 0x24 DUP3 ADD MSTORE PUSH32 0x4576656E7420686173206E6F7420656E64656420796574000000000000000000 PUSH1 0x44 DUP3 ADD MSTORE PUSH1 0x64 ADD PUSH2 0x44D JUMP JUMPDEST PUSH0 DUP4 DUP2 MSTORE PUSH1 0x20 DUP2 SWAP1 MSTORE PUSH1 0x40 SWAP1 KECCAK256 PUSH1 0x3 ADD SLOAD PUSH1 0xFF AND ISZERO PUSH2 0x100C JUMPI PUSH1 0x40 MLOAD PUSH3 0x461BCD PUSH1 0xE5 SHL DUP2 MSTORE PUSH1 0x20 PUSH1 0x4 DUP3 ADD MSTORE PUSH1 0x17 PUSH1 0x24 DUP3 ADD MSTORE PUSH32 0x4576656E7420616C72656164792066696E616C697A6564000000000000000000 PUSH1 0x44 DUP3 ADD MSTORE PUSH1 0x64 ADD PUSH2 0x44D JUMP JUMPDEST PUSH0 DUP4 DUP2 MSTORE PUSH1 0x20 DUP2 SWAP1 MSTORE PUSH1 0x40 SWAP1 DUP2 SWAP1 KECCAK256 PUSH1 0x3 ADD DUP1 SLOAD DUP5 ISZERO ISZERO PUSH2 0x100 MUL PUSH2 0xFFFF NOT SWAP1 SWAP2 AND OR PUSH1 0x1 OR SWAP1 SSTORE MLOAD DUP4 SWAP1 PUSH32 0xF8B638DBE29D9B9AE1B73A9D7E8ED4729965E0EF1A903EAEA00E87A834CB73EE SWAP1 PUSH2 0x1068 SWAP1 DUP6 ISZERO ISZERO DUP2 MSTORE PUSH1 0x20 ADD SWAP1 JUMP JUMPDEST PUSH1 0x40 MLOAD DUP1 SWAP2 SUB SWAP1 LOG2 POP POP POP JUMP JUMPDEST PUSH0 PUSH1 0x20 DUP3 DUP5 SUB SLT ISZERO PUSH2 0x1085 JUMPI PUSH0 DUP1 REVERT JUMPDEST POP CALLDATALOAD SWAP2 SWAP1 POP JUMP JUMPDEST PUSH0 DUP2 MLOAD DUP1 DUP5 MSTORE PUSH0 JUMPDEST DUP2 DUP2 LT ISZERO PUSH2 0x10B0 JUMPI PUSH1 0x20 DUP2 DUP6 ADD DUP2 ADD MLOAD DUP7 DUP4 ADD DUP3 ADD MSTORE ADD PUSH2 0x1094 JUMP JUMPDEST POP PUSH0 PUSH1 0x20 DUP3 DUP7 ADD ADD MSTORE PUSH1 0x20 PUSH1 0x1F NOT PUSH1 0x1F DUP4 ADD AND DUP6 ADD ADD SWAP2 POP POP SWAP3 SWAP2 POP POP JUMP JUMPDEST PUSH1 0xC0 DUP2 MSTORE PUSH0 PUSH2 0x10E1 PUSH1 0xC0 DUP4 ADD DUP10 PUSH2 0x108C JUMP JUMPDEST DUP3 DUP2 SUB PUSH1 0x20 DUP5 ADD MSTORE PUSH2 0x10F3 DUP2 DUP10 PUSH2 0x108C JUMP JUMPDEST PUSH1 0x40 DUP5 ADD SWAP8 SWAP1 SWAP8 MSTORE POP POP SWAP3 ISZERO ISZERO PUSH1 0x60 DUP5 ADD MSTORE SWAP1 ISZERO ISZERO PUSH1 0x80 DUP4 ADD MSTORE PUSH1 0xA0 SWAP1 SWAP2 ADD MSTORE SWAP3 SWAP2 POP POP JUMP JUMPDEST PUSH0 DUP1 PUSH1 0x40 DUP4 DUP6 SUB SLT ISZERO PUSH2 0x112A JUMPI PUSH0 DUP1 REVERT JUMPDEST DUP3 CALLDATALOAD SWAP2 POP PUSH1 0x20 DUP4 ADD CALLDATALOAD DUP1 ISZERO ISZERO DUP2 EQ PUSH2 0x1140 JUMPI PUSH0 DUP1 REVERT JUMPDEST DUP1 SWAP2 POP POP SWAP3 POP SWAP3 SWAP1 POP JUMP JUMPDEST PUSH1 0x20 DUP1 DUP3 MSTORE DUP3 MLOAD DUP3 DUP3 ADD DUP2 SWAP1 MSTORE PUSH0 SWAP2 SWAP1 DUP5 DUP3 ADD SWAP1 PUSH1 0x40 DUP6 ADD SWAP1 DUP5 JUMPDEST DUP2 DUP2 LT ISZERO PUSH2 0x118B JUMPI DUP4 MLOAD PUSH1 0x1 PUSH1 0x1 PUSH1 0xA0 SHL SUB AND DUP4 MSTORE SWAP3 DUP5 ADD SWAP3 SWAP2 DUP5 ADD SWAP2 PUSH1 0x1 ADD PUSH2 0x1166 JUMP JUMPDEST POP SWAP1 SWAP7 SWAP6 POP POP POP POP POP POP JUMP JUMPDEST PUSH4 0x4E487B71 PUSH1 0xE0 SHL PUSH0 MSTORE PUSH1 0x41 PUSH1 0x4 MSTORE PUSH1 0x24 PUSH0 REVERT JUMPDEST PUSH0 DUP3 PUSH1 0x1F DUP4 ADD SLT PUSH2 0x11BA JUMPI PUSH0 DUP1 REVERT JUMPDEST DUP2 CALLDATALOAD PUSH8 0xFFFFFFFFFFFFFFFF DUP1 DUP3 GT ISZERO PUSH2 0x11D5 JUMPI PUSH2 0x11D5 PUSH2 0x1197 JUMP JUMPDEST PUSH1 0x40 MLOAD PUSH1 0x1F DUP4 ADD PUSH1 0x1F NOT SWAP1 DUP2 AND PUSH1 0x3F ADD AND DUP2 ADD SWAP1 DUP3 DUP3 GT DUP2 DUP4 LT OR ISZERO PUSH2 0x11FD JUMPI PUSH2 0x11FD PUSH2 0x1197 JUMP JUMPDEST DUP2 PUSH1 0x40 MSTORE DUP4 DUP2 MSTORE DUP7 PUSH1 0x20 DUP6 DUP9 ADD ADD GT ISZERO PUSH2 0x1215 JUMPI PUSH0 DUP1 REVERT JUMPDEST DUP4 PUSH1 0x20 DUP8 ADD PUSH1 0x20 DUP4 ADD CALLDATACOPY PUSH0 PUSH1 0x20 DUP6 DUP4 ADD ADD MSTORE DUP1 SWAP5 POP POP POP POP POP SWAP3 SWAP2 POP POP JUMP JUMPDEST PUSH0 DUP1 PUSH0 PUSH1 0x60 DUP5 DUP7 SUB SLT ISZERO PUSH2 0x1246 JUMPI PUSH0 DUP1 REVERT JUMPDEST DUP4 CALLDATALOAD PUSH8 0xFFFFFFFFFFFFFFFF DUP1 DUP3 GT ISZERO PUSH2 0x125D JUMPI PUSH0 DUP1 REVERT JUMPDEST PUSH2 0x1269 DUP8 DUP4 DUP9 ADD PUSH2 0x11AB JUMP JUMPDEST SWAP5 POP PUSH1 0x20 DUP7 ADD CALLDATALOAD SWAP2 POP DUP1 DUP3 GT ISZERO PUSH2 0x127E JUMPI PUSH0 DUP1 REVERT JUMPDEST POP PUSH2 0x128B DUP7 DUP3 DUP8 ADD PUSH2 0x11AB JUMP JUMPDEST SWAP3 POP POP PUSH1 0x40 DUP5 ADD CALLDATALOAD SWAP1 POP SWAP3 POP SWAP3 POP SWAP3 JUMP JUMPDEST PUSH0 DUP1 PUSH1 0x40 DUP4 DUP6 SUB SLT ISZERO PUSH2 0x12AD JUMPI PUSH0 DUP1 REVERT JUMPDEST DUP3 CALLDATALOAD SWAP2 POP PUSH1 0x20 DUP4 ADD CALLDATALOAD PUSH1 0x1 PUSH1 0x1 PUSH1 0xA0 SHL SUB DUP2 AND DUP2 EQ PUSH2 0x1140 JUMPI PUSH0 DUP1 REVERT JUMPDEST PUSH1 0x20 DUP2 MSTORE PUSH0 DUP3 MLOAD PUSH1 0xC0 PUSH1 0x20 DUP5 ADD MSTORE PUSH2 0x12E5 PUSH1 0xE0 DUP5 ADD DUP3 PUSH2 0x108C JUMP JUMPDEST SWAP1 POP PUSH1 0x20 DUP5 ADD MLOAD PUSH1 0x1F NOT DUP5 DUP4 SUB ADD PUSH1 0x40 DUP6 ADD MSTORE PUSH2 0x1302 DUP3 DUP3 PUSH2 0x108C JUMP JUMPDEST SWAP2 POP POP PUSH1 0x40 DUP5 ADD MLOAD PUSH1 0x60 DUP5 ADD MSTORE PUSH1 0x60 DUP5 ADD MLOAD ISZERO ISZERO PUSH1 0x80 DUP5 ADD MSTORE PUSH1 0x80 DUP5 ADD MLOAD ISZERO ISZERO PUSH1 0xA0 DUP5 ADD MSTORE PUSH1 0xA0 DUP5 ADD MLOAD PUSH1 0xC0 DUP5 ADD MSTORE DUP1 SWAP2 POP POP SWAP3 SWAP2 POP POP JUMP JUMPDEST PUSH0 DUP1 PUSH1 0x40 DUP4 DUP6 SUB SLT ISZERO PUSH2 0x134C JUMPI PUSH0 DUP1 REVERT JUMPDEST POP POP DUP1 CALLDATALOAD SWAP3 PUSH1 0x20 SWAP1 SWAP2 ADD CALLDATALOAD SWAP2 POP JUMP JUMPDEST PUSH1 0x1 DUP2 DUP2 SHR SWAP1 DUP3 AND DUP1 PUSH2 0x136F JUMPI PUSH1 0x7F DUP3 AND SWAP2 POP JUMPDEST PUSH1 0x20 DUP3 LT DUP2 SUB PUSH2 0x7B0 JUMPI PUSH4 0x4E487B71 PUSH1 0xE0 SHL PUSH0 MSTORE PUSH1 0x22 PUSH1 0x4 MSTORE PUSH1 0x24 PUSH0 REVERT JUMPDEST PUSH4 0x4E487B71 PUSH1 0xE0 SHL PUSH0 MSTORE PUSH1 0x11 PUSH1 0x4 MSTORE PUSH1 0x24 PUSH0 REVERT JUMPDEST PUSH0 PUSH1 0x1 DUP3 ADD PUSH2 0x13B2 JUMPI PUSH2 0x13B2 PUSH2 0x138D JUMP JUMPDEST POP PUSH1 0x1 ADD SWAP1 JUMP JUMPDEST DUP1 DUP3 ADD DUP1 DUP3 GT ISZERO PUSH2 0x13CC JUMPI PUSH2 0x13CC PUSH2 0x138D JUMP JUMPDEST SWAP3 SWAP2 POP POP JUMP JUMPDEST PUSH1 0x1F DUP3 GT ISZERO PUSH2 0x1419 JUMPI DUP1 PUSH0 MSTORE PUSH1 0x20 PUSH0 KECCAK256 PUSH1 0x1F DUP5 ADD PUSH1 0x5 SHR DUP2 ADD PUSH1 0x20 DUP6 LT ISZERO PUSH2 0x13F7 JUMPI POP DUP1 JUMPDEST PUSH1 0x1F DUP5 ADD PUSH1 0x5 SHR DUP3 ADD SWAP2 POP JUMPDEST DUP2 DUP2 LT ISZERO PUSH2 0x1416 JUMPI PUSH0 DUP2 SSTORE PUSH1 0x1 ADD PUSH2 0x1403 JUMP JUMPDEST POP POP JUMPDEST POP POP POP JUMP JUMPDEST DUP2 MLOAD PUSH8 0xFFFFFFFFFFFFFFFF DUP2 GT ISZERO PUSH2 0x1438 JUMPI PUSH2 0x1438 PUSH2 0x1197 JUMP JUMPDEST PUSH2 0x144C DUP2 PUSH2 0x1446 DUP5 SLOAD PUSH2 0x135B JUMP JUMPDEST DUP5 PUSH2 0x13D2 JUMP JUMPDEST PUSH1 0x20 DUP1 PUSH1 0x1F DUP4 GT PUSH1 0x1 DUP2 EQ PUSH2 0x147F JUMPI PUSH0 DUP5 ISZERO PUSH2 0x1468 JUMPI POP DUP6 DUP4 ADD MLOAD JUMPDEST PUSH0 NOT PUSH1 0x3 DUP7 SWAP1 SHL SHR NOT AND PUSH1 0x1 DUP6 SWAP1 SHL OR DUP6 SSTORE PUSH2 0x14D6 JUMP JUMPDEST PUSH0 DUP6 DUP2 MSTORE PUSH1 0x20 DUP2 KECCAK256 PUSH1 0x1F NOT DUP7 AND SWAP2 JUMPDEST DUP3 DUP2 LT ISZERO PUSH2 0x14AD JUMPI DUP9 DUP7 ADD MLOAD DUP3 SSTORE SWAP5 DUP5 ADD SWAP5 PUSH1 0x1 SWAP1 SWAP2 ADD SWAP1 DUP5 ADD PUSH2 0x148E JUMP JUMPDEST POP DUP6 DUP3 LT ISZERO PUSH2 0x14CA JUMPI DUP8 DUP6 ADD MLOAD PUSH0 NOT PUSH1 0x3 DUP9 SWAP1 SHL PUSH1 0xF8 AND SHR NOT AND DUP2 SSTORE JUMPDEST POP POP PUSH1 0x1 DUP5 PUSH1 0x1 SHL ADD DUP6 SSTORE JUMPDEST POP POP POP POP POP POP JUMP JUMPDEST PUSH1 0x40 DUP2 MSTORE PUSH0 PUSH2 0x14F0 PUSH1 0x40 DUP4 ADD DUP6 PUSH2 0x108C JUMP JUMPDEST SWAP1 POP DUP3 PUSH1 0x20 DUP4 ADD MSTORE SWAP4 SWAP3 POP POP POP JUMP INVALID LOG2 PUSH5 0x6970667358 0x22 SLT KECCAK256 0xE6 GT 0xBB 0xC2 0xFB 0xC6 EXTCODESIZE PUSH22 0x17D2336AB2CF9676DFD1676D45429E3B463B2C7E223D 0x27 0xBB PUSH5 0x736F6C6343 STOP ADDMOD XOR STOP CALLER "},"methodIdentifiers":{"createEvent(string,string,uint256)":"5555fe17","eventPredictors(uint256,uint256)":"7ceb38f8","events(uint256)":"0b791430","finalizeEvent(uint256,bool)":"c2cf0e93","getEvent(uint256)":"6d1884e0","getEventPredictors(uint256)":"3b51ac30","getTotalEvents()":"61606940","getUserPrediction(uint256,address)":"6ac28cb3","makePrediction(uint256,bool)":"b0d6f59c","nextEventId()":"9f9d903a","owner()":"8da5cb5b","predictions(uint256,address)":"92b108d0","revealPrediction(uint256,bool)":"37a2a818"}}}}}