{"contracts/DecryptionExample.sol":{"DecryptionExample":{"abi":[{"anonymous":false,"inputs":[{"indexed":true,"internalType":"uint256","name":"dataId","type":"uint256"},{"indexed":true,"internalType":"address","name":"owner","type":"address"}],"name":"DataEncrypted","type":"event"},{"anonymous":false,"inputs":[{"indexed":true,"internalType":"uint256","name":"dataId","type":"uint256"},{"indexed":false,"internalType":"uint256","name":"decryptedValue","type":"uint256"}],"name":"DecryptionCompleted","type":"event"},{"anonymous":false,"inputs":[{"indexed":true,"internalType":"uint256","name":"dataId","type":"uint256"}],"name":"PublicDecryptionEnabled","type":"event"},{"anonymous":false,"inputs":[{"indexed":true,"internalType":"uint256","name":"dataId","type":"uint256"},{"indexed":true,"internalType":"address","name":"user","type":"address"}],"name":"UserDecryptionRequested","type":"event"},{"inputs":[{"internalType":"uint256","name":"_dataId","type":"uint256"}],"name":"antiPatternDecryptInView","outputs":[{"internalType":"uint256","name":"","type":"uint256"}],"stateMutability":"view","type":"function"},{"inputs":[{"internalType":"uint256","name":"_dataId","type":"uint256"},{"internalType":"uint256","name":"_decryptedValue","type":"uint256"}],"name":"antiPatternPublicDecryptedStorage","outputs":[],"stateMutability":"nonpayable","type":"function"},{"inputs":[{"internalType":"uint256","name":"_dataId","type":"uint256"},{"internalType":"uint256","name":"_revealTime","type":"uint256"}],"name":"canDecryptAfterTime","outputs":[{"internalType":"bool","name":"","type":"bool"}],"stateMutability":"view","type":"function"},{"inputs":[{"internalType":"uint256","name":"_dataId","type":"uint256"}],"name":"canUserDecrypt","outputs":[{"internalType":"bool","name":"","type":"bool"}],"stateMutability":"view","type":"function"},{"inputs":[{"internalType":"uint256","name":"_dataId","type":"uint256"},{"internalType":"bool","name":"_condition","type":"bool"}],"name":"conditionalPublicReveal","outputs":[],"stateMutability":"nonpayable","type":"function"},{"inputs":[{"internalType":"uint256","name":"_dataId","type":"uint256"}],"name":"correctDecryptionPattern","outputs":[{"internalType":"bytes32","name":"","type":"bytes32"}],"stateMutability":"view","type":"function"},{"inputs":[{"internalType":"uint256","name":"","type":"uint256"}],"name":"decryptionRequested","outputs":[{"internalType":"bool","name":"","type":"bool"}],"stateMutability":"view","type":"function"},{"inputs":[{"internalType":"uint256","name":"_dataId","type":"uint256"}],"name":"enablePublicDecryption","outputs":[],"stateMutability":"nonpayable","type":"function"},{"inputs":[{"internalType":"uint256","name":"","type":"uint256"}],"name":"encryptedDataStore","outputs":[{"internalType":"bytes32","name":"encryptedValue","type":"bytes32"},{"internalType":"address","name":"owner","type":"address"},{"internalType":"bool","name":"isPubliclyDecryptable","type":"bool"},{"internalType":"uint256","name":"timestamp","type":"uint256"}],"stateMutability":"view","type":"function"},{"inputs":[{"internalType":"uint256","name":"_dataId","type":"uint256"}],"name":"getDataInfo","outputs":[{"components":[{"internalType":"bytes32","name":"encryptedValue","type":"bytes32"},{"internalType":"address","name":"owner","type":"address"},{"internalType":"bool","name":"isPubliclyDecryptable","type":"bool"},{"internalType":"uint256","name":"timestamp","type":"uint256"}],"internalType":"struct DecryptionExample.EncryptedData","name":"","type":"tuple"}],"stateMutability":"view","type":"function"},{"inputs":[{"internalType":"uint256","name":"_dataId","type":"uint256"}],"name":"isPubliclyDecryptable","outputs":[{"internalType":"bool","name":"","type":"bool"}],"stateMutability":"view","type":"function"},{"inputs":[],"name":"nextDataId","outputs":[{"internalType":"uint256","name":"","type":"uint256"}],"stateMutability":"view","type":"function"},{"inputs":[{"internalType":"uint256","name":"_dataId","type":"uint256"},{"internalType":"uint256","name":"_decryptedValue","type":"uint256"}],"name":"oracleDecryptionCallback","outputs":[],"stateMutability":"nonpayable","type":"function"},{"inputs":[{"internalType":"uint256[]","name":"_dataIds","type":"uint256[]"}],"name":"requestBatchPublicDecryption","outputs":[{"internalType":"bytes32[]","name":"","type":"bytes32[]"}],"stateMutability":"view","type":"function"},{"inputs":[{"internalType":"uint256[]","name":"_dataIds","type":"uint256[]"}],"name":"requestBatchUserDecryption","outputs":[{"internalType":"bytes32[]","name":"","type":"bytes32[]"}],"stateMutability":"view","type":"function"},{"inputs":[{"internalType":"uint256","name":"_dataId","type":"uint256"}],"name":"requestPublicDecryption","outputs":[{"internalType":"bytes32","name":"","type":"bytes32"}],"stateMutability":"view","type":"function"},{"inputs":[{"internalType":"uint256","name":"_dataId","type":"uint256"}],"name":"requestUserDecryption","outputs":[{"internalType":"bytes32","name":"","type":"bytes32"}],"stateMutability":"view","type":"function"},{"inputs":[{"internalType":"bytes32","name":"_encryptedValue","type":"bytes32"}],"name":"storePublicDecryptableData","outputs":[{"internalType":"uint256","name":"","type":"uint256"}],"stateMutability":"nonpayable","type":"function"},{"inputs":[{"internalType":"bytes32","name":"_encryptedValue","type":"bytes32"}],"name":"storeUserDecryptableData","outputs":[{"internalType":"uint256","name":"","type":"uint256"}],"stateMutability":"nonpayable","type":"function"}],"evm":{"bytecode":{"linkReferences":{},"object":"608060405234801561000f575f80fd5b506111a88061001d5f395ff3fe608060405234801561000f575f80fd5b5060043610610149575f3560e01c8063877c2883116100c7578063b2a70a541161007d578063e211ec7011610063578063e211ec70146102f1578063ec112a0514610304578063f03f3e3614610376575f80fd5b8063b2a70a54146102cb578063d3a239c0146102de575f80fd5b80639393cff4116100ad5780639393cff41461029357806397022c80146102a5578063a08a975d146102b8575f80fd5b8063877c28831461026a5780638b4ce2dd1461028a575f80fd5b80635ca97ab31161011c578063672a145411610102578063672a1454146102315780636a3477c81461024457806373fe675914610257575f80fd5b80635ca97ab3146101cb578063660d7649146101e0575f80fd5b806302aaefc81461014d578063223c3cd1146101735780632703aeb6146101a557806331124238146101b8575b5f80fd5b61016061015b36600461100b565b610395565b6040519081526020015b60405180910390f35b61019561018136600461100b565b60026020525f908152604090205460ff1681565b604051901515815260200161016a565b6101606101b336600461100b565b61045f565b6101606101c636600461100b565b610549565b6101de6101d936600461100b565b61063f565b005b6101f36101ee36600461100b565b610776565b60405161016a9190815181526020808301516001600160a01b0316908201526040808301511515908201526060918201519181019190915260800190565b6101de61023f366004611022565b610830565b61019561025236600461100b565b61090e565b61019561026536600461100b565b610934565b61027d610278366004611042565b610965565b60405161016a91906110b1565b61016060015481565b6101de6102a1366004611022565b5050565b6101606102b336600461100b565b610b01565b6101de6102c63660046110f4565b610bf9565b6101606102d936600461100b565b610d7e565b61027d6102ec366004611042565b610e44565b6101956102ff366004611022565b610fbe565b61034861031236600461100b565b5f6020819052908152604090208054600182015460029092015490916001600160a01b03811691600160a01b90910460ff169084565b604080519485526001600160a01b03909316602085015290151591830191909152606082015260800161016a565b61016061038436600461100b565b5f9081526020819052604090205490565b600180545f91829190826103a883611126565b90915550604080516080810182528581523360208083018281525f84860181815242606087019081528883529382905286822095518655915160018601805493511515600160a01b0274ffffffffffffffffffffffffffffffffffffffffff199094166001600160a01b0392909216919091179290921790915590516002909301929092559151929350909183917ff7dec00c9769e187f974c5680013b322249fbeb5aee20609e5116201219d2fe891a392915050565b5f60015482106104a85760405162461bcd60e51b815260206004820152600f60248201526e125b9d985b1a590819185d18481251608a1b60448201526064015b60405180910390fd5b5f828152602081815260409182902082516080810184528154815260018201546001600160a01b038116938201849052600160a01b900460ff1615159381019390935260020154606083015233146105425760405162461bcd60e51b815260206004820152601660248201527f4f6e6c79206f776e65722063616e206465637279707400000000000000000000604482015260640161049f565b5192915050565b5f600154821061058d5760405162461bcd60e51b815260206004820152600f60248201526e125b9d985b1a590819185d18481251608a1b604482015260640161049f565b5f828152602081815260409182902082516080810184528154815260018201546001600160a01b038116938201849052600160a01b900460ff161515938101939093526002015460608301523314806105f357505f8381526002602052604090205460ff165b6105425760405162461bcd60e51b815260206004820152600d60248201527f4163636573732064656e69656400000000000000000000000000000000000000604482015260640161049f565b60015481106106825760405162461bcd60e51b815260206004820152600f60248201526e125b9d985b1a590819185d18481251608a1b604482015260640161049f565b5f81815260208190526040902060018101546001600160a01b031633146106d85760405162461bcd60e51b815260206004820152600a60248201526927b7363c9037bbb732b960b11b604482015260640161049f565b6001810154600160a01b900460ff166107335760405162461bcd60e51b815260206004820181905260248201527f4e6f74206d61726b656420666f72207075626c69632064656372797074696f6e604482015260640161049f565b5f82815260026020526040808220805460ff191660011790555183917f83b37a1020abcc6980fe0f2b454c7527b0528338cc24d5fad7c7564250d73ff191a25050565b604080516080810182525f80825260208201819052918101829052606081019190915260015482106107dc5760405162461bcd60e51b815260206004820152600f60248201526e125b9d985b1a590819185d18481251608a1b604482015260640161049f565b505f908152602081815260409182902082516080810184528154815260018201546001600160a01b03811693820193909352600160a01b90920460ff16151592820192909252600290910154606082015290565b60015482106108735760405162461bcd60e51b815260206004820152600f60248201526e125b9d985b1a590819185d18481251608a1b604482015260640161049f565b5f8281526002602052604090205460ff166108d05760405162461bcd60e51b815260206004820152601860248201527f44656372797074696f6e206e6f74207265717565737465640000000000000000604482015260640161049f565b817f705659a462bc418d826ec06dbbbb2ad8d880e907a1750352a7f51059d8e518448260405161090291815260200190565b60405180910390a25050565b5f600154821061091f57505f919050565b505f9081526002602052604090205460ff1690565b5f600154821061094557505f919050565b505f908152602081905260409020600101546001600160a01b0316331490565b60605f8267ffffffffffffffff8111156109815761098161114a565b6040519080825280602002602001820160405280156109aa578160200160208202803683370190505b5090505f5b83811015610af9576001548585838181106109cc576109cc61115e565b9050602002013510610a125760405162461bcd60e51b815260206004820152600f60248201526e125b9d985b1a590819185d18481251608a1b604482015260640161049f565b5f805f878785818110610a2757610a2761115e565b602090810292909201358352508181019290925260409081015f2081516080810183528154815260018201546001600160a01b038116948201859052600160a01b900460ff1615159281019290925260020154606082015291503314610acf5760405162461bcd60e51b815260206004820152601660248201527f4f6e6c79206f776e65722063616e206465637279707400000000000000000000604482015260640161049f565b805f0151838381518110610ae557610ae561115e565b6020908102919091010152506001016109af565b509392505050565b5f6001548210610b455760405162461bcd60e51b815260206004820152600f60248201526e125b9d985b1a590819185d18481251608a1b604482015260640161049f565b5f8281526002602052604090205460ff16610ba25760405162461bcd60e51b815260206004820152601d60248201527f5075626c69632064656372797074696f6e206e6f7420656e61626c6564000000604482015260640161049f565b505f90815260208181526040918290208251608081018452815480825260018301546001600160a01b03811694830194909452600160a01b90930460ff161515938101939093526002015460609092019190915290565b6001548210610c3c5760405162461bcd60e51b815260206004820152600f60248201526e125b9d985b1a590819185d18481251608a1b604482015260640161049f565b5f82815260208190526040902060018101546001600160a01b03163314610c925760405162461bcd60e51b815260206004820152600a60248201526927b7363c9037bbb732b960b11b604482015260640161049f565b81610cdf5760405162461bcd60e51b815260206004820152601160248201527f436f6e646974696f6e206e6f74206d6574000000000000000000000000000000604482015260640161049f565b6001810154600160a01b900460ff16610d3a5760405162461bcd60e51b815260206004820181905260248201527f4e6f74206d61726b656420666f72207075626c69632064656372797074696f6e604482015260640161049f565b5f83815260026020526040808220805460ff191660011790555184917f83b37a1020abcc6980fe0f2b454c7527b0528338cc24d5fad7c7564250d73ff191a2505050565b600180545f9182919082610d9183611126565b9091555060408051608081018252858152336020808301828152600184860181815242606087019081525f89815294859052878520965187559251918601805491511515600160a01b0274ffffffffffffffffffffffffffffffffffffffffff199092166001600160a01b039390931692909217179055516002909301929092559151929350909183917ff7dec00c9769e187f974c5680013b322249fbeb5aee20609e5116201219d2fe891a392915050565b60605f8267ffffffffffffffff811115610e6057610e6061114a565b604051908082528060200260200182016040528015610e89578160200160208202803683370190505b5090505f5b83811015610af957600154858583818110610eab57610eab61115e565b9050602002013510610ef15760405162461bcd60e51b815260206004820152600f60248201526e125b9d985b1a590819185d18481251608a1b604482015260640161049f565b60025f868684818110610f0657610f0661115e565b602090810292909201358352508101919091526040015f205460ff16610f6e5760405162461bcd60e51b815260206004820152600b60248201527f4e6f7420656e61626c6564000000000000000000000000000000000000000000604482015260640161049f565b5f80868684818110610f8257610f8261115e565b9050602002013581526020019081526020015f205f0154828281518110610fab57610fab61115e565b6020908102919091010152600101610e8e565b5f60015483106110025760405162461bcd60e51b815260206004820152600f60248201526e125b9d985b1a590819185d18481251608a1b604482015260640161049f565b50421015919050565b5f6020828403121561101b575f80fd5b5035919050565b5f8060408385031215611033575f80fd5b50508035926020909101359150565b5f8060208385031215611053575f80fd5b823567ffffffffffffffff8082111561106a575f80fd5b818501915085601f83011261107d575f80fd5b81358181111561108b575f80fd5b8660208260051b850101111561109f575f80fd5b60209290920196919550909350505050565b602080825282518282018190525f9190848201906040850190845b818110156110e8578351835292840192918401916001016110cc565b50909695505050505050565b5f8060408385031215611105575f80fd5b823591506020830135801515811461111b575f80fd5b809150509250929050565b5f6001820161114357634e487b7160e01b5f52601160045260245ffd5b5060010190565b634e487b7160e01b5f52604160045260245ffd5b634e487b7160e01b5f52603260045260245ffdfea264697066735822122011f69b07380c151d18869cceef92d33d27ac89d9a20d4a9d66581376d5faa50664736f6c63430008180033","opcodes":"PUSH1 0x80 PUSH1 0x40 MSTORE CALLVALUE DUP1 ISZERO PUSH2 0xF JUMPI PUSH0 DUP1 REVERT JUMPDEST POP PUSH2 0x11A8 DUP1 PUSH2 0x1D PUSH0 CODECOPY PUSH0 RETURN INVALID PUSH1 0x80 PUSH1 0x40 MSTORE CALLVALUE DUP1 ISZERO PUSH2 0xF JUMPI PUSH0 DUP1 REVERT JUMPDEST POP PUSH1 0x4 CALLDATASIZE LT PUSH2 0x149 JUMPI PUSH0 CALLDATALOAD PUSH1 0xE0 SHR DUP1 PUSH4 0x877C2883 GT PUSH2 0xC7 JUMPI DUP1 PUSH4 0xB2A70A54 GT PUSH2 0x7D JUMPI DUP1 PUSH4 0xE211EC70 GT PUSH2 0x63 JUMPI DUP1 PUSH4 0xE211EC70 EQ PUSH2 0x2F1 JUMPI DUP1 PUSH4 0xEC112A05 EQ PUSH2 0x304 JUMPI DUP1 PUSH4 0xF03F3E36 EQ PUSH2 0x376 JUMPI PUSH0 DUP1 REVERT JUMPDEST DUP1 PUSH4 0xB2A70A54 EQ PUSH2 0x2CB JUMPI DUP1 PUSH4 0xD3A239C0 EQ PUSH2 0x2DE JUMPI PUSH0 DUP1 REVERT JUMPDEST DUP1 PUSH4 0x9393CFF4 GT PUSH2 0xAD JUMPI DUP1 PUSH4 0x9393CFF4 EQ PUSH2 0x293 JUMPI DUP1 PUSH4 0x97022C80 EQ PUSH2 0x2A5 JUMPI DUP1 PUSH4 0xA08A975D EQ PUSH2 0x2B8 JUMPI PUSH0 DUP1 REVERT JUMPDEST DUP1 PUSH4 0x877C2883 EQ PUSH2 0x26A JUMPI DUP1 PUSH4 0x8B4CE2DD EQ PUSH2 0x28A JUMPI PUSH0 DUP1 REVERT JUMPDEST DUP1 PUSH4 0x5CA97AB3 GT PUSH2 0x11C JUMPI DUP1 PUSH4 0x672A1454 GT PUSH2 0x102 JUMPI DUP1 PUSH4 0x672A1454 EQ PUSH2 0x231 JUMPI DUP1 PUSH4 0x6A3477C8 EQ PUSH2 0x244 JUMPI DUP1 PUSH4 0x73FE6759 EQ PUSH2 0x257 JUMPI PUSH0 DUP1 REVERT JUMPDEST DUP1 PUSH4 0x5CA97AB3 EQ PUSH2 0x1CB JUMPI DUP1 PUSH4 0x660D7649 EQ PUSH2 0x1E0 JUMPI PUSH0 DUP1 REVERT JUMPDEST DUP1 PUSH4 0x2AAEFC8 EQ PUSH2 0x14D JUMPI DUP1 PUSH4 0x223C3CD1 EQ PUSH2 0x173 JUMPI DUP1 PUSH4 0x2703AEB6 EQ PUSH2 0x1A5 JUMPI DUP1 PUSH4 0x31124238 EQ PUSH2 0x1B8 JUMPI JUMPDEST PUSH0 DUP1 REVERT JUMPDEST PUSH2 0x160 PUSH2 0x15B CALLDATASIZE PUSH1 0x4 PUSH2 0x100B JUMP JUMPDEST PUSH2 0x395 JUMP JUMPDEST PUSH1 0x40 MLOAD SWAP1 DUP2 MSTORE PUSH1 0x20 ADD JUMPDEST PUSH1 0x40 MLOAD DUP1 SWAP2 SUB SWAP1 RETURN JUMPDEST PUSH2 0x195 PUSH2 0x181 CALLDATASIZE PUSH1 0x4 PUSH2 0x100B JUMP JUMPDEST PUSH1 0x2 PUSH1 0x20 MSTORE PUSH0 SWAP1 DUP2 MSTORE PUSH1 0x40 SWAP1 KECCAK256 SLOAD PUSH1 0xFF AND DUP2 JUMP JUMPDEST PUSH1 0x40 MLOAD SWAP1 ISZERO ISZERO DUP2 MSTORE PUSH1 0x20 ADD PUSH2 0x16A JUMP JUMPDEST PUSH2 0x160 PUSH2 0x1B3 CALLDATASIZE PUSH1 0x4 PUSH2 0x100B JUMP JUMPDEST PUSH2 0x45F JUMP JUMPDEST PUSH2 0x160 PUSH2 0x1C6 CALLDATASIZE PUSH1 0x4 PUSH2 0x100B JUMP JUMPDEST PUSH2 0x549 JUMP JUMPDEST PUSH2 0x1DE PUSH2 0x1D9 CALLDATASIZE PUSH1 0x4 PUSH2 0x100B JUMP JUMPDEST PUSH2 0x63F JUMP JUMPDEST STOP JUMPDEST PUSH2 0x1F3 PUSH2 0x1EE CALLDATASIZE PUSH1 0x4 PUSH2 0x100B JUMP JUMPDEST PUSH2 0x776 JUMP JUMPDEST PUSH1 0x40 MLOAD PUSH2 0x16A SWAP2 SWAP1 DUP2 MLOAD DUP2 MSTORE PUSH1 0x20 DUP1 DUP4 ADD MLOAD PUSH1 0x1 PUSH1 0x1 PUSH1 0xA0 SHL SUB AND SWAP1 DUP3 ADD MSTORE PUSH1 0x40 DUP1 DUP4 ADD MLOAD ISZERO ISZERO SWAP1 DUP3 ADD MSTORE PUSH1 0x60 SWAP2 DUP3 ADD MLOAD SWAP2 DUP2 ADD SWAP2 SWAP1 SWAP2 MSTORE PUSH1 0x80 ADD SWAP1 JUMP JUMPDEST PUSH2 0x1DE PUSH2 0x23F CALLDATASIZE PUSH1 0x4 PUSH2 0x1022 JUMP JUMPDEST PUSH2 0x830 JUMP JUMPDEST PUSH2 0x195 PUSH2 0x252 CALLDATASIZE PUSH1 0x4 PUSH2 0x100B JUMP JUMPDEST PUSH2 0x90E JUMP JUMPDEST PUSH2 0x195 PUSH2 0x265 CALLDATASIZE PUSH1 0x4 PUSH2 0x100B JUMP JUMPDEST PUSH2 0x934 JUMP JUMPDEST PUSH2 0x27D PUSH2 0x278 CALLDATASIZE PUSH1 0x4 PUSH2 0x1042 JUMP JUMPDEST PUSH2 0x965 JUMP JUMPDEST PUSH1 0x40 MLOAD PUSH2 0x16A SWAP2 SWAP1 PUSH2 0x10B1 JUMP JUMPDEST PUSH2 0x160 PUSH1 0x1 SLOAD DUP2 JUMP JUMPDEST PUSH2 0x1DE PUSH2 0x2A1 CALLDATASIZE PUSH1 0x4 PUSH2 0x1022 JUMP JUMPDEST POP POP JUMP JUMPDEST PUSH2 0x160 PUSH2 0x2B3 CALLDATASIZE PUSH1 0x4 PUSH2 0x100B JUMP JUMPDEST PUSH2 0xB01 JUMP JUMPDEST PUSH2 0x1DE PUSH2 0x2C6 CALLDATASIZE PUSH1 0x4 PUSH2 0x10F4 JUMP JUMPDEST PUSH2 0xBF9 JUMP JUMPDEST PUSH2 0x160 PUSH2 0x2D9 CALLDATASIZE PUSH1 0x4 PUSH2 0x100B JUMP JUMPDEST PUSH2 0xD7E JUMP JUMPDEST PUSH2 0x27D PUSH2 0x2EC CALLDATASIZE PUSH1 0x4 PUSH2 0x1042 JUMP JUMPDEST PUSH2 0xE44 JUMP JUMPDEST PUSH2 0x195 PUSH2 0x2FF CALLDATASIZE PUSH1 0x4 PUSH2 0x1022 JUMP JUMPDEST PUSH2 0xFBE JUMP JUMPDEST PUSH2 0x348 PUSH2 0x312 CALLDATASIZE PUSH1 0x4 PUSH2 0x100B JUMP JUMPDEST PUSH0 PUSH1 0x20 DUP2 SWAP1 MSTORE SWAP1 DUP2 MSTORE PUSH1 0x40 SWAP1 KECCAK256 DUP1 SLOAD PUSH1 0x1 DUP3 ADD SLOAD PUSH1 0x2 SWAP1 SWAP3 ADD SLOAD SWAP1 SWAP2 PUSH1 0x1 PUSH1 0x1 PUSH1 0xA0 SHL SUB DUP2 AND SWAP2 PUSH1 0x1 PUSH1 0xA0 SHL SWAP1 SWAP2 DIV PUSH1 0xFF AND SWAP1 DUP5 JUMP JUMPDEST PUSH1 0x40 DUP1 MLOAD SWAP5 DUP6 MSTORE PUSH1 0x1 PUSH1 0x1 PUSH1 0xA0 SHL SUB SWAP1 SWAP4 AND PUSH1 0x20 DUP6 ADD MSTORE SWAP1 ISZERO ISZERO SWAP2 DUP4 ADD SWAP2 SWAP1 SWAP2 MSTORE PUSH1 0x60 DUP3 ADD MSTORE PUSH1 0x80 ADD PUSH2 0x16A JUMP JUMPDEST PUSH2 0x160 PUSH2 0x384 CALLDATASIZE PUSH1 0x4 PUSH2 0x100B JUMP JUMPDEST PUSH0 SWAP1 DUP2 MSTORE PUSH1 0x20 DUP2 SWAP1 MSTORE PUSH1 0x40 SWAP1 KECCAK256 SLOAD SWAP1 JUMP JUMPDEST PUSH1 0x1 DUP1 SLOAD PUSH0 SWAP2 DUP3 SWAP2 SWAP1 DUP3 PUSH2 0x3A8 DUP4 PUSH2 0x1126 JUMP JUMPDEST SWAP1 SWAP2 SSTORE POP PUSH1 0x40 DUP1 MLOAD PUSH1 0x80 DUP2 ADD DUP3 MSTORE DUP6 DUP2 MSTORE CALLER PUSH1 0x20 DUP1 DUP4 ADD DUP3 DUP2 MSTORE PUSH0 DUP5 DUP7 ADD DUP2 DUP2 MSTORE TIMESTAMP PUSH1 0x60 DUP8 ADD SWAP1 DUP2 MSTORE DUP9 DUP4 MSTORE SWAP4 DUP3 SWAP1 MSTORE DUP7 DUP3 KECCAK256 SWAP6 MLOAD DUP7 SSTORE SWAP2 MLOAD PUSH1 0x1 DUP7 ADD DUP1 SLOAD SWAP4 MLOAD ISZERO ISZERO PUSH1 0x1 PUSH1 0xA0 SHL MUL PUSH21 0xFFFFFFFFFFFFFFFFFFFFFFFFFFFFFFFFFFFFFFFFFF NOT SWAP1 SWAP5 AND PUSH1 0x1 PUSH1 0x1 PUSH1 0xA0 SHL SUB SWAP3 SWAP1 SWAP3 AND SWAP2 SWAP1 SWAP2 OR SWAP3 SWAP1 SWAP3 OR SWAP1 SWAP2 SSTORE SWAP1 MLOAD PUSH1 0x2 SWAP1 SWAP4 ADD SWAP3 SWAP1 SWAP3 SSTORE SWAP2 MLOAD SWAP3 SWAP4 POP SWAP1 SWAP2 DUP4 SWAP2 PUSH32 0xF7DEC00C9769E187F974C5680013B322249FBEB5AEE20609E5116201219D2FE8 SWAP2 LOG3 SWAP3 SWAP2 POP POP JUMP JUMPDEST PUSH0 PUSH1 0x1 SLOAD DUP3 LT PUSH2 0x4A8 JUMPI PUSH1 0x40 MLOAD PUSH3 0x461BCD PUSH1 0xE5 SHL DUP2 MSTORE PUSH1 0x20 PUSH1 0x4 DUP3 ADD MSTORE PUSH1 0xF PUSH1 0x24 DUP3 ADD MSTORE PUSH15 0x125B9D985B1A590819185D18481251 PUSH1 0x8A SHL PUSH1 0x44 DUP3 ADD MSTORE PUSH1 0x64 ADD JUMPDEST PUSH1 0x40 MLOAD DUP1 SWAP2 SUB SWAP1 REVERT JUMPDEST PUSH0 DUP3 DUP2 MSTORE PUSH1 0x20 DUP2 DUP2 MSTORE PUSH1 0x40 SWAP2 DUP3 SWAP1 KECCAK256 DUP3 MLOAD PUSH1 0x80 DUP2 ADD DUP5 MSTORE DUP2 SLOAD DUP2 MSTORE PUSH1 0x1 DUP3 ADD SLOAD PUSH1 0x1 PUSH1 0x1 PUSH1 0xA0 SHL SUB DUP2 AND SWAP4 DUP3 ADD DUP5 SWAP1 MSTORE PUSH1 0x1 PUSH1 0xA0 SHL SWAP1 DIV PUSH1 0xFF AND ISZERO ISZERO SWAP4 DUP2 ADD SWAP4 SWAP1 SWAP4 MSTORE PUSH1 0x2 ADD SLOAD PUSH1 0x60 DUP4 ADD MSTORE CALLER EQ PUSH2 0x542 JUMPI PUSH1 0x40 MLOAD PUSH3 0x461BCD PUSH1 0xE5 SHL DUP2 MSTORE PUSH1 0x20 PUSH1 0x4 DUP3 ADD MSTORE PUSH1 0x16 PUSH1 0x24 DUP3 ADD MSTORE PUSH32 0x4F6E6C79206F776E65722063616E206465637279707400000000000000000000 PUSH1 0x44 DUP3 ADD MSTORE PUSH1 0x64 ADD PUSH2 0x49F JUMP JUMPDEST MLOAD SWAP3 SWAP2 POP POP JUMP JUMPDEST PUSH0 PUSH1 0x1 SLOAD DUP3 LT PUSH2 0x58D JUMPI PUSH1 0x40 MLOAD PUSH3 0x461BCD PUSH1 0xE5 SHL DUP2 MSTORE PUSH1 0x20 PUSH1 0x4 DUP3 ADD MSTORE PUSH1 0xF PUSH1 0x24 DUP3 ADD MSTORE PUSH15 0x125B9D985B1A590819185D18481251 PUSH1 0x8A SHL PUSH1 0x44 DUP3 ADD MSTORE PUSH1 0x64 ADD PUSH2 0x49F JUMP JUMPDEST PUSH0 DUP3 DUP2 MSTORE PUSH1 0x20 DUP2 DUP2 MSTORE PUSH1 0x40 SWAP2 DUP3 SWAP1 KECCAK256 DUP3 MLOAD PUSH1 0x80 DUP2 ADD DUP5 MSTORE DUP2 SLOAD DUP2 MSTORE PUSH1 0x1 DUP3 ADD SLOAD PUSH1 0x1 PUSH1 0x1 PUSH1 0xA0 SHL SUB DUP2 AND SWAP4 DUP3 ADD DUP5 SWAP1 MSTORE PUSH1 0x1 PUSH1 0xA0 SHL SWAP1 DIV PUSH1 0xFF AND ISZERO ISZERO SWAP4 DUP2 ADD SWAP4 SWAP1 SWAP4 MSTORE PUSH1 0x2 ADD SLOAD PUSH1 0x60 DUP4 ADD MSTORE CALLER EQ DUP1 PUSH2 0x5F3 JUMPI POP PUSH0 DUP4 DUP2 MSTORE PUSH1 0x2 PUSH1 0x20 MSTORE PUSH1 0x40 SWAP1 KECCAK256 SLOAD PUSH1 0xFF AND JUMPDEST PUSH2 0x542 JUMPI PUSH1 0x40 MLOAD PUSH3 0x461BCD PUSH1 0xE5 SHL DUP2 MSTORE PUSH1 0x20 PUSH1 0x4 DUP3 ADD MSTORE PUSH1 0xD PUSH1 0x24 DUP3 ADD MSTORE PUSH32 0x4163636573732064656E69656400000000000000000000000000000000000000 PUSH1 0x44 DUP3 ADD MSTORE PUSH1 0x64 ADD PUSH2 0x49F JUMP JUMPDEST PUSH1 0x1 SLOAD DUP2 LT PUSH2 0x682 JUMPI PUSH1 0x40 MLOAD PUSH3 0x461BCD PUSH1 0xE5 SHL DUP2 MSTORE PUSH1 0x20 PUSH1 0x4 DUP3 ADD MSTORE PUSH1 0xF PUSH1 0x24 DUP3 ADD MSTORE PUSH15 0x125B9D985B1A590819185D18481251 PUSH1 0x8A SHL PUSH1 0x44 DUP3 ADD MSTORE PUSH1 0x64 ADD PUSH2 0x49F JUMP JUMPDEST PUSH0 DUP2 DUP2 MSTORE PUSH1 0x20 DUP2 SWAP1 MSTORE PUSH1 0x40 SWAP1 KECCAK256 PUSH1 0x1 DUP2 ADD SLOAD PUSH1 0x1 PUSH1 0x1 PUSH1 0xA0 SHL SUB AND CALLER EQ PUSH2 0x6D8 JUMPI PUSH1 0x40 MLOAD PUSH3 0x461BCD PUSH1 0xE5 SHL DUP2 MSTORE PUSH1 0x20 PUSH1 0x4 DUP3 ADD MSTORE PUSH1 0xA PUSH1 0x24 DUP3 ADD MSTORE PUSH10 0x27B7363C9037BBB732B9 PUSH1 0xB1 SHL PUSH1 0x44 DUP3 ADD MSTORE PUSH1 0x64 ADD PUSH2 0x49F JUMP JUMPDEST PUSH1 0x1 DUP2 ADD SLOAD PUSH1 0x1 PUSH1 0xA0 SHL SWAP1 DIV PUSH1 0xFF AND PUSH2 0x733 JUMPI PUSH1 0x40 MLOAD PUSH3 0x461BCD PUSH1 0xE5 SHL DUP2 MSTORE PUSH1 0x20 PUSH1 0x4 DUP3 ADD DUP2 SWAP1 MSTORE PUSH1 0x24 DUP3 ADD MSTORE PUSH32 0x4E6F74206D61726B656420666F72207075626C69632064656372797074696F6E PUSH1 0x44 DUP3 ADD MSTORE PUSH1 0x64 ADD PUSH2 0x49F JUMP JUMPDEST PUSH0 DUP3 DUP2 MSTORE PUSH1 0x2 PUSH1 0x20 MSTORE PUSH1 0x40 DUP1 DUP3 KECCAK256 DUP1 SLOAD PUSH1 0xFF NOT AND PUSH1 0x1 OR SWAP1 SSTORE MLOAD DUP4 SWAP2 PUSH32 0x83B37A1020ABCC6980FE0F2B454C7527B0528338CC24D5FAD7C7564250D73FF1 SWAP2 LOG2 POP POP JUMP JUMPDEST PUSH1 0x40 DUP1 MLOAD PUSH1 0x80 DUP2 ADD DUP3 MSTORE PUSH0 DUP1 DUP3 MSTORE PUSH1 0x20 DUP3 ADD DUP2 SWAP1 MSTORE SWAP2 DUP2 ADD DUP3 SWAP1 MSTORE PUSH1 0x60 DUP2 ADD SWAP2 SWAP1 SWAP2 MSTORE PUSH1 0x1 SLOAD DUP3 LT PUSH2 0x7DC JUMPI PUSH1 0x40 MLOAD PUSH3 0x461BCD PUSH1 0xE5 SHL DUP2 MSTORE PUSH1 0x20 PUSH1 0x4 DUP3 ADD MSTORE PUSH1 0xF PUSH1 0x24 DUP3 ADD MSTORE PUSH15 0x125B9D985B1A590819185D18481251 PUSH1 0x8A SHL PUSH1 0x44 DUP3 ADD MSTORE PUSH1 0x64 ADD PUSH2 0x49F JUMP JUMPDEST POP PUSH0 SWAP1 DUP2 MSTORE PUSH1 0x20 DUP2 DUP2 MSTORE PUSH1 0x40 SWAP2 DUP3 SWAP1 KECCAK256 DUP3 MLOAD PUSH1 0x80 DUP2 ADD DUP5 MSTORE DUP2 SLOAD DUP2 MSTORE PUSH1 0x1 DUP3 ADD SLOAD PUSH1 0x1 PUSH1 0x1 PUSH1 0xA0 SHL SUB DUP2 AND SWAP4 DUP3 ADD SWAP4 SWAP1 SWAP4 MSTORE PUSH1 0x1 PUSH1 0xA0 SHL SWAP1 SWAP3 DIV PUSH1 0xFF AND ISZERO ISZERO SWAP3 DUP3 ADD SWAP3 SWAP1 SWAP3 MSTORE PUSH1 0x2 SWAP1 SWAP2 ADD SLOAD PUSH1 0x60 DUP3 ADD MSTORE SWAP1 JUMP JUMPDEST PUSH1 0x1 SLOAD DUP3 LT PUSH2 0x873 JUMPI PUSH1 0x40 MLOAD PUSH3 0x461BCD PUSH1 0xE5 SHL DUP2 MSTORE PUSH1 0x20 PUSH1 0x4 DUP3 ADD MSTORE PUSH1 0xF PUSH1 0x24 DUP3 ADD MSTORE PUSH15 0x125B9D985B1A590819185D18481251 PUSH1 0x8A SHL PUSH1 0x44 DUP3 ADD MSTORE PUSH1 0x64 ADD PUSH2 0x49F JUMP JUMPDEST PUSH0 DUP3 DUP2 MSTORE PUSH1 0x2 PUSH1 0x20 MSTORE PUSH1 0x40 SWAP1 KECCAK256 SLOAD PUSH1 0xFF AND PUSH2 0x8D0 JUMPI PUSH1 0x40 MLOAD PUSH3 0x461BCD PUSH1 0xE5 SHL DUP2 MSTORE PUSH1 0x20 PUSH1 0x4 DUP3 ADD MSTORE PUSH1 0x18 PUSH1 0x24 DUP3 ADD MSTORE PUSH32 0x44656372797074696F6E206E6F74207265717565737465640000000000000000 PUSH1 0x44 DUP3 ADD MSTORE PUSH1 0x64 ADD PUSH2 0x49F JUMP JUMPDEST DUP2 PUSH32 0x705659A462BC418D826EC06DBBBB2AD8D880E907A1750352A7F51059D8E51844 DUP3 PUSH1 0x40 MLOAD PUSH2 0x902 SWAP2 DUP2 MSTORE PUSH1 0x20 ADD SWAP1 JUMP JUMPDEST PUSH1 0x40 MLOAD DUP1 SWAP2 SUB SWAP1 LOG2 POP POP JUMP JUMPDEST PUSH0 PUSH1 0x1 SLOAD DUP3 LT PUSH2 0x91F JUMPI POP PUSH0 SWAP2 SWAP1 POP JUMP JUMPDEST POP PUSH0 SWAP1 DUP2 MSTORE PUSH1 0x2 PUSH1 0x20 MSTORE PUSH1 0x40 SWAP1 KECCAK256 SLOAD PUSH1 0xFF AND SWAP1 JUMP JUMPDEST PUSH0 PUSH1 0x1 SLOAD DUP3 LT PUSH2 0x945 JUMPI POP PUSH0 SWAP2 SWAP1 POP JUMP JUMPDEST POP PUSH0 SWAP1 DUP2 MSTORE PUSH1 0x20 DUP2 SWAP1 MSTORE PUSH1 0x40 SWAP1 KECCAK256 PUSH1 0x1 ADD SLOAD PUSH1 0x1 PUSH1 0x1 PUSH1 0xA0 SHL SUB AND CALLER EQ SWAP1 JUMP JUMPDEST PUSH1 0x60 PUSH0 DUP3 PUSH8 0xFFFFFFFFFFFFFFFF DUP2 GT ISZERO PUSH2 0x981 JUMPI PUSH2 0x981 PUSH2 0x114A JUMP JUMPDEST PUSH1 0x40 MLOAD SWAP1 DUP1 DUP3 MSTORE DUP1 PUSH1 0x20 MUL PUSH1 0x20 ADD DUP3 ADD PUSH1 0x40 MSTORE DUP1 ISZERO PUSH2 0x9AA JUMPI DUP2 PUSH1 0x20 ADD PUSH1 0x20 DUP3 MUL DUP1 CALLDATASIZE DUP4 CALLDATACOPY ADD SWAP1 POP JUMPDEST POP SWAP1 POP PUSH0 JUMPDEST DUP4 DUP2 LT ISZERO PUSH2 0xAF9 JUMPI PUSH1 0x1 SLOAD DUP6 DUP6 DUP4 DUP2 DUP2 LT PUSH2 0x9CC JUMPI PUSH2 0x9CC PUSH2 0x115E JUMP JUMPDEST SWAP1 POP PUSH1 0x20 MUL ADD CALLDATALOAD LT PUSH2 0xA12 JUMPI PUSH1 0x40 MLOAD PUSH3 0x461BCD PUSH1 0xE5 SHL DUP2 MSTORE PUSH1 0x20 PUSH1 0x4 DUP3 ADD MSTORE PUSH1 0xF PUSH1 0x24 DUP3 ADD MSTORE PUSH15 0x125B9D985B1A590819185D18481251 PUSH1 0x8A SHL PUSH1 0x44 DUP3 ADD MSTORE PUSH1 0x64 ADD PUSH2 0x49F JUMP JUMPDEST PUSH0 DUP1 PUSH0 DUP8 DUP8 DUP6 DUP2 DUP2 LT PUSH2 0xA27 JUMPI PUSH2 0xA27 PUSH2 0x115E JUMP JUMPDEST PUSH1 0x20 SWAP1 DUP2 MUL SWAP3 SWAP1 SWAP3 ADD CALLDATALOAD DUP4 MSTORE POP DUP2 DUP2 ADD SWAP3 SWAP1 SWAP3 MSTORE PUSH1 0x40 SWAP1 DUP2 ADD PUSH0 KECCAK256 DUP2 MLOAD PUSH1 0x80 DUP2 ADD DUP4 MSTORE DUP2 SLOAD DUP2 MSTORE PUSH1 0x1 DUP3 ADD SLOAD PUSH1 0x1 PUSH1 0x1 PUSH1 0xA0 SHL SUB DUP2 AND SWAP5 DUP3 ADD DUP6 SWAP1 MSTORE PUSH1 0x1 PUSH1 0xA0 SHL SWAP1 DIV PUSH1 0xFF AND ISZERO ISZERO SWAP3 DUP2 ADD SWAP3 SWAP1 SWAP3 MSTORE PUSH1 0x2 ADD SLOAD PUSH1 0x60 DUP3 ADD MSTORE SWAP2 POP CALLER EQ PUSH2 0xACF JUMPI PUSH1 0x40 MLOAD PUSH3 0x461BCD PUSH1 0xE5 SHL DUP2 MSTORE PUSH1 0x20 PUSH1 0x4 DUP3 ADD MSTORE PUSH1 0x16 PUSH1 0x24 DUP3 ADD MSTORE PUSH32 0x4F6E6C79206F776E65722063616E206465637279707400000000000000000000 PUSH1 0x44 DUP3 ADD MSTORE PUSH1 0x64 ADD PUSH2 0x49F JUMP JUMPDEST DUP1 PUSH0 ADD MLOAD DUP4 DUP4 DUP2 MLOAD DUP2 LT PUSH2 0xAE5 JUMPI PUSH2 0xAE5 PUSH2 0x115E JUMP JUMPDEST PUSH1 0x20 SWAP1 DUP2 MUL SWAP2 SWAP1 SWAP2 ADD ADD MSTORE POP PUSH1 0x1 ADD PUSH2 0x9AF JUMP JUMPDEST POP SWAP4 SWAP3 POP POP POP JUMP JUMPDEST PUSH0 PUSH1 0x1 SLOAD DUP3 LT PUSH2 0xB45 JUMPI PUSH1 0x40 MLOAD PUSH3 0x461BCD PUSH1 0xE5 SHL DUP2 MSTORE PUSH1 0x20 PUSH1 0x4 DUP3 ADD MSTORE PUSH1 0xF PUSH1 0x24 DUP3 ADD MSTORE PUSH15 0x125B9D985B1A590819185D18481251 PUSH1 0x8A SHL PUSH1 0x44 DUP3 ADD MSTORE PUSH1 0x64 ADD PUSH2 0x49F JUMP JUMPDEST PUSH0 DUP3 DUP2 MSTORE PUSH1 0x2 PUSH1 0x20 MSTORE PUSH1 0x40 SWAP1 KECCAK256 SLOAD PUSH1 0xFF AND PUSH2 0xBA2 JUMPI PUSH1 0x40 MLOAD PUSH3 0x461BCD PUSH1 0xE5 SHL DUP2 MSTORE PUSH1 0x20 PUSH1 0x4 DUP3 ADD MSTORE PUSH1 0x1D PUSH1 0x24 DUP3 ADD MSTORE PUSH32 0x5075626C69632064656372797074696F6E206E6F7420656E61626C6564000000 PUSH1 0x44 DUP3 ADD MSTORE PUSH1 0x64 ADD PUSH2 0x49F JUMP JUMPDEST POP PUSH0 SWAP1 DUP2 MSTORE PUSH1 0x20 DUP2 DUP2 MSTORE PUSH1 0x40 SWAP2 DUP3 SWAP1 KECCAK256 DUP3 MLOAD PUSH1 0x80 DUP2 ADD DUP5 MSTORE DUP2 SLOAD DUP1 DUP3 MSTORE PUSH1 0x1 DUP4 ADD SLOAD PUSH1 0x1 PUSH1 0x1 PUSH1 0xA0 SHL SUB DUP2 AND SWAP5 DUP4 ADD SWAP5 SWAP1 SWAP5 MSTORE PUSH1 0x1 PUSH1 0xA0 SHL SWAP1 SWAP4 DIV PUSH1 0xFF AND ISZERO ISZERO SWAP4 DUP2 ADD SWAP4 SWAP1 SWAP4 MSTORE PUSH1 0x2 ADD SLOAD PUSH1 0x60 SWAP1 SWAP3 ADD SWAP2 SWAP1 SWAP2 MSTORE SWAP1 JUMP JUMPDEST PUSH1 0x1 SLOAD DUP3 LT PUSH2 0xC3C JUMPI PUSH1 0x40 MLOAD PUSH3 0x461BCD PUSH1 0xE5 SHL DUP2 MSTORE PUSH1 0x20 PUSH1 0x4 DUP3 ADD MSTORE PUSH1 0xF PUSH1 0x24 DUP3 ADD MSTORE PUSH15 0x125B9D985B1A590819185D18481251 PUSH1 0x8A SHL PUSH1 0x44 DUP3 ADD MSTORE PUSH1 0x64 ADD PUSH2 0x49F JUMP JUMPDEST PUSH0 DUP3 DUP2 MSTORE PUSH1 0x20 DUP2 SWAP1 MSTORE PUSH1 0x40 SWAP1 KECCAK256 PUSH1 0x1 DUP2 ADD SLOAD PUSH1 0x1 PUSH1 0x1 PUSH1 0xA0 SHL SUB AND CALLER EQ PUSH2 0xC92 JUMPI PUSH1 0x40 MLOAD PUSH3 0x461BCD PUSH1 0xE5 SHL DUP2 MSTORE PUSH1 0x20 PUSH1 0x4 DUP3 ADD MSTORE PUSH1 0xA PUSH1 0x24 DUP3 ADD MSTORE PUSH10 0x27B7363C9037BBB732B9 PUSH1 0xB1 SHL PUSH1 0x44 DUP3 ADD MSTORE PUSH1 0x64 ADD PUSH2 0x49F JUMP JUMPDEST DUP2 PUSH2 0xCDF JUMPI PUSH1 0x40 MLOAD PUSH3 0x461BCD PUSH1 0xE5 SHL DUP2 MSTORE PUSH1 0x20 PUSH1 0x4 DUP3 ADD MSTORE PUSH1 0x11 PUSH1 0x24 DUP3 ADD MSTORE PUSH32 0x436F6E646974696F6E206E6F74206D6574000000000000000000000000000000 PUSH1 0x44 DUP3 ADD MSTORE PUSH1 0x64 ADD PUSH2 0x49F JUMP JUMPDEST PUSH1 0x1 DUP2 ADD SLOAD PUSH1 0x1 PUSH1 0xA0 SHL SWAP1 DIV PUSH1 0xFF AND PUSH2 0xD3A JUMPI PUSH1 0x40 MLOAD PUSH3 0x461BCD PUSH1 0xE5 SHL DUP2 MSTORE PUSH1 0x20 PUSH1 0x4 DUP3 ADD DUP2 SWAP1 MSTORE PUSH1 0x24 DUP3 ADD MSTORE PUSH32 0x4E6F74206D61726B656420666F72207075626C69632064656372797074696F6E PUSH1 0x44 DUP3 ADD MSTORE PUSH1 0x64 ADD PUSH2 0x49F JUMP JUMPDEST PUSH0 DUP4 DUP2 MSTORE PUSH1 0x2 PUSH1 0x20 MSTORE PUSH1 0x40 DUP1 DUP3 KECCAK256 DUP1 SLOAD PUSH1 0xFF NOT AND PUSH1 0x1 OR SWAP1 SSTORE MLOAD DUP5 SWAP2 PUSH32 0x83B37A1020ABCC6980FE0F2B454C7527B0528338CC24D5FAD7C7564250D73FF1 SWAP2 LOG2 POP POP POP JUMP JUMPDEST PUSH1 0x1 DUP1 SLOAD PUSH0 SWAP2 DUP3 SWAP2 SWAP1 DUP3 PUSH2 0xD91 DUP4 PUSH2 0x1126 JUMP JUMPDEST SWAP1 SWAP2 SSTORE POP PUSH1 0x40 DUP1 MLOAD PUSH1 0x80 DUP2 ADD DUP3 MSTORE DUP6 DUP2 MSTORE CALLER PUSH1 0x20 DUP1 DUP4 ADD DUP3 DUP2 MSTORE PUSH1 0x1 DUP5 DUP7 ADD DUP2 DUP2 MSTORE TIMESTAMP PUSH1 0x60 DUP8 ADD SWAP1 DUP2 MSTORE PUSH0 DUP10 DUP2 MSTORE SWAP5 DUP6 SWAP1 MSTORE DUP8 DUP6 KECCAK256 SWAP7 MLOAD DUP8 SSTORE SWAP3 MLOAD SWAP2 DUP7 ADD DUP1 SLOAD SWAP2 MLOAD ISZERO ISZERO PUSH1 0x1 PUSH1 0xA0 SHL MUL PUSH21 0xFFFFFFFFFFFFFFFFFFFFFFFFFFFFFFFFFFFFFFFFFF NOT SWAP1 SWAP3 AND PUSH1 0x1 PUSH1 0x1 PUSH1 0xA0 SHL SUB SWAP4 SWAP1 SWAP4 AND SWAP3 SWAP1 SWAP3 OR OR SWAP1 SSTORE MLOAD PUSH1 0x2 SWAP1 SWAP4 ADD SWAP3 SWAP1 SWAP3 SSTORE SWAP2 MLOAD SWAP3 SWAP4 POP SWAP1 SWAP2 DUP4 SWAP2 PUSH32 0xF7DEC00C9769E187F974C5680013B322249FBEB5AEE20609E5116201219D2FE8 SWAP2 LOG3 SWAP3 SWAP2 POP POP JUMP JUMPDEST PUSH1 0x60 PUSH0 DUP3 PUSH8 0xFFFFFFFFFFFFFFFF DUP2 GT ISZERO PUSH2 0xE60 JUMPI PUSH2 0xE60 PUSH2 0x114A JUMP JUMPDEST PUSH1 0x40 MLOAD SWAP1 DUP1 DUP3 MSTORE DUP1 PUSH1 0x20 MUL PUSH1 0x20 ADD DUP3 ADD PUSH1 0x40 MSTORE DUP1 ISZERO PUSH2 0xE89 JUMPI DUP2 PUSH1 0x20 ADD PUSH1 0x20 DUP3 MUL DUP1 CALLDATASIZE DUP4 CALLDATACOPY ADD SWAP1 POP JUMPDEST POP SWAP1 POP PUSH0 JUMPDEST DUP4 DUP2 LT ISZERO PUSH2 0xAF9 JUMPI PUSH1 0x1 SLOAD DUP6 DUP6 DUP4 DUP2 DUP2 LT PUSH2 0xEAB JUMPI PUSH2 0xEAB PUSH2 0x115E JUMP JUMPDEST SWAP1 POP PUSH1 0x20 MUL ADD CALLDATALOAD LT PUSH2 0xEF1 JUMPI PUSH1 0x40 MLOAD PUSH3 0x461BCD PUSH1 0xE5 SHL DUP2 MSTORE PUSH1 0x20 PUSH1 0x4 DUP3 ADD MSTORE PUSH1 0xF PUSH1 0x24 DUP3 ADD MSTORE PUSH15 0x125B9D985B1A590819185D18481251 PUSH1 0x8A SHL PUSH1 0x44 DUP3 ADD MSTORE PUSH1 0x64 ADD PUSH2 0x49F JUMP JUMPDEST PUSH1 0x2 PUSH0 DUP7 DUP7 DUP5 DUP2 DUP2 LT PUSH2 0xF06 JUMPI PUSH2 0xF06 PUSH2 0x115E JUMP JUMPDEST PUSH1 0x20 SWAP1 DUP2 MUL SWAP3 SWAP1 SWAP3 ADD CALLDATALOAD DUP4 MSTORE POP DUP2 ADD SWAP2 SWAP1 SWAP2 MSTORE PUSH1 0x40 ADD PUSH0 KECCAK256 SLOAD PUSH1 0xFF AND PUSH2 0xF6E JUMPI PUSH1 0x40 MLOAD PUSH3 0x461BCD PUSH1 0xE5 SHL DUP2 MSTORE PUSH1 0x20 PUSH1 0x4 DUP3 ADD MSTORE PUSH1 0xB PUSH1 0x24 DUP3 ADD MSTORE PUSH32 0x4E6F7420656E61626C6564000000000000000000000000000000000000000000 PUSH1 0x44 DUP3 ADD MSTORE PUSH1 0x64 ADD PUSH2 0x49F JUMP JUMPDEST PUSH0 DUP1 DUP7 DUP7 DUP5 DUP2 DUP2 LT PUSH2 0xF82 JUMPI PUSH2 0xF82 PUSH2 0x115E JUMP JUMPDEST SWAP1 POP PUSH1 0x20 MUL ADD CALLDATALOAD DUP2 MSTORE PUSH1 0x20 ADD SWAP1 DUP2 MSTORE PUSH1 0x20 ADD PUSH0 KECCAK256 PUSH0 ADD SLOAD DUP3 DUP3 DUP2 MLOAD DUP2 LT PUSH2 0xFAB JUMPI PUSH2 0xFAB PUSH2 0x115E JUMP JUMPDEST PUSH1 0x20 SWAP1 DUP2 MUL SWAP2 SWAP1 SWAP2 ADD ADD MSTORE PUSH1 0x1 ADD PUSH2 0xE8E JUMP JUMPDEST PUSH0 PUSH1 0x1 SLOAD DUP4 LT PUSH2 0x1002 JUMPI PUSH1 0x40 MLOAD PUSH3 0x461BCD PUSH1 0xE5 SHL DUP2 MSTORE PUSH1 0x20 PUSH1 0x4 DUP3 ADD MSTORE PUSH1 0xF PUSH1 0x24 DUP3 ADD MSTORE PUSH15 0x125B9D985B1A590819185D18481251 PUSH1 0x8A SHL PUSH1 0x44 DUP3 ADD MSTORE PUSH1 0x64 ADD PUSH2 0x49F JUMP JUMPDEST POP TIMESTAMP LT ISZERO SWAP2 SWAP1 POP JUMP JUMPDEST PUSH0 PUSH1 0x20 DUP3 DUP5 SUB SLT ISZERO PUSH2 0x101B JUMPI PUSH0 DUP1 REVERT JUMPDEST POP CALLDATALOAD SWAP2 SWAP1 POP JUMP JUMPDEST PUSH0 DUP1 PUSH1 0x40 DUP4 DUP6 SUB SLT ISZERO PUSH2 0x1033 JUMPI PUSH0 DUP1 REVERT JUMPDEST POP POP DUP1 CALLDATALOAD SWAP3 PUSH1 0x20 SWAP1 SWAP2 ADD CALLDATALOAD SWAP2 POP JUMP JUMPDEST PUSH0 DUP1 PUSH1 0x20 DUP4 DUP6 SUB SLT ISZERO PUSH2 0x1053 JUMPI PUSH0 DUP1 REVERT JUMPDEST DUP3 CALLDATALOAD PUSH8 0xFFFFFFFFFFFFFFFF DUP1 DUP3 GT ISZERO PUSH2 0x106A JUMPI PUSH0 DUP1 REVERT JUMPDEST DUP2 DUP6 ADD SWAP2 POP DUP6 PUSH1 0x1F DUP4 ADD SLT PUSH2 0x107D JUMPI PUSH0 DUP1 REVERT JUMPDEST DUP2 CALLDATALOAD DUP2 DUP2 GT ISZERO PUSH2 0x108B JUMPI PUSH0 DUP1 REVERT JUMPDEST DUP7 PUSH1 0x20 DUP3 PUSH1 0x5 SHL DUP6 ADD ADD GT ISZERO PUSH2 0x109F JUMPI PUSH0 DUP1 REVERT JUMPDEST PUSH1 0x20 SWAP3 SWAP1 SWAP3 ADD SWAP7 SWAP2 SWAP6 POP SWAP1 SWAP4 POP POP POP POP JUMP JUMPDEST PUSH1 0x20 DUP1 DUP3 MSTORE DUP3 MLOAD DUP3 DUP3 ADD DUP2 SWAP1 MSTORE PUSH0 SWAP2 SWAP1 DUP5 DUP3 ADD SWAP1 PUSH1 0x40 DUP6 ADD SWAP1 DUP5 JUMPDEST DUP2 DUP2 LT ISZERO PUSH2 0x10E8 JUMPI DUP4 MLOAD DUP4 MSTORE SWAP3 DUP5 ADD SWAP3 SWAP2 DUP5 ADD SWAP2 PUSH1 0x1 ADD PUSH2 0x10CC JUMP JUMPDEST POP SWAP1 SWAP7 SWAP6 POP POP POP POP POP POP JUMP JUMPDEST PUSH0 DUP1 PUSH1 0x40 DUP4 DUP6 SUB SLT ISZERO PUSH2 0x1105 JUMPI PUSH0 DUP1 REVERT JUMPDEST DUP3 CALLDATALOAD SWAP2 POP PUSH1 0x20 DUP4 ADD CALLDATALOAD DUP1 ISZERO ISZERO DUP2 EQ PUSH2 0x111B JUMPI PUSH0 DUP1 REVERT JUMPDEST DUP1 SWAP2 POP POP SWAP3 POP SWAP3 SWAP1 POP JUMP JUMPDEST PUSH0 PUSH1 0x1 DUP3 ADD PUSH2 0x1143 JUMPI PUSH4 0x4E487B71 PUSH1 0xE0 SHL PUSH0 MSTORE PUSH1 0x11 PUSH1 0x4 MSTORE PUSH1 0x24 PUSH0 REVERT JUMPDEST POP PUSH1 0x1 ADD SWAP1 JUMP JUMPDEST PUSH4 0x4E487B71 PUSH1 0xE0 SHL PUSH0 MSTORE PUSH1 0x41 PUSH1 0x4 MSTORE PUSH1 0x24 PUSH0 REVERT JUMPDEST PUSH4 0x4E487B71 PUSH1 0xE0 SHL PUSH0 MSTORE PUSH1 0x32 PUSH1 0x4 MSTORE PUSH1 0x24 PUSH0 REVERT INVALID LOG2 PUSH5 0x6970667358 0x22 SLT KECCAK256 GT 0xF6 SWAP12 SMOD CODESIZE 0xC ISZERO SAR XOR DUP7 SWAP13 0xCE 0xEF SWAP3 0xD3 RETURNDATASIZE 0x27 0xAC DUP10 0xD9 LOG2 0xD BLOBBASEFEE SWAP14 PUSH7 0x581376D5FAA506 PUSH5 0x736F6C6343 STOP ADDMOD XOR STOP CALLER "},"methodIdentifiers":{"antiPatternDecryptInView(uint256)":"f03f3e36","antiPatternPublicDecryptedStorage(uint256,uint256)":"9393cff4","canDecryptAfterTime(uint256,uint256)":"e211ec70","canUserDecrypt(uint256)":"73fe6759","conditionalPublicReveal(uint256,bool)":"a08a975d","correctDecryptionPattern(uint256)":"31124238","decryptionRequested(uint256)":"223c3cd1","enablePublicDecryption(uint256)":"5ca97ab3","encryptedDataStore(uint256)":"ec112a05","getDataInfo(uint256)":"660d7649","isPubliclyDecryptable(uint256)":"6a3477c8","nextDataId()":"8b4ce2dd","oracleDecryptionCallback(uint256,uint256)":"672a1454","requestBatchPublicDecryption(uint256[])":"d3a239c0","requestBatchUserDecryption(uint256[])":"877c2883","requestPublicDecryption(uint256)":"97022c80","requestUserDecryption(uint256)":"2703aeb6","storePublicDecryptableData(bytes32)":"b2a70a54","storeUserDecryptableData(bytes32)":"02aaefc8"}}}}}