{"contracts/AccessControlExample.sol":{"AccessControlExample":{"abi":[{"inputs":[],"stateMutability":"nonpayable","type":"constructor"},{"anonymous":false,"inputs":[{"indexed":true,"internalType":"address","name":"user","type":"address"},{"indexed":false,"internalType":"bytes32","name":"encryptedValue","type":"bytes32"}],"name":"BalanceSet","type":"event"},{"anonymous":false,"inputs":[{"indexed":true,"internalType":"address","name":"owner","type":"address"},{"indexed":true,"internalType":"bytes32","name":"value","type":"bytes32"},{"indexed":true,"internalType":"address","name":"grantee","type":"address"}],"name":"PermissionGranted","type":"event"},{"anonymous":false,"inputs":[{"indexed":true,"internalType":"address","name":"owner","type":"address"},{"indexed":true,"internalType":"bytes32","name":"value","type":"bytes32"},{"indexed":true,"internalType":"address","name":"grantee","type":"address"}],"name":"PermissionRevoked","type":"event"},{"inputs":[{"internalType":"bytes32","name":"_encryptedValue","type":"bytes32"}],"name":"antiPatternNoAllowThis","outputs":[{"internalType":"bytes32","name":"","type":"bytes32"}],"stateMutability":"pure","type":"function"},{"inputs":[{"internalType":"address[]","name":"_recipients","type":"address[]"}],"name":"batchGrantAccess","outputs":[],"stateMutability":"nonpayable","type":"function"},{"inputs":[{"internalType":"bytes32","name":"_encryptedValue","type":"bytes32"}],"name":"correctPatternWithAllowThis","outputs":[{"internalType":"bytes32","name":"","type":"bytes32"}],"stateMutability":"pure","type":"function"},{"inputs":[{"internalType":"address","name":"_user","type":"address"}],"name":"getBalance","outputs":[{"internalType":"bytes32","name":"","type":"bytes32"}],"stateMutability":"view","type":"function"},{"inputs":[{"internalType":"address","name":"_recipient","type":"address"}],"name":"grantAccess","outputs":[],"stateMutability":"nonpayable","type":"function"},{"inputs":[{"internalType":"address","name":"_recipient","type":"address"}],"name":"grantTransientAccess","outputs":[],"stateMutability":"nonpayable","type":"function"},{"inputs":[{"internalType":"address","name":"_owner","type":"address"},{"internalType":"address","name":"_accessor","type":"address"}],"name":"hasPermission","outputs":[{"internalType":"bool","name":"","type":"bool"}],"stateMutability":"view","type":"function"},{"inputs":[],"name":"owner","outputs":[{"internalType":"address","name":"","type":"address"}],"stateMutability":"view","type":"function"},{"inputs":[{"internalType":"address","name":"_recipient","type":"address"}],"name":"revokeAccess","outputs":[],"stateMutability":"nonpayable","type":"function"},{"inputs":[{"internalType":"bytes32","name":"_encryptedBalance","type":"bytes32"}],"name":"setBalance","outputs":[],"stateMutability":"nonpayable","type":"function"},{"inputs":[{"internalType":"address","name":"_to","type":"address"},{"internalType":"bytes32","name":"_encryptedAmount","type":"bytes32"}],"name":"transfer","outputs":[],"stateMutability":"nonpayable","type":"function"}],"evm":{"bytecode":{"linkReferences":{},"object":"608060405234801561000f575f80fd5b50600280546001600160a01b03191633179055610aa38061002f5f395ff3fe608060405234801561000f575f80fd5b50600436106100c4575f3560e01c806385e685311161007d578063cd28c53f11610058578063cd28c53f14610167578063cde680411461017a578063f8b2cb4f1461019d575f80fd5b806385e68531146101295780638da5cb5b1461013c57806399b7f71d146100dd575f80fd5b80632a567354116100ad5780632a567354146100dd5780636a6e1cb3146101035780637d32e7bd14610116575f80fd5b80630ae5e739146100c8578063244e7341146100c8575b5f80fd5b6100db6100d636600461095a565b6101b0565b005b6100f06100eb36600461097a565b6102b9565b6040519081526020015b60405180910390f35b6100db610111366004610991565b610310565b6100db610124366004610a00565b6104c5565b6100db61013736600461095a565b610684565b60025461014f906001600160a01b031681565b6040516001600160a01b0390911681526020016100fa565b6100db61017536600461097a565b61073a565b61018d610188366004610a28565b6107a4565b60405190151581526020016100fa565b6100f06101ab36600461095a565b610838565b6001600160a01b0381166101ff5760405162461bcd60e51b8152602060048201526011602482015270125b9d985b1a59081c9958da5c1a595b9d607a1b60448201526064015b60405180910390fd5b335f9081526020819052604090205461024b5760405162461bcd60e51b815260206004820152600e60248201526d139bc818985b185b98d9481cd95d60921b60448201526064016101f6565b335f8181526020818152604080832054600180845282852082865284528285206001600160a01b0388168087529452828520805460ff191690911790559051909391928492917f4cf3e1e37593c051ae26cd388ef2937cec5af2f089064370aa2d47b79a6368719190a45050565b5f816040516020016102f39181527f6f7065726174696f6e0000000000000000000000000000000000000000000000602082015260290190565b604051602081830303815290604052805190602001209050919050565b335f9081526020819052604090205461035c5760405162461bcd60e51b815260206004820152600e60248201526d139bc818985b185b98d9481cd95d60921b60448201526064016101f6565b335f90815260208190526040812054905b828110156104bf575f84848381811061038857610388610a59565b905060200201602081019061039d919061095a565b6001600160a01b0316036103e75760405162461bcd60e51b8152602060048201526011602482015270125b9d985b1a59081c9958da5c1a595b9d607a1b60448201526064016101f6565b335f9081526001602081815260408084208685529091528220909186868581811061041457610414610a59565b9050602002016020810190610429919061095a565b6001600160a01b0316815260208101919091526040015f20805460ff191691151591909117905583838281811061046257610462610a59565b9050602002016020810190610477919061095a565b6001600160a01b031682336001600160a01b03167f4cf3e1e37593c051ae26cd388ef2937cec5af2f089064370aa2d47b79a63687160405160405180910390a460010161036d565b50505050565b6001600160a01b03821661050f5760405162461bcd60e51b8152602060048201526011602482015270125b9d985b1a59081c9958da5c1a595b9d607a1b60448201526064016101f6565b335f9081526020819052604090205461056a5760405162461bcd60e51b815260206004820152600a60248201527f4e6f2062616c616e63650000000000000000000000000000000000000000000060448201526064016101f6565b335f8181526020818152604080832080548251808501919091528083018790527f7472616e736665725f6f7574000000000000000000000000000000000000000060608201528251604c818303018152606c820184528051908501206001600160a01b03989098168086528585528386208054608c84015260ac8301989098527f7472616e736665725f696e00000000000000000000000000000000000000000060cc830152835160b781840301815260d7909201845281519185019190912091889055958190558484526001808452828520978552968352818420948452938252808320805460ff1990811688179091558584528683528184209484529382528083209483529390529190912080549091169091179055565b335f908152602081905260409020546106d05760405162461bcd60e51b815260206004820152600e60248201526d139bc818985b185b98d9481cd95d60921b60448201526064016101f6565b335f81815260208181526040808320546001835281842081855283528184206001600160a01b0387168086529352818420805460ff191690559051909391928492917f8528861abdfa203f91afaa99405f2267859f7cdf846752a81913fe8ab2fe47209190a45050565b335f8181526020818152604080832085905560018083528184208685528352818420858552835292819020805460ff191690931790925590518381527f446cfec53a4a78b8fa882db0c3c72a366ae7d58c7598773afc0e1d4c81d5797b910160405180910390a250565b6001600160a01b0382165f90815260208190526040812054806107ca575f915050610832565b6001600160a01b038085165f90815260016020908152604080832085845282528083209387168352929052205460ff16806108165750836001600160a01b0316836001600160a01b0316145b8061082e57506002546001600160a01b038481169116145b9150505b92915050565b6001600160a01b0381165f908152602081905260408120548061089d5760405162461bcd60e51b815260206004820152601060248201527f4e6f2062616c616e636520666f756e640000000000000000000000000000000060448201526064016101f6565b6001600160a01b0383165f908152600160209081526040808320848452825280832033845290915290205460ff16806108de5750336001600160a01b038416145b806108f357506002546001600160a01b031633145b6108325760405162461bcd60e51b815260206004820152600d60248201527f4163636573732064656e6965640000000000000000000000000000000000000060448201526064016101f6565b80356001600160a01b0381168114610955575f80fd5b919050565b5f6020828403121561096a575f80fd5b6109738261093f565b9392505050565b5f6020828403121561098a575f80fd5b5035919050565b5f80602083850312156109a2575f80fd5b823567ffffffffffffffff808211156109b9575f80fd5b818501915085601f8301126109cc575f80fd5b8135818111156109da575f80fd5b8660208260051b85010111156109ee575f80fd5b60209290920196919550909350505050565b5f8060408385031215610a11575f80fd5b610a1a8361093f565b946020939093013593505050565b5f8060408385031215610a39575f80fd5b610a428361093f565b9150610a506020840161093f565b90509250929050565b634e487b7160e01b5f52603260045260245ffdfea264697066735822122018eae4a9c681e38c554712aeffeee02c1ebedbd419426d0fdba0d3385255357f64736f6c63430008180033","opcodes":"PUSH1 0x80 PUSH1 0x40 MSTORE CALLVALUE DUP1 ISZERO PUSH2 0xF JUMPI PUSH0 DUP1 REVERT JUMPDEST POP PUSH1 0x2 DUP1 SLOAD PUSH1 0x1 PUSH1 0x1 PUSH1 0xA0 SHL SUB NOT AND CALLER OR SWAP1 SSTORE PUSH2 0xAA3 DUP1 PUSH2 0x2F PUSH0 CODECOPY PUSH0 RETURN INVALID PUSH1 0x80 PUSH1 0x40 MSTORE CALLVALUE DUP1 ISZERO PUSH2 0xF JUMPI PUSH0 DUP1 REVERT JUMPDEST POP PUSH1 0x4 CALLDATASIZE LT PUSH2 0xC4 JUMPI PUSH0 CALLDATALOAD PUSH1 0xE0 SHR DUP1 PUSH4 0x85E68531 GT PUSH2 0x7D JUMPI DUP1 PUSH4 0xCD28C53F GT PUSH2 0x58 JUMPI DUP1 PUSH4 0xCD28C53F EQ PUSH2 0x167 JUMPI DUP1 PUSH4 0xCDE68041 EQ PUSH2 0x17A JUMPI DUP1 PUSH4 0xF8B2CB4F EQ PUSH2 0x19D JUMPI PUSH0 DUP1 REVERT JUMPDEST DUP1 PUSH4 0x85E68531 EQ PUSH2 0x129 JUMPI DUP1 PUSH4 0x8DA5CB5B EQ PUSH2 0x13C JUMPI DUP1 PUSH4 0x99B7F71D EQ PUSH2 0xDD JUMPI PUSH0 DUP1 REVERT JUMPDEST DUP1 PUSH4 0x2A567354 GT PUSH2 0xAD JUMPI DUP1 PUSH4 0x2A567354 EQ PUSH2 0xDD JUMPI DUP1 PUSH4 0x6A6E1CB3 EQ PUSH2 0x103 JUMPI DUP1 PUSH4 0x7D32E7BD EQ PUSH2 0x116 JUMPI PUSH0 DUP1 REVERT JUMPDEST DUP1 PUSH4 0xAE5E739 EQ PUSH2 0xC8 JUMPI DUP1 PUSH4 0x244E7341 EQ PUSH2 0xC8 JUMPI JUMPDEST PUSH0 DUP1 REVERT JUMPDEST PUSH2 0xDB PUSH2 0xD6 CALLDATASIZE PUSH1 0x4 PUSH2 0x95A JUMP JUMPDEST PUSH2 0x1B0 JUMP JUMPDEST STOP JUMPDEST PUSH2 0xF0 PUSH2 0xEB CALLDATASIZE PUSH1 0x4 PUSH2 0x97A JUMP JUMPDEST PUSH2 0x2B9 JUMP JUMPDEST PUSH1 0x40 MLOAD SWAP1 DUP2 MSTORE PUSH1 0x20 ADD JUMPDEST PUSH1 0x40 MLOAD DUP1 SWAP2 SUB SWAP1 RETURN JUMPDEST PUSH2 0xDB PUSH2 0x111 CALLDATASIZE PUSH1 0x4 PUSH2 0x991 JUMP JUMPDEST PUSH2 0x310 JUMP JUMPDEST PUSH2 0xDB PUSH2 0x124 CALLDATASIZE PUSH1 0x4 PUSH2 0xA00 JUMP JUMPDEST PUSH2 0x4C5 JUMP JUMPDEST PUSH2 0xDB PUSH2 0x137 CALLDATASIZE PUSH1 0x4 PUSH2 0x95A JUMP JUMPDEST PUSH2 0x684 JUMP JUMPDEST PUSH1 0x2 SLOAD PUSH2 0x14F SWAP1 PUSH1 0x1 PUSH1 0x1 PUSH1 0xA0 SHL SUB AND DUP2 JUMP JUMPDEST PUSH1 0x40 MLOAD PUSH1 0x1 PUSH1 0x1 PUSH1 0xA0 SHL SUB SWAP1 SWAP2 AND DUP2 MSTORE PUSH1 0x20 ADD PUSH2 0xFA JUMP JUMPDEST PUSH2 0xDB PUSH2 0x175 CALLDATASIZE PUSH1 0x4 PUSH2 0x97A JUMP JUMPDEST PUSH2 0x73A JUMP JUMPDEST PUSH2 0x18D PUSH2 0x188 CALLDATASIZE PUSH1 0x4 PUSH2 0xA28 JUMP JUMPDEST PUSH2 0x7A4 JUMP JUMPDEST PUSH1 0x40 MLOAD SWAP1 ISZERO ISZERO DUP2 MSTORE PUSH1 0x20 ADD PUSH2 0xFA JUMP JUMPDEST PUSH2 0xF0 PUSH2 0x1AB CALLDATASIZE PUSH1 0x4 PUSH2 0x95A JUMP JUMPDEST PUSH2 0x838 JUMP JUMPDEST PUSH1 0x1 PUSH1 0x1 PUSH1 0xA0 SHL SUB DUP2 AND PUSH2 0x1FF JUMPI PUSH1 0x40 MLOAD PUSH3 0x461BCD PUSH1 0xE5 SHL DUP2 MSTORE PUSH1 0x20 PUSH1 0x4 DUP3 ADD MSTORE PUSH1 0x11 PUSH1 0x24 DUP3 ADD MSTORE PUSH17 0x125B9D985B1A59081C9958DA5C1A595B9D PUSH1 0x7A SHL PUSH1 0x44 DUP3 ADD MSTORE PUSH1 0x64 ADD JUMPDEST PUSH1 0x40 MLOAD DUP1 SWAP2 SUB SWAP1 REVERT JUMPDEST CALLER PUSH0 SWAP1 DUP2 MSTORE PUSH1 0x20 DUP2 SWAP1 MSTORE PUSH1 0x40 SWAP1 KECCAK256 SLOAD PUSH2 0x24B JUMPI PUSH1 0x40 MLOAD PUSH3 0x461BCD PUSH1 0xE5 SHL DUP2 MSTORE PUSH1 0x20 PUSH1 0x4 DUP3 ADD MSTORE PUSH1 0xE PUSH1 0x24 DUP3 ADD MSTORE PUSH14 0x139BC818985B185B98D9481CD95D PUSH1 0x92 SHL PUSH1 0x44 DUP3 ADD MSTORE PUSH1 0x64 ADD PUSH2 0x1F6 JUMP JUMPDEST CALLER PUSH0 DUP2 DUP2 MSTORE PUSH1 0x20 DUP2 DUP2 MSTORE PUSH1 0x40 DUP1 DUP4 KECCAK256 SLOAD PUSH1 0x1 DUP1 DUP5 MSTORE DUP3 DUP6 KECCAK256 DUP3 DUP7 MSTORE DUP5 MSTORE DUP3 DUP6 KECCAK256 PUSH1 0x1 PUSH1 0x1 PUSH1 0xA0 SHL SUB DUP9 AND DUP1 DUP8 MSTORE SWAP5 MSTORE DUP3 DUP6 KECCAK256 DUP1 SLOAD PUSH1 0xFF NOT AND SWAP1 SWAP2 OR SWAP1 SSTORE SWAP1 MLOAD SWAP1 SWAP4 SWAP2 SWAP3 DUP5 SWAP3 SWAP2 PUSH32 0x4CF3E1E37593C051AE26CD388EF2937CEC5AF2F089064370AA2D47B79A636871 SWAP2 SWAP1 LOG4 POP POP JUMP JUMPDEST PUSH0 DUP2 PUSH1 0x40 MLOAD PUSH1 0x20 ADD PUSH2 0x2F3 SWAP2 DUP2 MSTORE PUSH32 0x6F7065726174696F6E0000000000000000000000000000000000000000000000 PUSH1 0x20 DUP3 ADD MSTORE PUSH1 0x29 ADD SWAP1 JUMP JUMPDEST PUSH1 0x40 MLOAD PUSH1 0x20 DUP2 DUP4 SUB SUB DUP2 MSTORE SWAP1 PUSH1 0x40 MSTORE DUP1 MLOAD SWAP1 PUSH1 0x20 ADD KECCAK256 SWAP1 POP SWAP2 SWAP1 POP JUMP JUMPDEST CALLER PUSH0 SWAP1 DUP2 MSTORE PUSH1 0x20 DUP2 SWAP1 MSTORE PUSH1 0x40 SWAP1 KECCAK256 SLOAD PUSH2 0x35C JUMPI PUSH1 0x40 MLOAD PUSH3 0x461BCD PUSH1 0xE5 SHL DUP2 MSTORE PUSH1 0x20 PUSH1 0x4 DUP3 ADD MSTORE PUSH1 0xE PUSH1 0x24 DUP3 ADD MSTORE PUSH14 0x139BC818985B185B98D9481CD95D PUSH1 0x92 SHL PUSH1 0x44 DUP3 ADD MSTORE PUSH1 0x64 ADD PUSH2 0x1F6 JUMP JUMPDEST CALLER PUSH0 SWAP1 DUP2 MSTORE PUSH1 0x20 DUP2 SWAP1 MSTORE PUSH1 0x40 DUP2 KECCAK256 SLOAD SWAP1 JUMPDEST DUP3 DUP2 LT ISZERO PUSH2 0x4BF JUMPI PUSH0 DUP5 DUP5 DUP4 DUP2 DUP2 LT PUSH2 0x388 JUMPI PUSH2 0x388 PUSH2 0xA59 JUMP JUMPDEST SWAP1 POP PUSH1 0x20 MUL ADD PUSH1 0x20 DUP2 ADD SWAP1 PUSH2 0x39D SWAP2 SWAP1 PUSH2 0x95A JUMP JUMPDEST PUSH1 0x1 PUSH1 0x1 PUSH1 0xA0 SHL SUB AND SUB PUSH2 0x3E7 JUMPI PUSH1 0x40 MLOAD PUSH3 0x461BCD PUSH1 0xE5 SHL DUP2 MSTORE PUSH1 0x20 PUSH1 0x4 DUP3 ADD MSTORE PUSH1 0x11 PUSH1 0x24 DUP3 ADD MSTORE PUSH17 0x125B9D985B1A59081C9958DA5C1A595B9D PUSH1 0x7A SHL PUSH1 0x44 DUP3 ADD MSTORE PUSH1 0x64 ADD PUSH2 0x1F6 JUMP JUMPDEST CALLER PUSH0 SWAP1 DUP2 MSTORE PUSH1 0x1 PUSH1 0x20 DUP2 DUP2 MSTORE PUSH1 0x40 DUP1 DUP5 KECCAK256 DUP7 DUP6 MSTORE SWAP1 SWAP2 MSTORE DUP3 KECCAK256 SWAP1 SWAP2 DUP7 DUP7 DUP6 DUP2 DUP2 LT PUSH2 0x414 JUMPI PUSH2 0x414 PUSH2 0xA59 JUMP JUMPDEST SWAP1 POP PUSH1 0x20 MUL ADD PUSH1 0x20 DUP2 ADD SWAP1 PUSH2 0x429 SWAP2 SWAP1 PUSH2 0x95A JUMP JUMPDEST PUSH1 0x1 PUSH1 0x1 PUSH1 0xA0 SHL SUB AND DUP2 MSTORE PUSH1 0x20 DUP2 ADD SWAP2 SWAP1 SWAP2 MSTORE PUSH1 0x40 ADD PUSH0 KECCAK256 DUP1 SLOAD PUSH1 0xFF NOT AND SWAP2 ISZERO ISZERO SWAP2 SWAP1 SWAP2 OR SWAP1 SSTORE DUP4 DUP4 DUP3 DUP2 DUP2 LT PUSH2 0x462 JUMPI PUSH2 0x462 PUSH2 0xA59 JUMP JUMPDEST SWAP1 POP PUSH1 0x20 MUL ADD PUSH1 0x20 DUP2 ADD SWAP1 PUSH2 0x477 SWAP2 SWAP1 PUSH2 0x95A JUMP JUMPDEST PUSH1 0x1 PUSH1 0x1 PUSH1 0xA0 SHL SUB AND DUP3 CALLER PUSH1 0x1 PUSH1 0x1 PUSH1 0xA0 SHL SUB AND PUSH32 0x4CF3E1E37593C051AE26CD388EF2937CEC5AF2F089064370AA2D47B79A636871 PUSH1 0x40 MLOAD PUSH1 0x40 MLOAD DUP1 SWAP2 SUB SWAP1 LOG4 PUSH1 0x1 ADD PUSH2 0x36D JUMP JUMPDEST POP POP POP POP JUMP JUMPDEST PUSH1 0x1 PUSH1 0x1 PUSH1 0xA0 SHL SUB DUP3 AND PUSH2 0x50F JUMPI PUSH1 0x40 MLOAD PUSH3 0x461BCD PUSH1 0xE5 SHL DUP2 MSTORE PUSH1 0x20 PUSH1 0x4 DUP3 ADD MSTORE PUSH1 0x11 PUSH1 0x24 DUP3 ADD MSTORE PUSH17 0x125B9D985B1A59081C9958DA5C1A595B9D PUSH1 0x7A SHL PUSH1 0x44 DUP3 ADD MSTORE PUSH1 0x64 ADD PUSH2 0x1F6 JUMP JUMPDEST CALLER PUSH0 SWAP1 DUP2 MSTORE PUSH1 0x20 DUP2 SWAP1 MSTORE PUSH1 0x40 SWAP1 KECCAK256 SLOAD PUSH2 0x56A JUMPI PUSH1 0x40 MLOAD PUSH3 0x461BCD PUSH1 0xE5 SHL DUP2 MSTORE PUSH1 0x20 PUSH1 0x4 DUP3 ADD MSTORE PUSH1 0xA PUSH1 0x24 DUP3 ADD MSTORE PUSH32 0x4E6F2062616C616E636500000000000000000000000000000000000000000000 PUSH1 0x44 DUP3 ADD MSTORE PUSH1 0x64 ADD PUSH2 0x1F6 JUMP JUMPDEST CALLER PUSH0 DUP2 DUP2 MSTORE PUSH1 0x20 DUP2 DUP2 MSTORE PUSH1 0x40 DUP1 DUP4 KECCAK256 DUP1 SLOAD DUP3 MLOAD DUP1 DUP6 ADD SWAP2 SWAP1 SWAP2 MSTORE DUP1 DUP4 ADD DUP8 SWAP1 MSTORE PUSH32 0x7472616E736665725F6F75740000000000000000000000000000000000000000 PUSH1 0x60 DUP3 ADD MSTORE DUP3 MLOAD PUSH1 0x4C DUP2 DUP4 SUB ADD DUP2 MSTORE PUSH1 0x6C DUP3 ADD DUP5 MSTORE DUP1 MLOAD SWAP1 DUP6 ADD KECCAK256 PUSH1 0x1 PUSH1 0x1 PUSH1 0xA0 SHL SUB SWAP9 SWAP1 SWAP9 AND DUP1 DUP7 MSTORE DUP6 DUP6 MSTORE DUP4 DUP7 KECCAK256 DUP1 SLOAD PUSH1 0x8C DUP5 ADD MSTORE PUSH1 0xAC DUP4 ADD SWAP9 SWAP1 SWAP9 MSTORE PUSH32 0x7472616E736665725F696E000000000000000000000000000000000000000000 PUSH1 0xCC DUP4 ADD MSTORE DUP4 MLOAD PUSH1 0xB7 DUP2 DUP5 SUB ADD DUP2 MSTORE PUSH1 0xD7 SWAP1 SWAP3 ADD DUP5 MSTORE DUP2 MLOAD SWAP2 DUP6 ADD SWAP2 SWAP1 SWAP2 KECCAK256 SWAP2 DUP9 SWAP1 SSTORE SWAP6 DUP2 SWAP1 SSTORE DUP5 DUP5 MSTORE PUSH1 0x1 DUP1 DUP5 MSTORE DUP3 DUP6 KECCAK256 SWAP8 DUP6 MSTORE SWAP7 DUP4 MSTORE DUP2 DUP5 KECCAK256 SWAP5 DUP5 MSTORE SWAP4 DUP3 MSTORE DUP1 DUP4 KECCAK256 DUP1 SLOAD PUSH1 0xFF NOT SWAP1 DUP2 AND DUP9 OR SWAP1 SWAP2 SSTORE DUP6 DUP5 MSTORE DUP7 DUP4 MSTORE DUP2 DUP5 KECCAK256 SWAP5 DUP5 MSTORE SWAP4 DUP3 MSTORE DUP1 DUP4 KECCAK256 SWAP5 DUP4 MSTORE SWAP4 SWAP1 MSTORE SWAP2 SWAP1 SWAP2 KECCAK256 DUP1 SLOAD SWAP1 SWAP2 AND SWAP1 SWAP2 OR SWAP1 SSTORE JUMP JUMPDEST CALLER PUSH0 SWAP1 DUP2 MSTORE PUSH1 0x20 DUP2 SWAP1 MSTORE PUSH1 0x40 SWAP1 KECCAK256 SLOAD PUSH2 0x6D0 JUMPI PUSH1 0x40 MLOAD PUSH3 0x461BCD PUSH1 0xE5 SHL DUP2 MSTORE PUSH1 0x20 PUSH1 0x4 DUP3 ADD MSTORE PUSH1 0xE PUSH1 0x24 DUP3 ADD MSTORE PUSH14 0x139BC818985B185B98D9481CD95D PUSH1 0x92 SHL PUSH1 0x44 DUP3 ADD MSTORE PUSH1 0x64 ADD PUSH2 0x1F6 JUMP JUMPDEST CALLER PUSH0 DUP2 DUP2 MSTORE PUSH1 0x20 DUP2 DUP2 MSTORE PUSH1 0x40 DUP1 DUP4 KECCAK256 SLOAD PUSH1 0x1 DUP4 MSTORE DUP2 DUP5 KECCAK256 DUP2 DUP6 MSTORE DUP4 MSTORE DUP2 DUP5 KECCAK256 PUSH1 0x1 PUSH1 0x1 PUSH1 0xA0 SHL SUB DUP8 AND DUP1 DUP7 MSTORE SWAP4 MSTORE DUP2 DUP5 KECCAK256 DUP1 SLOAD PUSH1 0xFF NOT AND SWAP1 SSTORE SWAP1 MLOAD SWAP1 SWAP4 SWAP2 SWAP3 DUP5 SWAP3 SWAP2 PUSH32 0x8528861ABDFA203F91AFAA99405F2267859F7CDF846752A81913FE8AB2FE4720 SWAP2 SWAP1 LOG4 POP POP JUMP JUMPDEST CALLER PUSH0 DUP2 DUP2 MSTORE PUSH1 0x20 DUP2 DUP2 MSTORE PUSH1 0x40 DUP1 DUP4 KECCAK256 DUP6 SWAP1 SSTORE PUSH1 0x1 DUP1 DUP4 MSTORE DUP2 DUP5 KECCAK256 DUP7 DUP6 MSTORE DUP4 MSTORE DUP2 DUP5 KECCAK256 DUP6 DUP6 MSTORE DUP4 MSTORE SWAP3 DUP2 SWAP1 KECCAK256 DUP1 SLOAD PUSH1 0xFF NOT AND SWAP1 SWAP4 OR SWAP1 SWAP3 SSTORE SWAP1 MLOAD DUP4 DUP2 MSTORE PUSH32 0x446CFEC53A4A78B8FA882DB0C3C72A366AE7D58C7598773AFC0E1D4C81D5797B SWAP2 ADD PUSH1 0x40 MLOAD DUP1 SWAP2 SUB SWAP1 LOG2 POP JUMP JUMPDEST PUSH1 0x1 PUSH1 0x1 PUSH1 0xA0 SHL SUB DUP3 AND PUSH0 SWAP1 DUP2 MSTORE PUSH1 0x20 DUP2 SWAP1 MSTORE PUSH1 0x40 DUP2 KECCAK256 SLOAD DUP1 PUSH2 0x7CA JUMPI PUSH0 SWAP2 POP POP PUSH2 0x832 JUMP JUMPDEST PUSH1 0x1 PUSH1 0x1 PUSH1 0xA0 SHL SUB DUP1 DUP6 AND PUSH0 SWAP1 DUP2 MSTORE PUSH1 0x1 PUSH1 0x20 SWAP1 DUP2 MSTORE PUSH1 0x40 DUP1 DUP4 KECCAK256 DUP6 DUP5 MSTORE DUP3 MSTORE DUP1 DUP4 KECCAK256 SWAP4 DUP8 AND DUP4 MSTORE SWAP3 SWAP1 MSTORE KECCAK256 SLOAD PUSH1 0xFF AND DUP1 PUSH2 0x816 JUMPI POP DUP4 PUSH1 0x1 PUSH1 0x1 PUSH1 0xA0 SHL SUB AND DUP4 PUSH1 0x1 PUSH1 0x1 PUSH1 0xA0 SHL SUB AND EQ JUMPDEST DUP1 PUSH2 0x82E JUMPI POP PUSH1 0x2 SLOAD PUSH1 0x1 PUSH1 0x1 PUSH1 0xA0 SHL SUB DUP5 DUP2 AND SWAP2 AND EQ JUMPDEST SWAP2 POP POP JUMPDEST SWAP3 SWAP2 POP POP JUMP JUMPDEST PUSH1 0x1 PUSH1 0x1 PUSH1 0xA0 SHL SUB DUP2 AND PUSH0 SWAP1 DUP2 MSTORE PUSH1 0x20 DUP2 SWAP1 MSTORE PUSH1 0x40 DUP2 KECCAK256 SLOAD DUP1 PUSH2 0x89D JUMPI PUSH1 0x40 MLOAD PUSH3 0x461BCD PUSH1 0xE5 SHL DUP2 MSTORE PUSH1 0x20 PUSH1 0x4 DUP3 ADD MSTORE PUSH1 0x10 PUSH1 0x24 DUP3 ADD MSTORE PUSH32 0x4E6F2062616C616E636520666F756E6400000000000000000000000000000000 PUSH1 0x44 DUP3 ADD MSTORE PUSH1 0x64 ADD PUSH2 0x1F6 JUMP JUMPDEST PUSH1 0x1 PUSH1 0x1 PUSH1 0xA0 SHL SUB DUP4 AND PUSH0 SWAP1 DUP2 MSTORE PUSH1 0x1 PUSH1 0x20 SWAP1 DUP2 MSTORE PUSH1 0x40 DUP1 DUP4 KECCAK256 DUP5 DUP5 MSTORE DUP3 MSTORE DUP1 DUP4 KECCAK256 CALLER DUP5 MSTORE SWAP1 SWAP2 MSTORE SWAP1 KECCAK256 SLOAD PUSH1 0xFF AND DUP1 PUSH2 0x8DE JUMPI POP CALLER PUSH1 0x1 PUSH1 0x1 PUSH1 0xA0 SHL SUB DUP5 AND EQ JUMPDEST DUP1 PUSH2 0x8F3 JUMPI POP PUSH1 0x2 SLOAD PUSH1 0x1 PUSH1 0x1 PUSH1 0xA0 SHL SUB AND CALLER EQ JUMPDEST PUSH2 0x832 JUMPI PUSH1 0x40 MLOAD PUSH3 0x461BCD PUSH1 0xE5 SHL DUP2 MSTORE PUSH1 0x20 PUSH1 0x4 DUP3 ADD MSTORE PUSH1 0xD PUSH1 0x24 DUP3 ADD MSTORE PUSH32 0x4163636573732064656E69656400000000000000000000000000000000000000 PUSH1 0x44 DUP3 ADD MSTORE PUSH1 0x64 ADD PUSH2 0x1F6 JUMP JUMPDEST DUP1 CALLDATALOAD PUSH1 0x1 PUSH1 0x1 PUSH1 0xA0 SHL SUB DUP2 AND DUP2 EQ PUSH2 0x955 JUMPI PUSH0 DUP1 REVERT JUMPDEST SWAP2 SWAP1 POP JUMP JUMPDEST PUSH0 PUSH1 0x20 DUP3 DUP5 SUB SLT ISZERO PUSH2 0x96A JUMPI PUSH0 DUP1 REVERT JUMPDEST PUSH2 0x973 DUP3 PUSH2 0x93F JUMP JUMPDEST SWAP4 SWAP3 POP POP POP JUMP JUMPDEST PUSH0 PUSH1 0x20 DUP3 DUP5 SUB SLT ISZERO PUSH2 0x98A JUMPI PUSH0 DUP1 REVERT JUMPDEST POP CALLDATALOAD SWAP2 SWAP1 POP JUMP JUMPDEST PUSH0 DUP1 PUSH1 0x20 DUP4 DUP6 SUB SLT ISZERO PUSH2 0x9A2 JUMPI PUSH0 DUP1 REVERT JUMPDEST DUP3 CALLDATALOAD PUSH8 0xFFFFFFFFFFFFFFFF DUP1 DUP3 GT ISZERO PUSH2 0x9B9 JUMPI PUSH0 DUP1 REVERT JUMPDEST DUP2 DUP6 ADD SWAP2 POP DUP6 PUSH1 0x1F DUP4 ADD SLT PUSH2 0x9CC JUMPI PUSH0 DUP1 REVERT JUMPDEST DUP2 CALLDATALOAD DUP2 DUP2 GT ISZERO PUSH2 0x9DA JUMPI PUSH0 DUP1 REVERT JUMPDEST DUP7 PUSH1 0x20 DUP3 PUSH1 0x5 SHL DUP6 ADD ADD GT ISZERO PUSH2 0x9EE JUMPI PUSH0 DUP1 REVERT JUMPDEST PUSH1 0x20 SWAP3 SWAP1 SWAP3 ADD SWAP7 SWAP2 SWAP6 POP SWAP1 SWAP4 POP POP POP POP JUMP JUMPDEST PUSH0 DUP1 PUSH1 0x40 DUP4 DUP6 SUB SLT ISZERO PUSH2 0xA11 JUMPI PUSH0 DUP1 REVERT JUMPDEST PUSH2 0xA1A DUP4 PUSH2 0x93F JUMP JUMPDEST SWAP5 PUSH1 0x20 SWAP4 SWAP1 SWAP4 ADD CALLDATALOAD SWAP4 POP POP POP JUMP JUMPDEST PUSH0 DUP1 PUSH1 0x40 DUP4 DUP6 SUB SLT ISZERO PUSH2 0xA39 JUMPI PUSH0 DUP1 REVERT JUMPDEST PUSH2 0xA42 DUP4 PUSH2 0x93F JUMP JUMPDEST SWAP2 POP PUSH2 0xA50 PUSH1 0x20 DUP5 ADD PUSH2 0x93F JUMP JUMPDEST SWAP1 POP SWAP3 POP SWAP3 SWAP1 POP JUMP JUMPDEST PUSH4 0x4E487B71 PUSH1 0xE0 SHL PUSH0 MSTORE PUSH1 0x32 PUSH1 0x4 MSTORE PUSH1 0x24 PUSH0 REVERT INVALID LOG2 PUSH5 0x6970667358 0x22 SLT KECCAK256 XOR 0xEA 0xE4 0xA9 0xC6 DUP2 0xE3 DUP13 SSTORE SELFBALANCE SLT 0xAE SELFDESTRUCT 0xEE 0xE0 0x2C 0x1E 0xBE 0xDB 0xD4 NOT TIMESTAMP PUSH14 0xFDBA0D3385255357F64736F6C63 NUMBER STOP ADDMOD XOR STOP CALLER "},"methodIdentifiers":{"antiPatternNoAllowThis(bytes32)":"99b7f71d","batchGrantAccess(address[])":"6a6e1cb3","correctPatternWithAllowThis(bytes32)":"2a567354","getBalance(address)":"f8b2cb4f","grantAccess(address)":"0ae5e739","grantTransientAccess(address)":"244e7341","hasPermission(address,address)":"cde68041","owner()":"8da5cb5b","revokeAccess(address)":"85e68531","setBalance(bytes32)":"cd28c53f","transfer(address,bytes32)":"7d32e7bd"}}}}}