{"contracts/EncryptionExample.sol":{"EncryptionExample":{"abi":[{"anonymous":false,"inputs":[{"indexed":false,"internalType":"uint256","name":"count","type":"uint256"}],"name":"MultipleValuesEncrypted","type":"event"},{"anonymous":false,"inputs":[{"indexed":false,"internalType":"bytes32","name":"encryptedValue","type":"bytes32"}],"name":"SingleValueEncrypted","type":"event"},{"anonymous":false,"inputs":[{"indexed":true,"internalType":"address","name":"user","type":"address"},{"indexed":false,"internalType":"bytes32","name":"encryptedValue","type":"bytes32"}],"name":"UserDataEncrypted","type":"event"},{"inputs":[{"internalType":"uint32","name":"_value","type":"uint32"}],"name":"antiPatternNoInputProof","outputs":[{"internalType":"bytes32","name":"","type":"bytes32"}],"stateMutability":"pure","type":"function"},{"inputs":[{"internalType":"uint32","name":"_value1","type":"uint32"},{"internalType":"uint32","name":"_value2","type":"uint32"},{"internalType":"bytes","name":"_inputProof","type":"bytes"}],"name":"antiPatternReuseProof","outputs":[{"internalType":"bytes32","name":"","type":"bytes32"},{"internalType":"bytes32","name":"","type":"bytes32"}],"stateMutability":"pure","type":"function"},{"inputs":[{"internalType":"uint32","name":"_value","type":"uint32"},{"internalType":"bytes","name":"_inputProof","type":"bytes"}],"name":"correctEncryptionPattern","outputs":[{"internalType":"bytes32","name":"","type":"bytes32"}],"stateMutability":"view","type":"function"},{"inputs":[{"internalType":"address","name":"_address","type":"address"},{"internalType":"bytes","name":"_inputProof","type":"bytes"}],"name":"encryptAddress","outputs":[{"internalType":"bytes32","name":"","type":"bytes32"}],"stateMutability":"pure","type":"function"},{"inputs":[{"internalType":"bool","name":"_value","type":"bool"},{"internalType":"bytes","name":"_inputProof","type":"bytes"}],"name":"encryptBoolean","outputs":[{"internalType":"bytes32","name":"","type":"bytes32"}],"stateMutability":"pure","type":"function"},{"inputs":[{"internalType":"uint8","name":"_value8","type":"uint8"},{"internalType":"uint16","name":"_value16","type":"uint16"},{"internalType":"uint32","name":"_value32","type":"uint32"},{"internalType":"uint64","name":"_value64","type":"uint64"},{"internalType":"bytes","name":"_inputProof","type":"bytes"}],"name":"encryptDifferentTypes","outputs":[{"internalType":"bytes32","name":"","type":"bytes32"},{"internalType":"bytes32","name":"","type":"bytes32"},{"internalType":"bytes32","name":"","type":"bytes32"},{"internalType":"bytes32","name":"","type":"bytes32"}],"stateMutability":"pure","type":"function"},{"inputs":[{"internalType":"uint32[]","name":"_values","type":"uint32[]"},{"internalType":"bytes[]","name":"_inputProofs","type":"bytes[]"}],"name":"encryptMultipleValues","outputs":[],"stateMutability":"nonpayable","type":"function"},{"inputs":[{"internalType":"uint32","name":"_value","type":"uint32"},{"internalType":"bytes","name":"_inputProof","type":"bytes"}],"name":"encryptSingleValue","outputs":[],"stateMutability":"nonpayable","type":"function"},{"inputs":[{"internalType":"uint32","name":"_value","type":"uint32"},{"internalType":"bytes","name":"_inputProof","type":"bytes"}],"name":"encryptUserData","outputs":[],"stateMutability":"nonpayable","type":"function"},{"inputs":[{"internalType":"uint32[]","name":"_values","type":"uint32[]"},{"internalType":"bytes[]","name":"_inputProofs","type":"bytes[]"}],"name":"encryptUserMultipleData","outputs":[],"stateMutability":"nonpayable","type":"function"},{"inputs":[],"name":"getAllEncryptedValues","outputs":[{"internalType":"bytes32[]","name":"","type":"bytes32[]"}],"stateMutability":"view","type":"function"},{"inputs":[],"name":"getSingleEncryptedValue","outputs":[{"internalType":"bytes32","name":"","type":"bytes32"}],"stateMutability":"view","type":"function"},{"inputs":[{"internalType":"address","name":"_user","type":"address"}],"name":"getUserAllData","outputs":[{"internalType":"bytes32[]","name":"","type":"bytes32[]"}],"stateMutability":"view","type":"function"},{"inputs":[{"internalType":"address","name":"_user","type":"address"}],"name":"getUserDataCount","outputs":[{"internalType":"uint256","name":"","type":"uint256"}],"stateMutability":"view","type":"function"},{"inputs":[{"internalType":"address","name":"_user","type":"address"}],"name":"getUserEncryptedData","outputs":[{"internalType":"bytes32","name":"","type":"bytes32"}],"stateMutability":"view","type":"function"},{"inputs":[{"internalType":"uint256","name":"","type":"uint256"}],"name":"multipleEncryptedValues","outputs":[{"internalType":"bytes32","name":"","type":"bytes32"}],"stateMutability":"view","type":"function"},{"inputs":[],"name":"singleEncryptedValue","outputs":[{"internalType":"bytes32","name":"","type":"bytes32"}],"stateMutability":"view","type":"function"},{"inputs":[{"internalType":"address","name":"","type":"address"}],"name":"userEncryptedData","outputs":[{"internalType":"bytes32","name":"","type":"bytes32"}],"stateMutability":"view","type":"function"},{"inputs":[{"internalType":"address","name":"","type":"address"},{"internalType":"uint256","name":"","type":"uint256"}],"name":"userMultipleData","outputs":[{"internalType":"bytes32","name":"","type":"bytes32"}],"stateMutability":"view","type":"function"}],"evm":{"bytecode":{"linkReferences":{},"object":"608060405234801561000f575f80fd5b5061135e8061001d5f395ff3fe608060405234801561000f575f80fd5b5060043610610149575f3560e01c80637f2a3978116100c7578063adea853e1161007d578063efa19bd011610063578063efa19bd014610318578063f55115241461032b578063f6258a271461033e575f80fd5b8063adea853e146102f2578063ee7ebe1514610305575f80fd5b80638d1d3ee8116100ad5780638d1d3ee814610270578063ab3cd90314610298578063ad8170d6146102df575f80fd5b80637f2a39781461023e57806386379e981461025d575f80fd5b806346a0e63e1161011c5780634d8d484e116101025780634d8d484e146101db578063647f94a5146101ee5780637932856b14610216575f80fd5b806346a0e63e146101955780634898f259146101c8575f80fd5b80630a9ff0d41461014d5780630b5031a5146101625780630b8a8d8c146101785780633d31479514610180575b5f80fd5b61016061015b366004610d11565b610351565b005b5f545b6040519081526020015b60405180910390f35b6101655f5481565b610188610558565b60405161016f9190610d78565b6101a86101a3366004610e11565b6105ae565b60408051948552602085019390935291830152606082015260800161016f565b6101656101d6366004610eab565b6106b7565b6101606101e9366004610d11565b610734565b6101656101fc366004610f10565b6001600160a01b03165f9081526003602052604090205490565b610229610224366004610f30565b610907565b6040805192835260208301919091520161016f565b61016561024c366004610f10565b60026020525f908152604090205481565b61018861026b366004610f10565b61096c565b61016561027e366004610f10565b6001600160a01b03165f9081526002602052604090205490565b6101656102a6366004610f81565b6040516001600160e01b031960e083901b1660208201525f90602401604051602081830303815290604052805190602001209050919050565b6101656102ed366004610f9a565b6109d5565b610160610300366004610eab565b6109f4565b610165610313366004610fb1565b610aa0565b610165610326366004610fcc565b610b50565b610165610339366004610ff4565b610b7b565b61016061034c366004610eab565b610bd5565b8281146103975760405162461bcd60e51b815260206004820152600f60248201526e098cadccee8d040dad2e6dac2e8c6d608b1b60448201526064015b60405180910390fd5b826103e45760405162461bcd60e51b815260206004820152600b60248201527f456d707479206172726179000000000000000000000000000000000000000000604482015260640161038e565b6103ef60015f610c93565b5f5b8381101561051e575f83838381811061040c5761040c611015565b905060200281019061041e9190611029565b9050116104645760405162461bcd60e51b8152602060048201526014602482015273125b9c1d5d081c1c9bdbd9881c995c5d5a5c995960621b604482015260640161038e565b5f85858381811061047757610477611015565b905060200201602081019061048c9190610f81565b84848481811061049e5761049e611015565b90506020028101906104b09190611029565b4233866040516020016104c89695949392919061106c565b60408051601f1981840301815291905280516020909101206001805480820182555f8290527fb10e2d527612073b26eecdfd717e6a320cf44b4afac2b0732d9fcbe2b7fa0cf601919091559190910190506103f1565b506040518381527f38673041a704192e846c7291f0d4d96b3694d73e1e02e7ebd0da2c8e388132779060200160405180910390a150505050565b606060018054806020026020016040519081016040528092919081815260200182805480156105a457602002820191905f5260205f20905b815481526020019060010190808311610590575b5050505050905090565b5f808080846105f65760405162461bcd60e51b8152602060048201526014602482015273125b9c1d5d081c1c9bdbd9881c995c5d5a5c995960621b604482015260640161038e565b89868660405160200161060b939291906110b4565b6040516020818303038152906040528051906020012089878760405160200161063693929190611118565b604051602081830303815290604052805190602001208988886040516020016106619392919061117c565b6040516020818303038152906040528051906020012089898960405160200161068c939291906111c8565b6040516020818303038152906040528051906020012093509350935093509650965096509692505050565b5f816106fc5760405162461bcd60e51b8152602060048201526014602482015273125b9c1d5d081c1c9bdbd9881c995c5d5a5c995960621b604482015260640161038e565b838383423360405160200161071595949392919061122b565b6040516020818303038152906040528051906020012090509392505050565b8281146107755760405162461bcd60e51b815260206004820152600f60248201526e098cadccee8d040dad2e6dac2e8c6d608b1b604482015260640161038e565b82158015906107855750600a8311155b6107d15760405162461bcd60e51b815260206004820152601460248201527f496e76616c6964206172726179206c656e677468000000000000000000000000604482015260640161038e565b335f9081526003602052604081206107e891610c93565b5f5b8381101561051e575f83838381811061080557610805611015565b90506020028101906108179190611029565b90501161085d5760405162461bcd60e51b8152602060048201526014602482015273125b9c1d5d081c1c9bdbd9881c995c5d5a5c995960621b604482015260640161038e565b5f85858381811061087057610870611015565b90506020020160208101906108859190610f81565b84848481811061089757610897611015565b90506020028101906108a99190611029565b4233866040516020016108c19695949392919061106c565b60408051601f198184030181529181528151602092830120335f9081526003845291822080546001818101835591845293909220909201919091559190910190506107ea565b5f8085848460405160200161091e9392919061126e565b604051602081830303815290604052805190602001208585856040516020016109499392919061126e565b604051602081830303815290604052805190602001209150915094509492505050565b6001600160a01b0381165f908152600360209081526040918290208054835181840281018401909452808452606093928301828280156109c957602002820191905f5260205f20905b8154815260200190600101908083116109b5575b50505050509050919050565b600181815481106109e4575f80fd5b5f91825260209091200154905081565b80610a385760405162461bcd60e51b8152602060048201526014602482015273125b9c1d5d081c1c9bdbd9881c995c5d5a5c995960621b604482015260640161038e565b8282824233604051602001610a5195949392919061122b565b60408051808303601f190181529082905280516020918201205f81905582527fbe52a74434c122960b6d19801bbe525210293ddc72bb67fc3d84c0fdbcaf66fb910160405180910390a1505050565b5f81610ae55760405162461bcd60e51b8152602060048201526014602482015273125b9c1d5d081c1c9bdbd9881c995c5d5a5c995960621b604482015260640161038e565b6001600160a01b038416610b3b5760405162461bcd60e51b815260206004820152600f60248201527f496e76616c696420616464726573730000000000000000000000000000000000604482015260640161038e565b83838360405160200161071593929190611295565b6003602052815f5260405f208181548110610b69575f80fd5b905f5260205f20015f91509150505481565b5f81610bc05760405162461bcd60e51b8152602060048201526014602482015273125b9c1d5d081c1c9bdbd9881c995c5d5a5c995960621b604482015260640161038e565b838383604051602001610715939291906112e5565b80610c195760405162461bcd60e51b8152602060048201526014602482015273125b9c1d5d081c1c9bdbd9881c995c5d5a5c995960621b604482015260640161038e565b5f8383834233604051602001610c3395949392919061122b565b60408051808303601f190181528282528051602091820120335f8181526002845293909320819055808452935090917fc376d8dd81736dd33cd0430545353f4944a1288b4944be37751dd8f4a7a29766910160405180910390a250505050565b5080545f8255905f5260205f2090810190610cae9190610cb1565b50565b5b80821115610cc5575f8155600101610cb2565b5090565b5f8083601f840112610cd9575f80fd5b50813567ffffffffffffffff811115610cf0575f80fd5b6020830191508360208260051b8501011115610d0a575f80fd5b9250929050565b5f805f8060408587031215610d24575f80fd5b843567ffffffffffffffff80821115610d3b575f80fd5b610d4788838901610cc9565b90965094506020870135915080821115610d5f575f80fd5b50610d6c87828801610cc9565b95989497509550505050565b602080825282518282018190525f9190848201906040850190845b81811015610daf57835183529284019291840191600101610d93565b50909695505050505050565b803563ffffffff81168114610dce575f80fd5b919050565b5f8083601f840112610de3575f80fd5b50813567ffffffffffffffff811115610dfa575f80fd5b602083019150836020828501011115610d0a575f80fd5b5f805f805f8060a08789031215610e26575f80fd5b863560ff81168114610e36575f80fd5b9550602087013561ffff81168114610e4c575f80fd5b9450610e5a60408801610dbb565b9350606087013567ffffffffffffffff8082168214610e77575f80fd5b90935060808801359080821115610e8c575f80fd5b50610e9989828a01610dd3565b979a9699509497509295939492505050565b5f805f60408486031215610ebd575f80fd5b610ec684610dbb565b9250602084013567ffffffffffffffff811115610ee1575f80fd5b610eed86828701610dd3565b9497909650939450505050565b80356001600160a01b0381168114610dce575f80fd5b5f60208284031215610f20575f80fd5b610f2982610efa565b9392505050565b5f805f8060608587031215610f43575f80fd5b610f4c85610dbb565b9350610f5a60208601610dbb565b9250604085013567ffffffffffffffff811115610f75575f80fd5b610d6c87828801610dd3565b5f60208284031215610f91575f80fd5b610f2982610dbb565b5f60208284031215610faa575f80fd5b5035919050565b5f805f60408486031215610fc3575f80fd5b610ec684610efa565b5f8060408385031215610fdd575f80fd5b610fe683610efa565b946020939093013593505050565b5f805f60408486031215611006575f80fd5b83358015158114610ec6575f80fd5b634e487b7160e01b5f52603260045260245ffd5b5f808335601e1984360301811261103e575f80fd5b83018035915067ffffffffffffffff821115611058575f80fd5b602001915036819003821315610d0a575f80fd5b60e087901b6001600160e01b031916815284866004830137600494019384019290925260601b6bffffffffffffffffffffffff19166024830152603882015260580192915050565b60f884901b7fff00000000000000000000000000000000000000000000000000000000000000168152818360018301377f6575696e743800000000000000000000000000000000000000000000000000009101600181019190915260070192915050565b60f084901b7fffff000000000000000000000000000000000000000000000000000000000000168152818360028301377f6575696e743136000000000000000000000000000000000000000000000000009101600281019190915260090192915050565b60e084901b6001600160e01b0319168152818360048301377f6575696e7433320000000000000000000000000000000000000000000000000091016004810191909152600b0192915050565b7fffffffffffffffff0000000000000000000000000000000000000000000000008460c01b168152818360088301377f6575696e7436340000000000000000000000000000000000000000000000000091016008810191909152600f0192915050565b60e086901b6001600160e01b031916815283856004830137600493019283019190915260601b6bffffffffffffffffffffffff1916602482015260380192915050565b60e084901b6001600160e01b0319168152818360048301375f910160040190815292915050565b6bffffffffffffffffffffffff198460601b168152818360148301377f656164647265737300000000000000000000000000000000000000000000000091016014810191909152601c0192915050565b83151560f81b8152818360018301377f65626f6f6c000000000000000000000000000000000000000000000000000000910160018101919091526006019291505056fea2646970667358221220f0abbb303e1e86bf02094843e8ddc5fdd0d77e1c6802d8556919922a14e7666e64736f6c63430008180033","opcodes":"PUSH1 0x80 PUSH1 0x40 MSTORE CALLVALUE DUP1 ISZERO PUSH2 0xF JUMPI PUSH0 DUP1 REVERT JUMPDEST POP PUSH2 0x135E DUP1 PUSH2 0x1D PUSH0 CODECOPY PUSH0 RETURN INVALID PUSH1 0x80 PUSH1 0x40 MSTORE CALLVALUE DUP1 ISZERO PUSH2 0xF JUMPI PUSH0 DUP1 REVERT JUMPDEST POP PUSH1 0x4 CALLDATASIZE LT PUSH2 0x149 JUMPI PUSH0 CALLDATALOAD PUSH1 0xE0 SHR DUP1 PUSH4 0x7F2A3978 GT PUSH2 0xC7 JUMPI DUP1 PUSH4 0xADEA853E GT PUSH2 0x7D JUMPI DUP1 PUSH4 0xEFA19BD0 GT PUSH2 0x63 JUMPI DUP1 PUSH4 0xEFA19BD0 EQ PUSH2 0x318 JUMPI DUP1 PUSH4 0xF5511524 EQ PUSH2 0x32B JUMPI DUP1 PUSH4 0xF6258A27 EQ PUSH2 0x33E JUMPI PUSH0 DUP1 REVERT JUMPDEST DUP1 PUSH4 0xADEA853E EQ PUSH2 0x2F2 JUMPI DUP1 PUSH4 0xEE7EBE15 EQ PUSH2 0x305 JUMPI PUSH0 DUP1 REVERT JUMPDEST DUP1 PUSH4 0x8D1D3EE8 GT PUSH2 0xAD JUMPI DUP1 PUSH4 0x8D1D3EE8 EQ PUSH2 0x270 JUMPI DUP1 PUSH4 0xAB3CD903 EQ PUSH2 0x298 JUMPI DUP1 PUSH4 0xAD8170D6 EQ PUSH2 0x2DF JUMPI PUSH0 DUP1 REVERT JUMPDEST DUP1 PUSH4 0x7F2A3978 EQ PUSH2 0x23E JUMPI DUP1 PUSH4 0x86379E98 EQ PUSH2 0x25D JUMPI PUSH0 DUP1 REVERT JUMPDEST DUP1 PUSH4 0x46A0E63E GT PUSH2 0x11C JUMPI DUP1 PUSH4 0x4D8D484E GT PUSH2 0x102 JUMPI DUP1 PUSH4 0x4D8D484E EQ PUSH2 0x1DB JUMPI DUP1 PUSH4 0x647F94A5 EQ PUSH2 0x1EE JUMPI DUP1 PUSH4 0x7932856B EQ PUSH2 0x216 JUMPI PUSH0 DUP1 REVERT JUMPDEST DUP1 PUSH4 0x46A0E63E EQ PUSH2 0x195 JUMPI DUP1 PUSH4 0x4898F259 EQ PUSH2 0x1C8 JUMPI PUSH0 DUP1 REVERT JUMPDEST DUP1 PUSH4 0xA9FF0D4 EQ PUSH2 0x14D JUMPI DUP1 PUSH4 0xB5031A5 EQ PUSH2 0x162 JUMPI DUP1 PUSH4 0xB8A8D8C EQ PUSH2 0x178 JUMPI DUP1 PUSH4 0x3D314795 EQ PUSH2 0x180 JUMPI JUMPDEST PUSH0 DUP1 REVERT JUMPDEST PUSH2 0x160 PUSH2 0x15B CALLDATASIZE PUSH1 0x4 PUSH2 0xD11 JUMP JUMPDEST PUSH2 0x351 JUMP JUMPDEST STOP JUMPDEST PUSH0 SLOAD JUMPDEST PUSH1 0x40 MLOAD SWAP1 DUP2 MSTORE PUSH1 0x20 ADD JUMPDEST PUSH1 0x40 MLOAD DUP1 SWAP2 SUB SWAP1 RETURN JUMPDEST PUSH2 0x165 PUSH0 SLOAD DUP2 JUMP JUMPDEST PUSH2 0x188 PUSH2 0x558 JUMP JUMPDEST PUSH1 0x40 MLOAD PUSH2 0x16F SWAP2 SWAP1 PUSH2 0xD78 JUMP JUMPDEST PUSH2 0x1A8 PUSH2 0x1A3 CALLDATASIZE PUSH1 0x4 PUSH2 0xE11 JUMP JUMPDEST PUSH2 0x5AE JUMP JUMPDEST PUSH1 0x40 DUP1 MLOAD SWAP5 DUP6 MSTORE PUSH1 0x20 DUP6 ADD SWAP4 SWAP1 SWAP4 MSTORE SWAP2 DUP4 ADD MSTORE PUSH1 0x60 DUP3 ADD MSTORE PUSH1 0x80 ADD PUSH2 0x16F JUMP JUMPDEST PUSH2 0x165 PUSH2 0x1D6 CALLDATASIZE PUSH1 0x4 PUSH2 0xEAB JUMP JUMPDEST PUSH2 0x6B7 JUMP JUMPDEST PUSH2 0x160 PUSH2 0x1E9 CALLDATASIZE PUSH1 0x4 PUSH2 0xD11 JUMP JUMPDEST PUSH2 0x734 JUMP JUMPDEST PUSH2 0x165 PUSH2 0x1FC CALLDATASIZE PUSH1 0x4 PUSH2 0xF10 JUMP JUMPDEST PUSH1 0x1 PUSH1 0x1 PUSH1 0xA0 SHL SUB AND PUSH0 SWAP1 DUP2 MSTORE PUSH1 0x3 PUSH1 0x20 MSTORE PUSH1 0x40 SWAP1 KECCAK256 SLOAD SWAP1 JUMP JUMPDEST PUSH2 0x229 PUSH2 0x224 CALLDATASIZE PUSH1 0x4 PUSH2 0xF30 JUMP JUMPDEST PUSH2 0x907 JUMP JUMPDEST PUSH1 0x40 DUP1 MLOAD SWAP3 DUP4 MSTORE PUSH1 0x20 DUP4 ADD SWAP2 SWAP1 SWAP2 MSTORE ADD PUSH2 0x16F JUMP JUMPDEST PUSH2 0x165 PUSH2 0x24C CALLDATASIZE PUSH1 0x4 PUSH2 0xF10 JUMP JUMPDEST PUSH1 0x2 PUSH1 0x20 MSTORE PUSH0 SWAP1 DUP2 MSTORE PUSH1 0x40 SWAP1 KECCAK256 SLOAD DUP2 JUMP JUMPDEST PUSH2 0x188 PUSH2 0x26B CALLDATASIZE PUSH1 0x4 PUSH2 0xF10 JUMP JUMPDEST PUSH2 0x96C JUMP JUMPDEST PUSH2 0x165 PUSH2 0x27E CALLDATASIZE PUSH1 0x4 PUSH2 0xF10 JUMP JUMPDEST PUSH1 0x1 PUSH1 0x1 PUSH1 0xA0 SHL SUB AND PUSH0 SWAP1 DUP2 MSTORE PUSH1 0x2 PUSH1 0x20 MSTORE PUSH1 0x40 SWAP1 KECCAK256 SLOAD SWAP1 JUMP JUMPDEST PUSH2 0x165 PUSH2 0x2A6 CALLDATASIZE PUSH1 0x4 PUSH2 0xF81 JUMP JUMPDEST PUSH1 0x40 MLOAD PUSH1 0x1 PUSH1 0x1 PUSH1 0xE0 SHL SUB NOT PUSH1 0xE0 DUP4 SWAP1 SHL AND PUSH1 0x20 DUP3 ADD MSTORE PUSH0 SWAP1 PUSH1 0x24 ADD PUSH1 0x40 MLOAD PUSH1 0x20 DUP2 DUP4 SUB SUB DUP2 MSTORE SWAP1 PUSH1 0x40 MSTORE DUP1 MLOAD SWAP1 PUSH1 0x20 ADD KECCAK256 SWAP1 POP SWAP2 SWAP1 POP JUMP JUMPDEST PUSH2 0x165 PUSH2 0x2ED CALLDATASIZE PUSH1 0x4 PUSH2 0xF9A JUMP JUMPDEST PUSH2 0x9D5 JUMP JUMPDEST PUSH2 0x160 PUSH2 0x300 CALLDATASIZE PUSH1 0x4 PUSH2 0xEAB JUMP JUMPDEST PUSH2 0x9F4 JUMP JUMPDEST PUSH2 0x165 PUSH2 0x313 CALLDATASIZE PUSH1 0x4 PUSH2 0xFB1 JUMP JUMPDEST PUSH2 0xAA0 JUMP JUMPDEST PUSH2 0x165 PUSH2 0x326 CALLDATASIZE PUSH1 0x4 PUSH2 0xFCC JUMP JUMPDEST PUSH2 0xB50 JUMP JUMPDEST PUSH2 0x165 PUSH2 0x339 CALLDATASIZE PUSH1 0x4 PUSH2 0xFF4 JUMP JUMPDEST PUSH2 0xB7B JUMP JUMPDEST PUSH2 0x160 PUSH2 0x34C CALLDATASIZE PUSH1 0x4 PUSH2 0xEAB JUMP JUMPDEST PUSH2 0xBD5 JUMP JUMPDEST DUP3 DUP2 EQ PUSH2 0x397 JUMPI PUSH1 0x40 MLOAD PUSH3 0x461BCD PUSH1 0xE5 SHL DUP2 MSTORE PUSH1 0x20 PUSH1 0x4 DUP3 ADD MSTORE PUSH1 0xF PUSH1 0x24 DUP3 ADD MSTORE PUSH15 0x98CADCCEE8D040DAD2E6DAC2E8C6D PUSH1 0x8B SHL PUSH1 0x44 DUP3 ADD MSTORE PUSH1 0x64 ADD JUMPDEST PUSH1 0x40 MLOAD DUP1 SWAP2 SUB SWAP1 REVERT JUMPDEST DUP3 PUSH2 0x3E4 JUMPI PUSH1 0x40 MLOAD PUSH3 0x461BCD PUSH1 0xE5 SHL DUP2 MSTORE PUSH1 0x20 PUSH1 0x4 DUP3 ADD MSTORE PUSH1 0xB PUSH1 0x24 DUP3 ADD MSTORE PUSH32 0x456D707479206172726179000000000000000000000000000000000000000000 PUSH1 0x44 DUP3 ADD MSTORE PUSH1 0x64 ADD PUSH2 0x38E JUMP JUMPDEST PUSH2 0x3EF PUSH1 0x1 PUSH0 PUSH2 0xC93 JUMP JUMPDEST PUSH0 JUMPDEST DUP4 DUP2 LT ISZERO PUSH2 0x51E JUMPI PUSH0 DUP4 DUP4 DUP4 DUP2 DUP2 LT PUSH2 0x40C JUMPI PUSH2 0x40C PUSH2 0x1015 JUMP JUMPDEST SWAP1 POP PUSH1 0x20 MUL DUP2 ADD SWAP1 PUSH2 0x41E SWAP2 SWAP1 PUSH2 0x1029 JUMP JUMPDEST SWAP1 POP GT PUSH2 0x464 JUMPI PUSH1 0x40 MLOAD PUSH3 0x461BCD PUSH1 0xE5 SHL DUP2 MSTORE PUSH1 0x20 PUSH1 0x4 DUP3 ADD MSTORE PUSH1 0x14 PUSH1 0x24 DUP3 ADD MSTORE PUSH20 0x125B9C1D5D081C1C9BDBD9881C995C5D5A5C9959 PUSH1 0x62 SHL PUSH1 0x44 DUP3 ADD MSTORE PUSH1 0x64 ADD PUSH2 0x38E JUMP JUMPDEST PUSH0 DUP6 DUP6 DUP4 DUP2 DUP2 LT PUSH2 0x477 JUMPI PUSH2 0x477 PUSH2 0x1015 JUMP JUMPDEST SWAP1 POP PUSH1 0x20 MUL ADD PUSH1 0x20 DUP2 ADD SWAP1 PUSH2 0x48C SWAP2 SWAP1 PUSH2 0xF81 JUMP JUMPDEST DUP5 DUP5 DUP5 DUP2 DUP2 LT PUSH2 0x49E JUMPI PUSH2 0x49E PUSH2 0x1015 JUMP JUMPDEST SWAP1 POP PUSH1 0x20 MUL DUP2 ADD SWAP1 PUSH2 0x4B0 SWAP2 SWAP1 PUSH2 0x1029 JUMP JUMPDEST TIMESTAMP CALLER DUP7 PUSH1 0x40 MLOAD PUSH1 0x20 ADD PUSH2 0x4C8 SWAP7 SWAP6 SWAP5 SWAP4 SWAP3 SWAP2 SWAP1 PUSH2 0x106C JUMP JUMPDEST PUSH1 0x40 DUP1 MLOAD PUSH1 0x1F NOT DUP2 DUP5 SUB ADD DUP2 MSTORE SWAP2 SWAP1 MSTORE DUP1 MLOAD PUSH1 0x20 SWAP1 SWAP2 ADD KECCAK256 PUSH1 0x1 DUP1 SLOAD DUP1 DUP3 ADD DUP3 SSTORE PUSH0 DUP3 SWAP1 MSTORE PUSH32 0xB10E2D527612073B26EECDFD717E6A320CF44B4AFAC2B0732D9FCBE2B7FA0CF6 ADD SWAP2 SWAP1 SWAP2 SSTORE SWAP2 SWAP1 SWAP2 ADD SWAP1 POP PUSH2 0x3F1 JUMP JUMPDEST POP PUSH1 0x40 MLOAD DUP4 DUP2 MSTORE PUSH32 0x38673041A704192E846C7291F0D4D96B3694D73E1E02E7EBD0DA2C8E38813277 SWAP1 PUSH1 0x20 ADD PUSH1 0x40 MLOAD DUP1 SWAP2 SUB SWAP1 LOG1 POP POP POP POP JUMP JUMPDEST PUSH1 0x60 PUSH1 0x1 DUP1 SLOAD DUP1 PUSH1 0x20 MUL PUSH1 0x20 ADD PUSH1 0x40 MLOAD SWAP1 DUP2 ADD PUSH1 0x40 MSTORE DUP1 SWAP3 SWAP2 SWAP1 DUP2 DUP2 MSTORE PUSH1 0x20 ADD DUP3 DUP1 SLOAD DUP1 ISZERO PUSH2 0x5A4 JUMPI PUSH1 0x20 MUL DUP3 ADD SWAP2 SWAP1 PUSH0 MSTORE PUSH1 0x20 PUSH0 KECCAK256 SWAP1 JUMPDEST DUP2 SLOAD DUP2 MSTORE PUSH1 0x20 ADD SWAP1 PUSH1 0x1 ADD SWAP1 DUP1 DUP4 GT PUSH2 0x590 JUMPI JUMPDEST POP POP POP POP POP SWAP1 POP SWAP1 JUMP JUMPDEST PUSH0 DUP1 DUP1 DUP1 DUP5 PUSH2 0x5F6 JUMPI PUSH1 0x40 MLOAD PUSH3 0x461BCD PUSH1 0xE5 SHL DUP2 MSTORE PUSH1 0x20 PUSH1 0x4 DUP3 ADD MSTORE PUSH1 0x14 PUSH1 0x24 DUP3 ADD MSTORE PUSH20 0x125B9C1D5D081C1C9BDBD9881C995C5D5A5C9959 PUSH1 0x62 SHL PUSH1 0x44 DUP3 ADD MSTORE PUSH1 0x64 ADD PUSH2 0x38E JUMP JUMPDEST DUP10 DUP7 DUP7 PUSH1 0x40 MLOAD PUSH1 0x20 ADD PUSH2 0x60B SWAP4 SWAP3 SWAP2 SWAP1 PUSH2 0x10B4 JUMP JUMPDEST PUSH1 0x40 MLOAD PUSH1 0x20 DUP2 DUP4 SUB SUB DUP2 MSTORE SWAP1 PUSH1 0x40 MSTORE DUP1 MLOAD SWAP1 PUSH1 0x20 ADD KECCAK256 DUP10 DUP8 DUP8 PUSH1 0x40 MLOAD PUSH1 0x20 ADD PUSH2 0x636 SWAP4 SWAP3 SWAP2 SWAP1 PUSH2 0x1118 JUMP JUMPDEST PUSH1 0x40 MLOAD PUSH1 0x20 DUP2 DUP4 SUB SUB DUP2 MSTORE SWAP1 PUSH1 0x40 MSTORE DUP1 MLOAD SWAP1 PUSH1 0x20 ADD KECCAK256 DUP10 DUP9 DUP9 PUSH1 0x40 MLOAD PUSH1 0x20 ADD PUSH2 0x661 SWAP4 SWAP3 SWAP2 SWAP1 PUSH2 0x117C JUMP JUMPDEST PUSH1 0x40 MLOAD PUSH1 0x20 DUP2 DUP4 SUB SUB DUP2 MSTORE SWAP1 PUSH1 0x40 MSTORE DUP1 MLOAD SWAP1 PUSH1 0x20 ADD KECCAK256 DUP10 DUP10 DUP10 PUSH1 0x40 MLOAD PUSH1 0x20 ADD PUSH2 0x68C SWAP4 SWAP3 SWAP2 SWAP1 PUSH2 0x11C8 JUMP JUMPDEST PUSH1 0x40 MLOAD PUSH1 0x20 DUP2 DUP4 SUB SUB DUP2 MSTORE SWAP1 PUSH1 0x40 MSTORE DUP1 MLOAD SWAP1 PUSH1 0x20 ADD KECCAK256 SWAP4 POP SWAP4 POP SWAP4 POP SWAP4 POP SWAP7 POP SWAP7 POP SWAP7 POP SWAP7 SWAP3 POP POP POP JUMP JUMPDEST PUSH0 DUP2 PUSH2 0x6FC JUMPI PUSH1 0x40 MLOAD PUSH3 0x461BCD PUSH1 0xE5 SHL DUP2 MSTORE PUSH1 0x20 PUSH1 0x4 DUP3 ADD MSTORE PUSH1 0x14 PUSH1 0x24 DUP3 ADD MSTORE PUSH20 0x125B9C1D5D081C1C9BDBD9881C995C5D5A5C9959 PUSH1 0x62 SHL PUSH1 0x44 DUP3 ADD MSTORE PUSH1 0x64 ADD PUSH2 0x38E JUMP JUMPDEST DUP4 DUP4 DUP4 TIMESTAMP CALLER PUSH1 0x40 MLOAD PUSH1 0x20 ADD PUSH2 0x715 SWAP6 SWAP5 SWAP4 SWAP3 SWAP2 SWAP1 PUSH2 0x122B JUMP JUMPDEST PUSH1 0x40 MLOAD PUSH1 0x20 DUP2 DUP4 SUB SUB DUP2 MSTORE SWAP1 PUSH1 0x40 MSTORE DUP1 MLOAD SWAP1 PUSH1 0x20 ADD KECCAK256 SWAP1 POP SWAP4 SWAP3 POP POP POP JUMP JUMPDEST DUP3 DUP2 EQ PUSH2 0x775 JUMPI PUSH1 0x40 MLOAD PUSH3 0x461BCD PUSH1 0xE5 SHL DUP2 MSTORE PUSH1 0x20 PUSH1 0x4 DUP3 ADD MSTORE PUSH1 0xF PUSH1 0x24 DUP3 ADD MSTORE PUSH15 0x98CADCCEE8D040DAD2E6DAC2E8C6D PUSH1 0x8B SHL PUSH1 0x44 DUP3 ADD MSTORE PUSH1 0x64 ADD PUSH2 0x38E JUMP JUMPDEST DUP3 ISZERO DUP1 ISZERO SWAP1 PUSH2 0x785 JUMPI POP PUSH1 0xA DUP4 GT ISZERO JUMPDEST PUSH2 0x7D1 JUMPI PUSH1 0x40 MLOAD PUSH3 0x461BCD PUSH1 0xE5 SHL DUP2 MSTORE PUSH1 0x20 PUSH1 0x4 DUP3 ADD MSTORE PUSH1 0x14 PUSH1 0x24 DUP3 ADD MSTORE PUSH32 0x496E76616C6964206172726179206C656E677468000000000000000000000000 PUSH1 0x44 DUP3 ADD MSTORE PUSH1 0x64 ADD PUSH2 0x38E JUMP JUMPDEST CALLER PUSH0 SWAP1 DUP2 MSTORE PUSH1 0x3 PUSH1 0x20 MSTORE PUSH1 0x40 DUP2 KECCAK256 PUSH2 0x7E8 SWAP2 PUSH2 0xC93 JUMP JUMPDEST PUSH0 JUMPDEST DUP4 DUP2 LT ISZERO PUSH2 0x51E JUMPI PUSH0 DUP4 DUP4 DUP4 DUP2 DUP2 LT PUSH2 0x805 JUMPI PUSH2 0x805 PUSH2 0x1015 JUMP JUMPDEST SWAP1 POP PUSH1 0x20 MUL DUP2 ADD SWAP1 PUSH2 0x817 SWAP2 SWAP1 PUSH2 0x1029 JUMP JUMPDEST SWAP1 POP GT PUSH2 0x85D JUMPI PUSH1 0x40 MLOAD PUSH3 0x461BCD PUSH1 0xE5 SHL DUP2 MSTORE PUSH1 0x20 PUSH1 0x4 DUP3 ADD MSTORE PUSH1 0x14 PUSH1 0x24 DUP3 ADD MSTORE PUSH20 0x125B9C1D5D081C1C9BDBD9881C995C5D5A5C9959 PUSH1 0x62 SHL PUSH1 0x44 DUP3 ADD MSTORE PUSH1 0x64 ADD PUSH2 0x38E JUMP JUMPDEST PUSH0 DUP6 DUP6 DUP4 DUP2 DUP2 LT PUSH2 0x870 JUMPI PUSH2 0x870 PUSH2 0x1015 JUMP JUMPDEST SWAP1 POP PUSH1 0x20 MUL ADD PUSH1 0x20 DUP2 ADD SWAP1 PUSH2 0x885 SWAP2 SWAP1 PUSH2 0xF81 JUMP JUMPDEST DUP5 DUP5 DUP5 DUP2 DUP2 LT PUSH2 0x897 JUMPI PUSH2 0x897 PUSH2 0x1015 JUMP JUMPDEST SWAP1 POP PUSH1 0x20 MUL DUP2 ADD SWAP1 PUSH2 0x8A9 SWAP2 SWAP1 PUSH2 0x1029 JUMP JUMPDEST TIMESTAMP CALLER DUP7 PUSH1 0x40 MLOAD PUSH1 0x20 ADD PUSH2 0x8C1 SWAP7 SWAP6 SWAP5 SWAP4 SWAP3 SWAP2 SWAP1 PUSH2 0x106C JUMP JUMPDEST PUSH1 0x40 DUP1 MLOAD PUSH1 0x1F NOT DUP2 DUP5 SUB ADD DUP2 MSTORE SWAP2 DUP2 MSTORE DUP2 MLOAD PUSH1 0x20 SWAP3 DUP4 ADD KECCAK256 CALLER PUSH0 SWAP1 DUP2 MSTORE PUSH1 0x3 DUP5 MSTORE SWAP2 DUP3 KECCAK256 DUP1 SLOAD PUSH1 0x1 DUP2 DUP2 ADD DUP4 SSTORE SWAP2 DUP5 MSTORE SWAP4 SWAP1 SWAP3 KECCAK256 SWAP1 SWAP3 ADD SWAP2 SWAP1 SWAP2 SSTORE SWAP2 SWAP1 SWAP2 ADD SWAP1 POP PUSH2 0x7EA JUMP JUMPDEST PUSH0 DUP1 DUP6 DUP5 DUP5 PUSH1 0x40 MLOAD PUSH1 0x20 ADD PUSH2 0x91E SWAP4 SWAP3 SWAP2 SWAP1 PUSH2 0x126E JUMP JUMPDEST PUSH1 0x40 MLOAD PUSH1 0x20 DUP2 DUP4 SUB SUB DUP2 MSTORE SWAP1 PUSH1 0x40 MSTORE DUP1 MLOAD SWAP1 PUSH1 0x20 ADD KECCAK256 DUP6 DUP6 DUP6 PUSH1 0x40 MLOAD PUSH1 0x20 ADD PUSH2 0x949 SWAP4 SWAP3 SWAP2 SWAP1 PUSH2 0x126E JUMP JUMPDEST PUSH1 0x40 MLOAD PUSH1 0x20 DUP2 DUP4 SUB SUB DUP2 MSTORE SWAP1 PUSH1 0x40 MSTORE DUP1 MLOAD SWAP1 PUSH1 0x20 ADD KECCAK256 SWAP2 POP SWAP2 POP SWAP5 POP SWAP5 SWAP3 POP POP POP JUMP JUMPDEST PUSH1 0x1 PUSH1 0x1 PUSH1 0xA0 SHL SUB DUP2 AND PUSH0 SWAP1 DUP2 MSTORE PUSH1 0x3 PUSH1 0x20 SWAP1 DUP2 MSTORE PUSH1 0x40 SWAP2 DUP3 SWAP1 KECCAK256 DUP1 SLOAD DUP4 MLOAD DUP2 DUP5 MUL DUP2 ADD DUP5 ADD SWAP1 SWAP5 MSTORE DUP1 DUP5 MSTORE PUSH1 0x60 SWAP4 SWAP3 DUP4 ADD DUP3 DUP3 DUP1 ISZERO PUSH2 0x9C9 JUMPI PUSH1 0x20 MUL DUP3 ADD SWAP2 SWAP1 PUSH0 MSTORE PUSH1 0x20 PUSH0 KECCAK256 SWAP1 JUMPDEST DUP2 SLOAD DUP2 MSTORE PUSH1 0x20 ADD SWAP1 PUSH1 0x1 ADD SWAP1 DUP1 DUP4 GT PUSH2 0x9B5 JUMPI JUMPDEST POP POP POP POP POP SWAP1 POP SWAP2 SWAP1 POP JUMP JUMPDEST PUSH1 0x1 DUP2 DUP2 SLOAD DUP2 LT PUSH2 0x9E4 JUMPI PUSH0 DUP1 REVERT JUMPDEST PUSH0 SWAP2 DUP3 MSTORE PUSH1 0x20 SWAP1 SWAP2 KECCAK256 ADD SLOAD SWAP1 POP DUP2 JUMP JUMPDEST DUP1 PUSH2 0xA38 JUMPI PUSH1 0x40 MLOAD PUSH3 0x461BCD PUSH1 0xE5 SHL DUP2 MSTORE PUSH1 0x20 PUSH1 0x4 DUP3 ADD MSTORE PUSH1 0x14 PUSH1 0x24 DUP3 ADD MSTORE PUSH20 0x125B9C1D5D081C1C9BDBD9881C995C5D5A5C9959 PUSH1 0x62 SHL PUSH1 0x44 DUP3 ADD MSTORE PUSH1 0x64 ADD PUSH2 0x38E JUMP JUMPDEST DUP3 DUP3 DUP3 TIMESTAMP CALLER PUSH1 0x40 MLOAD PUSH1 0x20 ADD PUSH2 0xA51 SWAP6 SWAP5 SWAP4 SWAP3 SWAP2 SWAP1 PUSH2 0x122B JUMP JUMPDEST PUSH1 0x40 DUP1 MLOAD DUP1 DUP4 SUB PUSH1 0x1F NOT ADD DUP2 MSTORE SWAP1 DUP3 SWAP1 MSTORE DUP1 MLOAD PUSH1 0x20 SWAP2 DUP3 ADD KECCAK256 PUSH0 DUP2 SWAP1 SSTORE DUP3 MSTORE PUSH32 0xBE52A74434C122960B6D19801BBE525210293DDC72BB67FC3D84C0FDBCAF66FB SWAP2 ADD PUSH1 0x40 MLOAD DUP1 SWAP2 SUB SWAP1 LOG1 POP POP POP JUMP JUMPDEST PUSH0 DUP2 PUSH2 0xAE5 JUMPI PUSH1 0x40 MLOAD PUSH3 0x461BCD PUSH1 0xE5 SHL DUP2 MSTORE PUSH1 0x20 PUSH1 0x4 DUP3 ADD MSTORE PUSH1 0x14 PUSH1 0x24 DUP3 ADD MSTORE PUSH20 0x125B9C1D5D081C1C9BDBD9881C995C5D5A5C9959 PUSH1 0x62 SHL PUSH1 0x44 DUP3 ADD MSTORE PUSH1 0x64 ADD PUSH2 0x38E JUMP JUMPDEST PUSH1 0x1 PUSH1 0x1 PUSH1 0xA0 SHL SUB DUP5 AND PUSH2 0xB3B JUMPI PUSH1 0x40 MLOAD PUSH3 0x461BCD PUSH1 0xE5 SHL DUP2 MSTORE PUSH1 0x20 PUSH1 0x4 DUP3 ADD MSTORE PUSH1 0xF PUSH1 0x24 DUP3 ADD MSTORE PUSH32 0x496E76616C696420616464726573730000000000000000000000000000000000 PUSH1 0x44 DUP3 ADD MSTORE PUSH1 0x64 ADD PUSH2 0x38E JUMP JUMPDEST DUP4 DUP4 DUP4 PUSH1 0x40 MLOAD PUSH1 0x20 ADD PUSH2 0x715 SWAP4 SWAP3 SWAP2 SWAP1 PUSH2 0x1295 JUMP JUMPDEST PUSH1 0x3 PUSH1 0x20 MSTORE DUP2 PUSH0 MSTORE PUSH1 0x40 PUSH0 KECCAK256 DUP2 DUP2 SLOAD DUP2 LT PUSH2 0xB69 JUMPI PUSH0 DUP1 REVERT JUMPDEST SWAP1 PUSH0 MSTORE PUSH1 0x20 PUSH0 KECCAK256 ADD PUSH0 SWAP2 POP SWAP2 POP POP SLOAD DUP2 JUMP JUMPDEST PUSH0 DUP2 PUSH2 0xBC0 JUMPI PUSH1 0x40 MLOAD PUSH3 0x461BCD PUSH1 0xE5 SHL DUP2 MSTORE PUSH1 0x20 PUSH1 0x4 DUP3 ADD MSTORE PUSH1 0x14 PUSH1 0x24 DUP3 ADD MSTORE PUSH20 0x125B9C1D5D081C1C9BDBD9881C995C5D5A5C9959 PUSH1 0x62 SHL PUSH1 0x44 DUP3 ADD MSTORE PUSH1 0x64 ADD PUSH2 0x38E JUMP JUMPDEST DUP4 DUP4 DUP4 PUSH1 0x40 MLOAD PUSH1 0x20 ADD PUSH2 0x715 SWAP4 SWAP3 SWAP2 SWAP1 PUSH2 0x12E5 JUMP JUMPDEST DUP1 PUSH2 0xC19 JUMPI PUSH1 0x40 MLOAD PUSH3 0x461BCD PUSH1 0xE5 SHL DUP2 MSTORE PUSH1 0x20 PUSH1 0x4 DUP3 ADD MSTORE PUSH1 0x14 PUSH1 0x24 DUP3 ADD MSTORE PUSH20 0x125B9C1D5D081C1C9BDBD9881C995C5D5A5C9959 PUSH1 0x62 SHL PUSH1 0x44 DUP3 ADD MSTORE PUSH1 0x64 ADD PUSH2 0x38E JUMP JUMPDEST PUSH0 DUP4 DUP4 DUP4 TIMESTAMP CALLER PUSH1 0x40 MLOAD PUSH1 0x20 ADD PUSH2 0xC33 SWAP6 SWAP5 SWAP4 SWAP3 SWAP2 SWAP1 PUSH2 0x122B JUMP JUMPDEST PUSH1 0x40 DUP1 MLOAD DUP1 DUP4 SUB PUSH1 0x1F NOT ADD DUP2 MSTORE DUP3 DUP3 MSTORE DUP1 MLOAD PUSH1 0x20 SWAP2 DUP3 ADD KECCAK256 CALLER PUSH0 DUP2 DUP2 MSTORE PUSH1 0x2 DUP5 MSTORE SWAP4 SWAP1 SWAP4 KECCAK256 DUP2 SWAP1 SSTORE DUP1 DUP5 MSTORE SWAP4 POP SWAP1 SWAP2 PUSH32 0xC376D8DD81736DD33CD0430545353F4944A1288B4944BE37751DD8F4A7A29766 SWAP2 ADD PUSH1 0x40 MLOAD DUP1 SWAP2 SUB SWAP1 LOG2 POP POP POP POP JUMP JUMPDEST POP DUP1 SLOAD PUSH0 DUP3 SSTORE SWAP1 PUSH0 MSTORE PUSH1 0x20 PUSH0 KECCAK256 SWAP1 DUP2 ADD SWAP1 PUSH2 0xCAE SWAP2 SWAP1 PUSH2 0xCB1 JUMP JUMPDEST POP JUMP JUMPDEST JUMPDEST DUP1 DUP3 GT ISZERO PUSH2 0xCC5 JUMPI PUSH0 DUP2 SSTORE PUSH1 0x1 ADD PUSH2 0xCB2 JUMP JUMPDEST POP SWAP1 JUMP JUMPDEST PUSH0 DUP1 DUP4 PUSH1 0x1F DUP5 ADD SLT PUSH2 0xCD9 JUMPI PUSH0 DUP1 REVERT JUMPDEST POP DUP2 CALLDATALOAD PUSH8 0xFFFFFFFFFFFFFFFF DUP2 GT ISZERO PUSH2 0xCF0 JUMPI PUSH0 DUP1 REVERT JUMPDEST PUSH1 0x20 DUP4 ADD SWAP2 POP DUP4 PUSH1 0x20 DUP3 PUSH1 0x5 SHL DUP6 ADD ADD GT ISZERO PUSH2 0xD0A JUMPI PUSH0 DUP1 REVERT JUMPDEST SWAP3 POP SWAP3 SWAP1 POP JUMP JUMPDEST PUSH0 DUP1 PUSH0 DUP1 PUSH1 0x40 DUP6 DUP8 SUB SLT ISZERO PUSH2 0xD24 JUMPI PUSH0 DUP1 REVERT JUMPDEST DUP5 CALLDATALOAD PUSH8 0xFFFFFFFFFFFFFFFF DUP1 DUP3 GT ISZERO PUSH2 0xD3B JUMPI PUSH0 DUP1 REVERT JUMPDEST PUSH2 0xD47 DUP9 DUP4 DUP10 ADD PUSH2 0xCC9 JUMP JUMPDEST SWAP1 SWAP7 POP SWAP5 POP PUSH1 0x20 DUP8 ADD CALLDATALOAD SWAP2 POP DUP1 DUP3 GT ISZERO PUSH2 0xD5F JUMPI PUSH0 DUP1 REVERT JUMPDEST POP PUSH2 0xD6C DUP8 DUP3 DUP9 ADD PUSH2 0xCC9 JUMP JUMPDEST SWAP6 SWAP9 SWAP5 SWAP8 POP SWAP6 POP POP POP POP JUMP JUMPDEST PUSH1 0x20 DUP1 DUP3 MSTORE DUP3 MLOAD DUP3 DUP3 ADD DUP2 SWAP1 MSTORE PUSH0 SWAP2 SWAP1 DUP5 DUP3 ADD SWAP1 PUSH1 0x40 DUP6 ADD SWAP1 DUP5 JUMPDEST DUP2 DUP2 LT ISZERO PUSH2 0xDAF JUMPI DUP4 MLOAD DUP4 MSTORE SWAP3 DUP5 ADD SWAP3 SWAP2 DUP5 ADD SWAP2 PUSH1 0x1 ADD PUSH2 0xD93 JUMP JUMPDEST POP SWAP1 SWAP7 SWAP6 POP POP POP POP POP POP JUMP JUMPDEST DUP1 CALLDATALOAD PUSH4 0xFFFFFFFF DUP2 AND DUP2 EQ PUSH2 0xDCE JUMPI PUSH0 DUP1 REVERT JUMPDEST SWAP2 SWAP1 POP JUMP JUMPDEST PUSH0 DUP1 DUP4 PUSH1 0x1F DUP5 ADD SLT PUSH2 0xDE3 JUMPI PUSH0 DUP1 REVERT JUMPDEST POP DUP2 CALLDATALOAD PUSH8 0xFFFFFFFFFFFFFFFF DUP2 GT ISZERO PUSH2 0xDFA JUMPI PUSH0 DUP1 REVERT JUMPDEST PUSH1 0x20 DUP4 ADD SWAP2 POP DUP4 PUSH1 0x20 DUP3 DUP6 ADD ADD GT ISZERO PUSH2 0xD0A JUMPI PUSH0 DUP1 REVERT JUMPDEST PUSH0 DUP1 PUSH0 DUP1 PUSH0 DUP1 PUSH1 0xA0 DUP8 DUP10 SUB SLT ISZERO PUSH2 0xE26 JUMPI PUSH0 DUP1 REVERT JUMPDEST DUP7 CALLDATALOAD PUSH1 0xFF DUP2 AND DUP2 EQ PUSH2 0xE36 JUMPI PUSH0 DUP1 REVERT JUMPDEST SWAP6 POP PUSH1 0x20 DUP8 ADD CALLDATALOAD PUSH2 0xFFFF DUP2 AND DUP2 EQ PUSH2 0xE4C JUMPI PUSH0 DUP1 REVERT JUMPDEST SWAP5 POP PUSH2 0xE5A PUSH1 0x40 DUP9 ADD PUSH2 0xDBB JUMP JUMPDEST SWAP4 POP PUSH1 0x60 DUP8 ADD CALLDATALOAD PUSH8 0xFFFFFFFFFFFFFFFF DUP1 DUP3 AND DUP3 EQ PUSH2 0xE77 JUMPI PUSH0 DUP1 REVERT JUMPDEST SWAP1 SWAP4 POP PUSH1 0x80 DUP9 ADD CALLDATALOAD SWAP1 DUP1 DUP3 GT ISZERO PUSH2 0xE8C JUMPI PUSH0 DUP1 REVERT JUMPDEST POP PUSH2 0xE99 DUP10 DUP3 DUP11 ADD PUSH2 0xDD3 JUMP JUMPDEST SWAP8 SWAP11 SWAP7 SWAP10 POP SWAP5 SWAP8 POP SWAP3 SWAP6 SWAP4 SWAP5 SWAP3 POP POP POP JUMP JUMPDEST PUSH0 DUP1 PUSH0 PUSH1 0x40 DUP5 DUP7 SUB SLT ISZERO PUSH2 0xEBD JUMPI PUSH0 DUP1 REVERT JUMPDEST PUSH2 0xEC6 DUP5 PUSH2 0xDBB JUMP JUMPDEST SWAP3 POP PUSH1 0x20 DUP5 ADD CALLDATALOAD PUSH8 0xFFFFFFFFFFFFFFFF DUP2 GT ISZERO PUSH2 0xEE1 JUMPI PUSH0 DUP1 REVERT JUMPDEST PUSH2 0xEED DUP7 DUP3 DUP8 ADD PUSH2 0xDD3 JUMP JUMPDEST SWAP5 SWAP8 SWAP1 SWAP7 POP SWAP4 SWAP5 POP POP POP POP JUMP JUMPDEST DUP1 CALLDATALOAD PUSH1 0x1 PUSH1 0x1 PUSH1 0xA0 SHL SUB DUP2 AND DUP2 EQ PUSH2 0xDCE JUMPI PUSH0 DUP1 REVERT JUMPDEST PUSH0 PUSH1 0x20 DUP3 DUP5 SUB SLT ISZERO PUSH2 0xF20 JUMPI PUSH0 DUP1 REVERT JUMPDEST PUSH2 0xF29 DUP3 PUSH2 0xEFA JUMP JUMPDEST SWAP4 SWAP3 POP POP POP JUMP JUMPDEST PUSH0 DUP1 PUSH0 DUP1 PUSH1 0x60 DUP6 DUP8 SUB SLT ISZERO PUSH2 0xF43 JUMPI PUSH0 DUP1 REVERT JUMPDEST PUSH2 0xF4C DUP6 PUSH2 0xDBB JUMP JUMPDEST SWAP4 POP PUSH2 0xF5A PUSH1 0x20 DUP7 ADD PUSH2 0xDBB JUMP JUMPDEST SWAP3 POP PUSH1 0x40 DUP6 ADD CALLDATALOAD PUSH8 0xFFFFFFFFFFFFFFFF DUP2 GT ISZERO PUSH2 0xF75 JUMPI PUSH0 DUP1 REVERT JUMPDEST PUSH2 0xD6C DUP8 DUP3 DUP9 ADD PUSH2 0xDD3 JUMP JUMPDEST PUSH0 PUSH1 0x20 DUP3 DUP5 SUB SLT ISZERO PUSH2 0xF91 JUMPI PUSH0 DUP1 REVERT JUMPDEST PUSH2 0xF29 DUP3 PUSH2 0xDBB JUMP JUMPDEST PUSH0 PUSH1 0x20 DUP3 DUP5 SUB SLT ISZERO PUSH2 0xFAA JUMPI PUSH0 DUP1 REVERT JUMPDEST POP CALLDATALOAD SWAP2 SWAP1 POP JUMP JUMPDEST PUSH0 DUP1 PUSH0 PUSH1 0x40 DUP5 DUP7 SUB SLT ISZERO PUSH2 0xFC3 JUMPI PUSH0 DUP1 REVERT JUMPDEST PUSH2 0xEC6 DUP5 PUSH2 0xEFA JUMP JUMPDEST PUSH0 DUP1 PUSH1 0x40 DUP4 DUP6 SUB SLT ISZERO PUSH2 0xFDD JUMPI PUSH0 DUP1 REVERT JUMPDEST PUSH2 0xFE6 DUP4 PUSH2 0xEFA JUMP JUMPDEST SWAP5 PUSH1 0x20 SWAP4 SWAP1 SWAP4 ADD CALLDATALOAD SWAP4 POP POP POP JUMP JUMPDEST PUSH0 DUP1 PUSH0 PUSH1 0x40 DUP5 DUP7 SUB SLT ISZERO PUSH2 0x1006 JUMPI PUSH0 DUP1 REVERT JUMPDEST DUP4 CALLDATALOAD DUP1 ISZERO ISZERO DUP2 EQ PUSH2 0xEC6 JUMPI PUSH0 DUP1 REVERT JUMPDEST PUSH4 0x4E487B71 PUSH1 0xE0 SHL PUSH0 MSTORE PUSH1 0x32 PUSH1 0x4 MSTORE PUSH1 0x24 PUSH0 REVERT JUMPDEST PUSH0 DUP1 DUP4 CALLDATALOAD PUSH1 0x1E NOT DUP5 CALLDATASIZE SUB ADD DUP2 SLT PUSH2 0x103E JUMPI PUSH0 DUP1 REVERT JUMPDEST DUP4 ADD DUP1 CALLDATALOAD SWAP2 POP PUSH8 0xFFFFFFFFFFFFFFFF DUP3 GT ISZERO PUSH2 0x1058 JUMPI PUSH0 DUP1 REVERT JUMPDEST PUSH1 0x20 ADD SWAP2 POP CALLDATASIZE DUP2 SWAP1 SUB DUP3 SGT ISZERO PUSH2 0xD0A JUMPI PUSH0 DUP1 REVERT JUMPDEST PUSH1 0xE0 DUP8 SWAP1 SHL PUSH1 0x1 PUSH1 0x1 PUSH1 0xE0 SHL SUB NOT AND DUP2 MSTORE DUP5 DUP7 PUSH1 0x4 DUP4 ADD CALLDATACOPY PUSH1 0x4 SWAP5 ADD SWAP4 DUP5 ADD SWAP3 SWAP1 SWAP3 MSTORE PUSH1 0x60 SHL PUSH12 0xFFFFFFFFFFFFFFFFFFFFFFFF NOT AND PUSH1 0x24 DUP4 ADD MSTORE PUSH1 0x38 DUP3 ADD MSTORE PUSH1 0x58 ADD SWAP3 SWAP2 POP POP JUMP JUMPDEST PUSH1 0xF8 DUP5 SWAP1 SHL PUSH32 0xFF00000000000000000000000000000000000000000000000000000000000000 AND DUP2 MSTORE DUP2 DUP4 PUSH1 0x1 DUP4 ADD CALLDATACOPY PUSH32 0x6575696E74380000000000000000000000000000000000000000000000000000 SWAP2 ADD PUSH1 0x1 DUP2 ADD SWAP2 SWAP1 SWAP2 MSTORE PUSH1 0x7 ADD SWAP3 SWAP2 POP POP JUMP JUMPDEST PUSH1 0xF0 DUP5 SWAP1 SHL PUSH32 0xFFFF000000000000000000000000000000000000000000000000000000000000 AND DUP2 MSTORE DUP2 DUP4 PUSH1 0x2 DUP4 ADD CALLDATACOPY PUSH32 0x6575696E74313600000000000000000000000000000000000000000000000000 SWAP2 ADD PUSH1 0x2 DUP2 ADD SWAP2 SWAP1 SWAP2 MSTORE PUSH1 0x9 ADD SWAP3 SWAP2 POP POP JUMP JUMPDEST PUSH1 0xE0 DUP5 SWAP1 SHL PUSH1 0x1 PUSH1 0x1 PUSH1 0xE0 SHL SUB NOT AND DUP2 MSTORE DUP2 DUP4 PUSH1 0x4 DUP4 ADD CALLDATACOPY PUSH32 0x6575696E74333200000000000000000000000000000000000000000000000000 SWAP2 ADD PUSH1 0x4 DUP2 ADD SWAP2 SWAP1 SWAP2 MSTORE PUSH1 0xB ADD SWAP3 SWAP2 POP POP JUMP JUMPDEST PUSH32 0xFFFFFFFFFFFFFFFF000000000000000000000000000000000000000000000000 DUP5 PUSH1 0xC0 SHL AND DUP2 MSTORE DUP2 DUP4 PUSH1 0x8 DUP4 ADD CALLDATACOPY PUSH32 0x6575696E74363400000000000000000000000000000000000000000000000000 SWAP2 ADD PUSH1 0x8 DUP2 ADD SWAP2 SWAP1 SWAP2 MSTORE PUSH1 0xF ADD SWAP3 SWAP2 POP POP JUMP JUMPDEST PUSH1 0xE0 DUP7 SWAP1 SHL PUSH1 0x1 PUSH1 0x1 PUSH1 0xE0 SHL SUB NOT AND DUP2 MSTORE DUP4 DUP6 PUSH1 0x4 DUP4 ADD CALLDATACOPY PUSH1 0x4 SWAP4 ADD SWAP3 DUP4 ADD SWAP2 SWAP1 SWAP2 MSTORE PUSH1 0x60 SHL PUSH12 0xFFFFFFFFFFFFFFFFFFFFFFFF NOT AND PUSH1 0x24 DUP3 ADD MSTORE PUSH1 0x38 ADD SWAP3 SWAP2 POP POP JUMP JUMPDEST PUSH1 0xE0 DUP5 SWAP1 SHL PUSH1 0x1 PUSH1 0x1 PUSH1 0xE0 SHL SUB NOT AND DUP2 MSTORE DUP2 DUP4 PUSH1 0x4 DUP4 ADD CALLDATACOPY PUSH0 SWAP2 ADD PUSH1 0x4 ADD SWAP1 DUP2 MSTORE SWAP3 SWAP2 POP POP JUMP JUMPDEST PUSH12 0xFFFFFFFFFFFFFFFFFFFFFFFF NOT DUP5 PUSH1 0x60 SHL AND DUP2 MSTORE DUP2 DUP4 PUSH1 0x14 DUP4 ADD CALLDATACOPY PUSH32 0x6561646472657373000000000000000000000000000000000000000000000000 SWAP2 ADD PUSH1 0x14 DUP2 ADD SWAP2 SWAP1 SWAP2 MSTORE PUSH1 0x1C ADD SWAP3 SWAP2 POP POP JUMP JUMPDEST DUP4 ISZERO ISZERO PUSH1 0xF8 SHL DUP2 MSTORE DUP2 DUP4 PUSH1 0x1 DUP4 ADD CALLDATACOPY PUSH32 0x65626F6F6C000000000000000000000000000000000000000000000000000000 SWAP2 ADD PUSH1 0x1 DUP2 ADD SWAP2 SWAP1 SWAP2 MSTORE PUSH1 0x6 ADD SWAP3 SWAP2 POP POP JUMP INVALID LOG2 PUSH5 0x6970667358 0x22 SLT KECCAK256 CREATE 0xAB 0xBB ADDRESS RETURNDATACOPY 0x1E DUP7 0xBF MUL MULMOD BASEFEE NUMBER 0xE8 0xDD 0xC5 REVERT 0xD0 0xD7 PUSH31 0x1C6802D8556919922A14E7666E64736F6C6343000818003300000000000000 "},"methodIdentifiers":{"antiPatternNoInputProof(uint32)":"ab3cd903","antiPatternReuseProof(uint32,uint32,bytes)":"7932856b","correctEncryptionPattern(uint32,bytes)":"4898f259","encryptAddress(address,bytes)":"ee7ebe15","encryptBoolean(bool,bytes)":"f5511524","encryptDifferentTypes(uint8,uint16,uint32,uint64,bytes)":"46a0e63e","encryptMultipleValues(uint32[],bytes[])":"0a9ff0d4","encryptSingleValue(uint32,bytes)":"adea853e","encryptUserData(uint32,bytes)":"f6258a27","encryptUserMultipleData(uint32[],bytes[])":"4d8d484e","getAllEncryptedValues()":"3d314795","getSingleEncryptedValue()":"0b5031a5","getUserAllData(address)":"86379e98","getUserDataCount(address)":"647f94a5","getUserEncryptedData(address)":"8d1d3ee8","multipleEncryptedValues(uint256)":"ad8170d6","singleEncryptedValue()":"0b8a8d8c","userEncryptedData(address)":"7f2a3978","userMultipleData(address,uint256)":"efa19bd0"}}}}}