{
  "_format": "hh-sol-artifact-1",
  "contractName": "AntiPatterns",
  "sourceName": "contracts/AntiPatterns.sol",
  "abi": [
    {
      "inputs": [
        {
          "internalType": "bytes32[]",
          "name": "_values",
          "type": "bytes32[]"
        }
      ],
      "name": "antiPattern10_InefficientBatch",
      "outputs": [
        {
          "internalType": "uint256",
          "name": "",
          "type": "uint256"
        }
      ],
      "stateMutability": "nonpayable",
      "type": "function"
    },
    {
      "inputs": [
        {
          "internalType": "bytes32",
          "name": "_encryptedA",
          "type": "bytes32"
        },
        {
          "internalType": "bytes32",
          "name": "_encryptedB",
          "type": "bytes32"
        }
      ],
      "name": "antiPattern1_ViewFunctionWithEncryption",
      "outputs": [
        {
          "internalType": "bytes32",
          "name": "",
          "type": "bytes32"
        }
      ],
      "stateMutability": "pure",
      "type": "function"
    },
    {
      "inputs": [
        {
          "internalType": "bytes32",
          "name": "_encrypted",
          "type": "bytes32"
        }
      ],
      "name": "antiPattern2_MissingAllowThis",
      "outputs": [],
      "stateMutability": "nonpayable",
      "type": "function"
    },
    {
      "inputs": [
        {
          "internalType": "address",
          "name": "_user",
          "type": "address"
        }
      ],
      "name": "antiPattern3_NoUserPermission",
      "outputs": [],
      "stateMutability": "nonpayable",
      "type": "function"
    },
    {
      "inputs": [
        {
          "internalType": "address",
          "name": "_user",
          "type": "address"
        }
      ],
      "name": "antiPattern4_NoAccessControl",
      "outputs": [
        {
          "internalType": "bytes32",
          "name": "",
          "type": "bytes32"
        }
      ],
      "stateMutability": "view",
      "type": "function"
    },
    {
      "inputs": [
        {
          "internalType": "bytes32",
          "name": "_a",
          "type": "bytes32"
        },
        {
          "internalType": "bytes32",
          "name": "_b",
          "type": "bytes32"
        },
        {
          "internalType": "bytes32",
          "name": "_c",
          "type": "bytes32"
        }
      ],
      "name": "antiPattern5_InefficientOperations",
      "outputs": [
        {
          "internalType": "bytes32",
          "name": "",
          "type": "bytes32"
        }
      ],
      "stateMutability": "pure",
      "type": "function"
    },
    {
      "inputs": [
        {
          "internalType": "bytes32",
          "name": "_encrypted",
          "type": "bytes32"
        }
      ],
      "name": "antiPattern6_IncorrectHandleLifecycle",
      "outputs": [],
      "stateMutability": "nonpayable",
      "type": "function"
    },
    {
      "inputs": [
        {
          "internalType": "uint256",
          "name": "_plaintext",
          "type": "uint256"
        }
      ],
      "name": "antiPattern7_StoringDecryptedValue",
      "outputs": [],
      "stateMutability": "nonpayable",
      "type": "function"
    },
    {
      "inputs": [
        {
          "internalType": "bytes32",
          "name": "_encrypted",
          "type": "bytes32"
        }
      ],
      "name": "antiPattern8_NoInputProofValidation",
      "outputs": [],
      "stateMutability": "nonpayable",
      "type": "function"
    },
    {
      "inputs": [
        {
          "internalType": "bytes32",
          "name": "_a",
          "type": "bytes32"
        },
        {
          "internalType": "bytes32",
          "name": "_b",
          "type": "bytes32"
        }
      ],
      "name": "antiPattern9_DirectBooleanComparison",
      "outputs": [
        {
          "internalType": "bool",
          "name": "",
          "type": "bool"
        }
      ],
      "stateMutability": "pure",
      "type": "function"
    },
    {
      "inputs": [],
      "name": "bestPracticesSummary",
      "outputs": [
        {
          "internalType": "string",
          "name": "",
          "type": "string"
        }
      ],
      "stateMutability": "pure",
      "type": "function"
    },
    {
      "inputs": [
        {
          "internalType": "bytes32[]",
          "name": "_values",
          "type": "bytes32[]"
        }
      ],
      "name": "correctPattern10_EfficientBatch",
      "outputs": [
        {
          "internalType": "uint256",
          "name": "",
          "type": "uint256"
        }
      ],
      "stateMutability": "nonpayable",
      "type": "function"
    },
    {
      "inputs": [
        {
          "internalType": "bytes32",
          "name": "_encryptedA",
          "type": "bytes32"
        },
        {
          "internalType": "bytes32",
          "name": "_encryptedB",
          "type": "bytes32"
        }
      ],
      "name": "correctPattern1_StatefulFHEOperation",
      "outputs": [
        {
          "internalType": "bytes32",
          "name": "",
          "type": "bytes32"
        }
      ],
      "stateMutability": "nonpayable",
      "type": "function"
    },
    {
      "inputs": [
        {
          "internalType": "bytes32",
          "name": "_encrypted",
          "type": "bytes32"
        }
      ],
      "name": "correctPattern2_WithAllowThis",
      "outputs": [],
      "stateMutability": "nonpayable",
      "type": "function"
    },
    {
      "inputs": [
        {
          "internalType": "address",
          "name": "_user",
          "type": "address"
        }
      ],
      "name": "correctPattern3_WithUserPermission",
      "outputs": [],
      "stateMutability": "nonpayable",
      "type": "function"
    },
    {
      "inputs": [
        {
          "internalType": "address",
          "name": "_user",
          "type": "address"
        }
      ],
      "name": "correctPattern4_WithAccessControl",
      "outputs": [
        {
          "internalType": "bytes32",
          "name": "",
          "type": "bytes32"
        }
      ],
      "stateMutability": "view",
      "type": "function"
    },
    {
      "inputs": [
        {
          "internalType": "bytes32",
          "name": "_a",
          "type": "bytes32"
        },
        {
          "internalType": "bytes32",
          "name": "_b",
          "type": "bytes32"
        },
        {
          "internalType": "bytes32",
          "name": "_c",
          "type": "bytes32"
        }
      ],
      "name": "correctPattern5_EfficientOperations",
      "outputs": [
        {
          "internalType": "bytes32",
          "name": "",
          "type": "bytes32"
        }
      ],
      "stateMutability": "pure",
      "type": "function"
    },
    {
      "inputs": [
        {
          "internalType": "bytes32",
          "name": "_encrypted",
          "type": "bytes32"
        }
      ],
      "name": "correctPattern6_CorrectHandleLifecycle",
      "outputs": [],
      "stateMutability": "nonpayable",
      "type": "function"
    },
    {
      "inputs": [
        {
          "internalType": "bytes32",
          "name": "_encrypted",
          "type": "bytes32"
        }
      ],
      "name": "correctPattern7_KeepEncrypted",
      "outputs": [],
      "stateMutability": "nonpayable",
      "type": "function"
    },
    {
      "inputs": [
        {
          "internalType": "uint32",
          "name": "_value",
          "type": "uint32"
        },
        {
          "internalType": "bytes",
          "name": "_inputProof",
          "type": "bytes"
        }
      ],
      "name": "correctPattern8_WithInputProofValidation",
      "outputs": [],
      "stateMutability": "nonpayable",
      "type": "function"
    },
    {
      "inputs": [
        {
          "internalType": "bytes32",
          "name": "_a",
          "type": "bytes32"
        },
        {
          "internalType": "bytes32",
          "name": "_b",
          "type": "bytes32"
        },
        {
          "internalType": "bytes32",
          "name": "_ifTrue",
          "type": "bytes32"
        },
        {
          "internalType": "bytes32",
          "name": "_ifFalse",
          "type": "bytes32"
        }
      ],
      "name": "correctPattern9_UseSelect",
      "outputs": [
        {
          "internalType": "bytes32",
          "name": "",
          "type": "bytes32"
        }
      ],
      "stateMutability": "pure",
      "type": "function"
    },
    {
      "inputs": [],
      "name": "decryptedValue",
      "outputs": [
        {
          "internalType": "uint256",
          "name": "",
          "type": "uint256"
        }
      ],
      "stateMutability": "view",
      "type": "function"
    },
    {
      "inputs": [],
      "name": "encryptedValue",
      "outputs": [
        {
          "internalType": "bytes32",
          "name": "",
          "type": "bytes32"
        }
      ],
      "stateMutability": "view",
      "type": "function"
    },
    {
      "inputs": [
        {
          "internalType": "address",
          "name": "",
          "type": "address"
        }
      ],
      "name": "userValues",
      "outputs": [
        {
          "internalType": "bytes32",
          "name": "",
          "type": "bytes32"
        }
      ],
      "stateMutability": "view",
      "type": "function"
    }
  ],
  "bytecode": "0x608060405234801561000f575f80fd5b50610da68061001d5f395ff3fe608060405234801561000f575f80fd5b506004361061018f575f3560e01c80637e3333c6116100dd578063ca9c25a511610088578063f810313e11610063578063f810313e146103a2578063f881df4f146103ab578063ff68a8a9146101b9575f80fd5b8063ca9c25a514610367578063e2eddebc1461037a578063f349da70146102aa575f80fd5b80639fb39833116100b85780639fb39833146102d8578063b5cec59314610341578063be303c6014610354575f80fd5b80637e3333c6146101b95780638501bca5146102bd57806386e560be146102d0575f80fd5b80634acfd9b81161013d578063633ccf9d11610118578063633ccf9d146102745780636ecf7286146102975780637b1e0fb1146102aa575f80fd5b80634acfd9b8146102085780634e5878791461022757806361da43c21461023a575f80fd5b80632f6caec41161016d5780632f6caec4146101cd57806330a3d822146101e0578063465987b6146101f3575f80fd5b806303453a071461019357806311ec23f3146101b957806313696744146101b9575b5f80fd5b6101a66101a13660046108de565b6103be565b6040519081526020015b60405180910390f35b6101cb6101c736600461090d565b5f55565b005b6101cb6101db36600461090d565b610457565b6101a66101ee366004610924565b610498565b6101fb61052c565b6040516101b09190610993565b6101a66102163660046109df565b60016020525f908152604090205481565b6101a6610235366004610924565b61054f565b6101a6610248366004610a0c565b604080516020808201949094528082019290925280518083038201815260609092019052805191012090565b610287610282366004610a0c565b6105a6565b60405190151581526020016101b0565b6101a66102a5366004610a0c565b6105f1565b6101cb6102b83660046109df565b61063f565b6101cb6102cb36600461090d565b600255565b6101a65f5481565b6101a66102e6366004610a2c565b604080516020808201959095528082019390935260608301919091527f636f6d62696e656400000000000000000000000000000000000000000000000060808301528051606881840301815260889092019052805191012090565b6101cb61034f36600461090d565b6106af565b6101a6610362366004610a2c565b6106e8565b6101cb610375366004610a55565b6107df565b6101a66103883660046109df565b6001600160a01b03165f9081526001602052604090205490565b6101a660025481565b6101a66103b93660046109df565b610860565b5f8085856040516020016103e7929190918252602082015261657160f01b604082015260420190565b60408051808303601f190181528282528051602091820120818401528282019690965260608201949094527f73656c656374000000000000000000000000000000000000000000000000000060808201528351606681830301815260869091019093525050805191012092915050565b604051819061047a9082906020019081526218591960ea1b602082015260230190565b60408051601f1981840301815291905280516020909101205f555050565b5f816104eb5760405162461bcd60e51b815260206004820152600b60248201527f456d70747920617272617900000000000000000000000000000000000000000060448201526064015b60405180910390fd5b5f83836040516020016104ff929190610adb565b60408051808303601f190181529181528151602092830120335f9081526001909352912055509092915050565b60606040518061020001604052806101de8152602001610b936101de9139905090565b5f80805b8381101561059e5784848281811061056d5761056d610b1b565b335f90815260016020908152604090912091029290920135909155508161059381610b2f565b925050600101610553565b509392505050565b5f8083836040516020016105cf929190918252602082015261657160f01b604082015260420190565b60408051808303601f1901815291905280516020909101201515949350505050565b5f80838360405160200161061b92919091825260208201526218591960ea1b604082015260430190565b60408051808303601f1901815291905280516020909101205f819055949350505050565b5f805460405160200161067a9181527f6f7065726174696f6e0000000000000000000000000000000000000000000000602082015260290190565b60408051601f1981840301815291815281516020928301206001600160a01b039094165f908152600190925290209190915550565b60405181905f906106d49083906020019081526218591960ea1b602082015260230190565b60408051601f1981840301905252505f5550565b5f808484604051602001610706929190918252602082015260400190565b6040516020818303038152906040528051906020012090505f8160405160200161073e9181526218591960ea1b602082015260230190565b60408051601f19818403018152828252805160209182012090830181905290820186905291505f906060016040516020818303038152906040528051906020012090505f816040516020016107bb9181527f66696e616c000000000000000000000000000000000000000000000000000000602082015260250190565b60408051808303601f19018152919052805160209091012098975050505050505050565b8061082c5760405162461bcd60e51b815260206004820152601460248201527f496e7075742070726f6f6620726571756972656400000000000000000000000060448201526064016104e2565b82828260405160200161084193929190610b53565b60408051601f1981840301815291905280516020909101205f55505050565b5f336001600160a01b038316148061087757503330145b6108c35760405162461bcd60e51b815260206004820152600d60248201527f4163636573732064656e6965640000000000000000000000000000000000000060448201526064016104e2565b506001600160a01b03165f9081526001602052604090205490565b5f805f80608085870312156108f1575f80fd5b5050823594602084013594506040840135936060013592509050565b5f6020828403121561091d575f80fd5b5035919050565b5f8060208385031215610935575f80fd5b823567ffffffffffffffff8082111561094c575f80fd5b818501915085601f83011261095f575f80fd5b81358181111561096d575f80fd5b8660208260051b8501011115610981575f80fd5b60209290920196919550909350505050565b5f602080835283518060208501525f5b818110156109bf578581018301518582016040015282016109a3565b505f604082860101526040601f19601f8301168501019250505092915050565b5f602082840312156109ef575f80fd5b81356001600160a01b0381168114610a05575f80fd5b9392505050565b5f8060408385031215610a1d575f80fd5b50508035926020909101359150565b5f805f60608486031215610a3e575f80fd5b505081359360208301359350604090920135919050565b5f805f60408486031215610a67575f80fd5b833563ffffffff81168114610a7a575f80fd5b9250602084013567ffffffffffffffff80821115610a96575f80fd5b818601915086601f830112610aa9575f80fd5b813581811115610ab7575f80fd5b876020828501011115610ac8575f80fd5b6020830194508093505050509250925092565b5f7f07ffffffffffffffffffffffffffffffffffffffffffffffffffffffffffffff831115610b08575f80fd5b8260051b80858437919091019392505050565b634e487b7160e01b5f52603260045260245ffd5b5f60018201610b4c57634e487b7160e01b5f52601160045260245ffd5b5060010190565b60e084901b7fffffffff00000000000000000000000000000000000000000000000000000000168152818360048301375f91016004019081529291505056fe4648452042657374205072616374696365733a0a312e204e657665722075736520766965772066756e6374696f6e7320666f7220464845206f7065726174696f6e730a322e20416c776179732063616c6c204648452e616c6c6f77546869732829206265666f7265207573696e6720656e637279707465642076616c7565730a332e204772616e74207573657273207065726d697373696f6e2077697468204648452e616c6c6f772829206166746572206f7065726174696f6e730a342e20496d706c656d656e742061636365737320636f6e74726f6c206576656e20666f7220656e6372797074656420646174610a352e204d696e696d697a65206e756d626572206f6620464845206f7065726174696f6e7320666f722067617320656666696369656e63790a362e20547261636b2068616e646c6520757064617465732061667465722065616368206f7065726174696f6e0a372e204b6565702076616c75657320656e63727970746564206f6e2d636861696e0a382e20416c776179732076616c696461746520696e7075742070726f6f66730a392e20557365204648452e73656c656374282920666f7220636f6e646974696f6e616c206c6f6769630a31302e204f7074696d697a65206261746368206f7065726174696f6e73a26469706673582212202e043ed991037ef9b840b807ef921f1b995433cb245ebf4477a745f8c63f5ddd64736f6c63430008180033",
  "linkReferences": {},
  "deployedLinkReferences": {}
}