{
  "_format": "hh-sol-artifact-1",
  "contractName": "PrivacyGuess",
  "sourceName": "contracts/PrivacyGuess.sol",
  "abi": [
    {
      "inputs": [],
      "stateMutability": "nonpayable",
      "type": "constructor"
    },
    {
      "anonymous": false,
      "inputs": [
        {
          "indexed": true,
          "internalType": "uint256",
          "name": "eventId",
          "type": "uint256"
        },
        {
          "indexed": false,
          "internalType": "string",
          "name": "title",
          "type": "string"
        },
        {
          "indexed": false,
          "internalType": "uint256",
          "name": "endTime",
          "type": "uint256"
        }
      ],
      "name": "EventCreated",
      "type": "event"
    },
    {
      "anonymous": false,
      "inputs": [
        {
          "indexed": true,
          "internalType": "uint256",
          "name": "eventId",
          "type": "uint256"
        },
        {
          "indexed": false,
          "internalType": "bool",
          "name": "outcome",
          "type": "bool"
        }
      ],
      "name": "EventFinalized",
      "type": "event"
    },
    {
      "anonymous": false,
      "inputs": [
        {
          "indexed": true,
          "internalType": "uint256",
          "name": "eventId",
          "type": "uint256"
        },
        {
          "indexed": true,
          "internalType": "address",
          "name": "predictor",
          "type": "address"
        }
      ],
      "name": "PredictionMade",
      "type": "event"
    },
    {
      "anonymous": false,
      "inputs": [
        {
          "indexed": true,
          "internalType": "uint256",
          "name": "eventId",
          "type": "uint256"
        },
        {
          "indexed": true,
          "internalType": "address",
          "name": "predictor",
          "type": "address"
        },
        {
          "indexed": false,
          "internalType": "bool",
          "name": "guess",
          "type": "bool"
        },
        {
          "indexed": false,
          "internalType": "bool",
          "name": "correct",
          "type": "bool"
        }
      ],
      "name": "ResultRevealed",
      "type": "event"
    },
    {
      "inputs": [
        {
          "internalType": "string",
          "name": "_title",
          "type": "string"
        },
        {
          "internalType": "string",
          "name": "_description",
          "type": "string"
        },
        {
          "internalType": "uint256",
          "name": "_duration",
          "type": "uint256"
        }
      ],
      "name": "createEvent",
      "outputs": [
        {
          "internalType": "uint256",
          "name": "",
          "type": "uint256"
        }
      ],
      "stateMutability": "nonpayable",
      "type": "function"
    },
    {
      "inputs": [
        {
          "internalType": "uint256",
          "name": "",
          "type": "uint256"
        },
        {
          "internalType": "uint256",
          "name": "",
          "type": "uint256"
        }
      ],
      "name": "eventPredictors",
      "outputs": [
        {
          "internalType": "address",
          "name": "",
          "type": "address"
        }
      ],
      "stateMutability": "view",
      "type": "function"
    },
    {
      "inputs": [
        {
          "internalType": "uint256",
          "name": "",
          "type": "uint256"
        }
      ],
      "name": "events",
      "outputs": [
        {
          "internalType": "string",
          "name": "title",
          "type": "string"
        },
        {
          "internalType": "string",
          "name": "description",
          "type": "string"
        },
        {
          "internalType": "uint256",
          "name": "endTime",
          "type": "uint256"
        },
        {
          "internalType": "bool",
          "name": "isFinalized",
          "type": "bool"
        },
        {
          "internalType": "bool",
          "name": "actualOutcome",
          "type": "bool"
        },
        {
          "internalType": "uint256",
          "name": "totalPredictions",
          "type": "uint256"
        }
      ],
      "stateMutability": "view",
      "type": "function"
    },
    {
      "inputs": [
        {
          "internalType": "uint256",
          "name": "_eventId",
          "type": "uint256"
        },
        {
          "internalType": "bool",
          "name": "_actualOutcome",
          "type": "bool"
        }
      ],
      "name": "finalizeEvent",
      "outputs": [],
      "stateMutability": "nonpayable",
      "type": "function"
    },
    {
      "inputs": [
        {
          "internalType": "uint256",
          "name": "_eventId",
          "type": "uint256"
        }
      ],
      "name": "getEvent",
      "outputs": [
        {
          "components": [
            {
              "internalType": "string",
              "name": "title",
              "type": "string"
            },
            {
              "internalType": "string",
              "name": "description",
              "type": "string"
            },
            {
              "internalType": "uint256",
              "name": "endTime",
              "type": "uint256"
            },
            {
              "internalType": "bool",
              "name": "isFinalized",
              "type": "bool"
            },
            {
              "internalType": "bool",
              "name": "actualOutcome",
              "type": "bool"
            },
            {
              "internalType": "uint256",
              "name": "totalPredictions",
              "type": "uint256"
            }
          ],
          "internalType": "struct PrivacyGuess.Event",
          "name": "",
          "type": "tuple"
        }
      ],
      "stateMutability": "view",
      "type": "function"
    },
    {
      "inputs": [
        {
          "internalType": "uint256",
          "name": "_eventId",
          "type": "uint256"
        }
      ],
      "name": "getEventPredictors",
      "outputs": [
        {
          "internalType": "address[]",
          "name": "",
          "type": "address[]"
        }
      ],
      "stateMutability": "view",
      "type": "function"
    },
    {
      "inputs": [],
      "name": "getTotalEvents",
      "outputs": [
        {
          "internalType": "uint256",
          "name": "",
          "type": "uint256"
        }
      ],
      "stateMutability": "view",
      "type": "function"
    },
    {
      "inputs": [
        {
          "internalType": "uint256",
          "name": "_eventId",
          "type": "uint256"
        },
        {
          "internalType": "address",
          "name": "_user",
          "type": "address"
        }
      ],
      "name": "getUserPrediction",
      "outputs": [
        {
          "internalType": "bool",
          "name": "hasPredictor",
          "type": "bool"
        },
        {
          "internalType": "uint256",
          "name": "timestamp",
          "type": "uint256"
        },
        {
          "internalType": "bool",
          "name": "isRevealed",
          "type": "bool"
        },
        {
          "internalType": "bool",
          "name": "actualResult",
          "type": "bool"
        }
      ],
      "stateMutability": "view",
      "type": "function"
    },
    {
      "inputs": [
        {
          "internalType": "uint256",
          "name": "_eventId",
          "type": "uint256"
        },
        {
          "internalType": "bool",
          "name": "_vote",
          "type": "bool"
        }
      ],
      "name": "makePrediction",
      "outputs": [],
      "stateMutability": "nonpayable",
      "type": "function"
    },
    {
      "inputs": [],
      "name": "nextEventId",
      "outputs": [
        {
          "internalType": "uint256",
          "name": "",
          "type": "uint256"
        }
      ],
      "stateMutability": "view",
      "type": "function"
    },
    {
      "inputs": [],
      "name": "owner",
      "outputs": [
        {
          "internalType": "address",
          "name": "",
          "type": "address"
        }
      ],
      "stateMutability": "view",
      "type": "function"
    },
    {
      "inputs": [
        {
          "internalType": "uint256",
          "name": "",
          "type": "uint256"
        },
        {
          "internalType": "address",
          "name": "",
          "type": "address"
        }
      ],
      "name": "predictions",
      "outputs": [
        {
          "internalType": "address",
          "name": "predictor",
          "type": "address"
        },
        {
          "internalType": "bytes32",
          "name": "encryptedGuess",
          "type": "bytes32"
        },
        {
          "internalType": "uint256",
          "name": "timestamp",
          "type": "uint256"
        },
        {
          "internalType": "bool",
          "name": "isRevealed",
          "type": "bool"
        },
        {
          "internalType": "bool",
          "name": "actualResult",
          "type": "bool"
        }
      ],
      "stateMutability": "view",
      "type": "function"
    },
    {
      "inputs": [
        {
          "internalType": "uint256",
          "name": "_eventId",
          "type": "uint256"
        },
        {
          "internalType": "bool",
          "name": "_revealedGuess",
          "type": "bool"
        }
      ],
      "name": "revealPrediction",
      "outputs": [],
      "stateMutability": "nonpayable",
      "type": "function"
    }
  ],
  "bytecode": "0x608060405234801561000f575f80fd5b50600480546001600160a01b031916331790555f600355611535806100335f395ff3fe608060405234801561000f575f80fd5b50600436106100da575f3560e01c80636d1884e01161008857806392b108d01161006357806392b108d0146102055780639f9d903a14610290578063b0d6f59c14610299578063c2cf0e93146102ac575f80fd5b80636d1884e0146101a75780637ceb38f8146101c75780638da5cb5b146101f2575f80fd5b80635555fe17116100b85780635555fe171461014157806361606940146101625780636ac28cb31461016a575f80fd5b80630b791430146100de57806337a2a8181461010c5780633b51ac3014610121575b5f80fd5b6100f16100ec366004611075565b6102bf565b604051610103969594939291906110cf565b60405180910390f35b61011f61011a366004611119565b610408565b005b61013461012f366004611075565b610702565b604051610103919061114b565b61015461014f366004611234565b6107b6565b604051908152602001610103565b600354610154565b61017d61017836600461129c565b6108c8565b60408051941515855260208501939093529015159183019190915215156060820152608001610103565b6101ba6101b5366004611075565b61098f565b60405161010391906112ca565b6101da6101d536600461133b565b610b83565b6040516001600160a01b039091168152602001610103565b6004546101da906001600160a01b031681565b61025a61021336600461129c565b600160208181525f9384526040808520909152918352912080549181015460028201546003909201546001600160a01b039093169290919060ff8082169161010090041685565b604080516001600160a01b039096168652602086019490945292840191909152151560608301521515608082015260a001610103565b61015460035481565b61011f6102a7366004611119565b610bb7565b61011f6102ba366004611119565b610e9e565b5f602081905290815260409020805481906102d99061135b565b80601f01602080910402602001604051908101604052809291908181526020018280546103059061135b565b80156103505780601f1061032757610100808354040283529160200191610350565b820191905f5260205f20905b81548152906001019060200180831161033357829003601f168201915b5050505050908060010180546103659061135b565b80601f01602080910402602001604051908101604052809291908181526020018280546103919061135b565b80156103dc5780601f106103b3576101008083540402835291602001916103dc565b820191905f5260205f20905b8154815290600101906020018083116103bf57829003601f168201915b505050600284015460038501546004909501549394909360ff8083169450610100909204909116915086565b8160035481106104565760405162461bcd60e51b8152602060048201526014602482015273115d995b9d08191bd95cc81b9bdd08195e1a5cdd60621b60448201526064015b60405180910390fd5b5f8381526020819052604090206003015460ff166104b65760405162461bcd60e51b815260206004820152601760248201527f4576656e74206e6f742066696e616c697a656420796574000000000000000000604482015260640161044d565b5f8381526001602090815260408083203384529091529020546001600160a01b03166105245760405162461bcd60e51b815260206004820152601360248201527f4e6f2070726564696374696f6e20666f756e6400000000000000000000000000604482015260640161044d565b5f83815260016020908152604080832033845290915290206003015460ff16156105905760405162461bcd60e51b815260206004820152601060248201527f416c72656164792072657665616c656400000000000000000000000000000000604482015260640161044d565b5f83815260016020818152604080842033808652818452828620600281015484518a151560f81b818801526bffffffffffffffffffffffff19606085901b166021820152603580820192909252855180820390920182526055019094528351938501939093209552909152015481146106715760405162461bcd60e51b815260206004820152602f60248201527f496e76616c69642072657665616c202d20677565737320646f65736e2774206d60448201527f6174636820636f6d6d69746d656e740000000000000000000000000000000000606482015260840161044d565b5f8481526020818152604080832060039081015460018085528386203380885290865295849020909201805461ffff19166101009283900460ff1615158a1515908114938402919091179093179055825191825292810183905291929187917f514da75fe6c6998e1b24883de8380db0ac75ab05b901216b851316b251c2c2a6910160405180910390a35050505050565b606081600354811061074d5760405162461bcd60e51b8152602060048201526014602482015273115d995b9d08191bd95cc81b9bdd08195e1a5cdd60621b604482015260640161044d565b5f83815260026020908152604091829020805483518184028101840190945280845290918301828280156107a857602002820191905f5260205f20905b81546001600160a01b0316815260019091019060200180831161078a575b505050505091505b50919050565b600380545f91829190826107c9836113a1565b9190505590506040518060c0016040528086815260200185815260200184426107f291906113b9565b81525f6020808301829052604080840183905260609093018290528482528190522081518190610822908261141e565b5060208201516001820190610837908261141e565b50604082015160028201556060820151600382018054608085015115156101000261ff00199315159390931661ffff199091161791909117905560a090910151600490910155807fee37bb5143a14810f72e86fce895be08e16090409d2e18f79b308995e39b73d4866108aa86426113b9565b6040516108b89291906114de565b60405180910390a2949350505050565b5f805f808560035481106109155760405162461bcd60e51b8152602060048201526014602482015273115d995b9d08191bd95cc81b9bdd08195e1a5cdd60621b604482015260640161044d565b5050505f93845250506001602081815260408085206001600160a01b039485168652825293849020845160a0810186528154909416808552928101549184019190915260028101549383018490526003015460ff808216151560608501819052610100909204161515608090930183905290151593909190565b6109c86040518060c0016040528060608152602001606081526020015f81526020015f151581526020015f151581526020015f81525090565b816003548110610a115760405162461bcd60e51b8152602060048201526014602482015273115d995b9d08191bd95cc81b9bdd08195e1a5cdd60621b604482015260640161044d565b5f8381526020819052604090819020815160c08101909252805482908290610a389061135b565b80601f0160208091040260200160405190810160405280929190818152602001828054610a649061135b565b8015610aaf5780601f10610a8657610100808354040283529160200191610aaf565b820191905f5260205f20905b815481529060010190602001808311610a9257829003601f168201915b50505050508152602001600182018054610ac89061135b565b80601f0160208091040260200160405190810160405280929190818152602001828054610af49061135b565b8015610b3f5780601f10610b1657610100808354040283529160200191610b3f565b820191905f5260205f20905b815481529060010190602001808311610b2257829003601f168201915b505050918352505060028201546020820152600382015460ff8082161515604084015261010090910416151560608201526004909101546080909101529392505050565b6002602052815f5260405f208181548110610b9c575f80fd5b5f918252602090912001546001600160a01b03169150829050565b816003548110610c005760405162461bcd60e51b8152602060048201526014602482015273115d995b9d08191bd95cc81b9bdd08195e1a5cdd60621b604482015260640161044d565b5f8381526020819052604090206002015483904210610c615760405162461bcd60e51b815260206004820152600f60248201527f4576656e742068617320656e6465640000000000000000000000000000000000604482015260640161044d565b5f8181526020819052604090206003015460ff1615610cc25760405162461bcd60e51b815260206004820152601260248201527f4576656e742069732066696e616c697a65640000000000000000000000000000604482015260640161044d565b5f8481526001602090815260408083203384529091529020546001600160a01b031615610d315760405162461bcd60e51b815260206004820152601760248201527f416c7265616479206d6164652070726564696374696f6e000000000000000000604482015260640161044d565b60405183151560f81b60208201526bffffffffffffffffffffffff193360601b1660218201524260358201525f9060550160408051601f19818403018152828252805160209182012060a08401835233808552848301828152428686019081525f60608801818152608089018281528e8352600180895289842087855289528984209a518b546001600160a01b03919091167fffffffffffffffffffffffff0000000000000000000000000000000000000000918216178c5595518b82015593516002808c019190915591516003909a018054915115156101000261ff00199b15159b909b1661ffff1990921691909117999099179098558c815296855285872080549182018155875284872001805490911690911790558884529083905290822060040180549193509091610e66836113a1565b9091555050604051339086907f03433e8596140d945036ac152f7eb3bdf196b11752669fd88a226ff1cd4f2b0f905f90a35050505050565b6004546001600160a01b03163314610f025760405162461bcd60e51b815260206004820152602160248201527f4f6e6c79206f776e65722063616e2063616c6c20746869732066756e6374696f6044820152603760f91b606482015260840161044d565b816003548110610f4b5760405162461bcd60e51b8152602060048201526014602482015273115d995b9d08191bd95cc81b9bdd08195e1a5cdd60621b604482015260640161044d565b5f83815260208190526040902060020154421015610fab5760405162461bcd60e51b815260206004820152601760248201527f4576656e7420686173206e6f7420656e64656420796574000000000000000000604482015260640161044d565b5f8381526020819052604090206003015460ff161561100c5760405162461bcd60e51b815260206004820152601760248201527f4576656e7420616c72656164792066696e616c697a6564000000000000000000604482015260640161044d565b5f838152602081905260409081902060030180548415156101000261ffff199091161760011790555183907ff8b638dbe29d9b9ae1b73a9d7e8ed4729965e0ef1a903eaea00e87a834cb73ee9061106890851515815260200190565b60405180910390a2505050565b5f60208284031215611085575f80fd5b5035919050565b5f81518084525f5b818110156110b057602081850181015186830182015201611094565b505f602082860101526020601f19601f83011685010191505092915050565b60c081525f6110e160c083018961108c565b82810360208401526110f3818961108c565b604084019790975250509215156060840152901515608083015260a09091015292915050565b5f806040838503121561112a575f80fd5b8235915060208301358015158114611140575f80fd5b809150509250929050565b602080825282518282018190525f9190848201906040850190845b8181101561118b5783516001600160a01b031683529284019291840191600101611166565b50909695505050505050565b634e487b7160e01b5f52604160045260245ffd5b5f82601f8301126111ba575f80fd5b813567ffffffffffffffff808211156111d5576111d5611197565b604051601f8301601f19908116603f011681019082821181831017156111fd576111fd611197565b81604052838152866020858801011115611215575f80fd5b836020870160208301375f602085830101528094505050505092915050565b5f805f60608486031215611246575f80fd5b833567ffffffffffffffff8082111561125d575f80fd5b611269878388016111ab565b9450602086013591508082111561127e575f80fd5b5061128b868287016111ab565b925050604084013590509250925092565b5f80604083850312156112ad575f80fd5b8235915060208301356001600160a01b0381168114611140575f80fd5b602081525f825160c060208401526112e560e084018261108c565b90506020840151601f19848303016040850152611302828261108c565b915050604084015160608401526060840151151560808401526080840151151560a084015260a084015160c08401528091505092915050565b5f806040838503121561134c575f80fd5b50508035926020909101359150565b600181811c9082168061136f57607f821691505b6020821081036107b057634e487b7160e01b5f52602260045260245ffd5b634e487b7160e01b5f52601160045260245ffd5b5f600182016113b2576113b261138d565b5060010190565b808201808211156113cc576113cc61138d565b92915050565b601f82111561141957805f5260205f20601f840160051c810160208510156113f75750805b601f840160051c820191505b81811015611416575f8155600101611403565b50505b505050565b815167ffffffffffffffff81111561143857611438611197565b61144c81611446845461135b565b846113d2565b602080601f83116001811461147f575f84156114685750858301515b5f19600386901b1c1916600185901b1785556114d6565b5f85815260208120601f198616915b828110156114ad5788860151825594840194600190910190840161148e565b50858210156114ca57878501515f19600388901b60f8161c191681555b505060018460011b0185555b505050505050565b604081525f6114f0604083018561108c565b9050826020830152939250505056fea2646970667358221220e611bbc2fbc63b7517d2336ab2cf9676dfd1676d45429e3b463b2c7e223d27bb64736f6c63430008180033",
  "linkReferences": {},
  "deployedLinkReferences": {}
}