{
  "_format": "hh-sol-artifact-1",
  "contractName": "Counter",
  "sourceName": "contracts/Counter.sol",
  "abi": [
    {
      "inputs": [
        {
          "internalType": "uint32",
          "name": "value",
          "type": "uint32"
        }
      ],
      "name": "decrement",
      "outputs": [],
      "stateMutability": "nonpayable",
      "type": "function"
    },
    {
      "inputs": [],
      "name": "getCount",
      "outputs": [
        {
          "internalType": "uint32",
          "name": "",
          "type": "uint32"
        }
      ],
      "stateMutability": "view",
      "type": "function"
    },
    {
      "inputs": [
        {
          "internalType": "uint32",
          "name": "value",
          "type": "uint32"
        }
      ],
      "name": "increment",
      "outputs": [],
      "stateMutability": "nonpayable",
      "type": "function"
    },
    {
      "inputs": [],
      "name": "reset",
      "outputs": [],
      "stateMutability": "nonpayable",
      "type": "function"
    }
  ],
  "bytecode": "0x608060405234801561000f575f80fd5b506102148061001d5f395ff3fe608060405234801561000f575f80fd5b506004361061004a575f3560e01c80633bbc853b1461004e578063a87d942c14610063578063c3a7908d1461007e578063d826f88f14610091575b5f80fd5b61006161005c36600461015f565b6100a2565b005b5f546040805163ffffffff9092168252519081900360200190f35b61006161008c36600461015f565b6100dc565b6100615f805463ffffffff19169055565b5f805482919081906100bb90849063ffffffff1661019d565b92506101000a81548163ffffffff021916908363ffffffff16021790555050565b5f5463ffffffff808316911610156101465760405162461bcd60e51b8152602060048201526024808201527f436f756e7465723a2063616e6e6f742064656372656d656e742062656c6f77206044820152637a65726f60e01b606482015260840160405180910390fd5b5f805482919081906100bb90849063ffffffff166101c1565b5f6020828403121561016f575f80fd5b813563ffffffff81168114610182575f80fd5b9392505050565b634e487b7160e01b5f52601160045260245ffd5b63ffffffff8181168382160190808211156101ba576101ba610189565b5092915050565b63ffffffff8281168282160390808211156101ba576101ba61018956fea26469706673582212206bbc61d3e7ebefe3ae1b999a2e5da0dc9ddf0234e5d999fd39db2553351a95a264736f6c63430008180033",
  "linkReferences": {},
  "deployedLinkReferences": {}
}